{
    "contractName": "CallPoints",
    "abi": [
        {
            "inputs": [
                {
                    "internalType": "address",
                    "name": "_multiSigWallet",
                    "type": "address"
                }
            ],
            "stateMutability": "nonpayable",
            "type": "constructor"
        },
        {
            "inputs": [],
            "name": "ECDSAInvalidSignature",
            "type": "error"
        },
        {
            "inputs": [
                {
                    "internalType": "uint256",
                    "name": "length",
                    "type": "uint256"
                }
            ],
            "name": "ECDSAInvalidSignatureLength",
            "type": "error"
        },
        {
            "inputs": [
                {
                    "internalType": "bytes32",
                    "name": "s",
                    "type": "bytes32"
                }
            ],
            "name": "ECDSAInvalidSignatureS",
            "type": "error"
        },
        {
            "inputs": [
                {
                    "internalType": "address",
                    "name": "sender",
                    "type": "address"
                },
                {
                    "internalType": "uint256",
                    "name": "balance",
                    "type": "uint256"
                },
                {
                    "internalType": "uint256",
                    "name": "needed",
                    "type": "uint256"
                },
                {
                    "internalType": "uint256",
                    "name": "tokenId",
                    "type": "uint256"
                }
            ],
            "name": "ERC1155InsufficientBalance",
            "type": "error"
        },
        {
            "inputs": [
                {
                    "internalType": "address",
                    "name": "approver",
                    "type": "address"
                }
            ],
            "name": "ERC1155InvalidApprover",
            "type": "error"
        },
        {
            "inputs": [
                {
                    "internalType": "uint256",
                    "name": "idsLength",
                    "type": "uint256"
                },
                {
                    "internalType": "uint256",
                    "name": "valuesLength",
                    "type": "uint256"
                }
            ],
            "name": "ERC1155InvalidArrayLength",
            "type": "error"
        },
        {
            "inputs": [
                {
                    "internalType": "address",
                    "name": "operator",
                    "type": "address"
                }
            ],
            "name": "ERC1155InvalidOperator",
            "type": "error"
        },
        {
            "inputs": [
                {
                    "internalType": "address",
                    "name": "receiver",
                    "type": "address"
                }
            ],
            "name": "ERC1155InvalidReceiver",
            "type": "error"
        },
        {
            "inputs": [
                {
                    "internalType": "address",
                    "name": "sender",
                    "type": "address"
                }
            ],
            "name": "ERC1155InvalidSender",
            "type": "error"
        },
        {
            "inputs": [
                {
                    "internalType": "address",
                    "name": "operator",
                    "type": "address"
                },
                {
                    "internalType": "address",
                    "name": "owner",
                    "type": "address"
                }
            ],
            "name": "ERC1155MissingApprovalForAll",
            "type": "error"
        },
        {
            "inputs": [
                {
                    "internalType": "address",
                    "name": "owner",
                    "type": "address"
                }
            ],
            "name": "OwnableInvalidOwner",
            "type": "error"
        },
        {
            "inputs": [
                {
                    "internalType": "address",
                    "name": "account",
                    "type": "address"
                }
            ],
            "name": "OwnableUnauthorizedAccount",
            "type": "error"
        },
        {
            "anonymous": false,
            "inputs": [
                {
                    "indexed": true,
                    "internalType": "address",
                    "name": "account",
                    "type": "address"
                },
                {
                    "indexed": true,
                    "internalType": "address",
                    "name": "operator",
                    "type": "address"
                },
                {
                    "indexed": false,
                    "internalType": "bool",
                    "name": "approved",
                    "type": "bool"
                }
            ],
            "name": "ApprovalForAll",
            "type": "event"
        },
        {
            "anonymous": false,
            "inputs": [
                {
                    "indexed": true,
                    "internalType": "address",
                    "name": "user",
                    "type": "address"
                },
                {
                    "indexed": true,
                    "internalType": "uint256",
                    "name": "id",
                    "type": "uint256"
                }
            ],
            "name": "NFTMinted",
            "type": "event"
        },
        {
            "anonymous": false,
            "inputs": [
                {
                    "indexed": true,
                    "internalType": "address",
                    "name": "previousOwner",
                    "type": "address"
                },
                {
                    "indexed": true,
                    "internalType": "address",
                    "name": "newOwner",
                    "type": "address"
                }
            ],
            "name": "OwnershipTransferStarted",
            "type": "event"
        },
        {
            "anonymous": false,
            "inputs": [
                {
                    "indexed": true,
                    "internalType": "address",
                    "name": "previousOwner",
                    "type": "address"
                },
                {
                    "indexed": true,
                    "internalType": "address",
                    "name": "newOwner",
                    "type": "address"
                }
            ],
            "name": "OwnershipTransferred",
            "type": "event"
        },
        {
            "anonymous": false,
            "inputs": [
                {
                    "indexed": true,
                    "internalType": "address",
                    "name": "user",
                    "type": "address"
                },
                {
                    "indexed": false,
                    "internalType": "uint256",
                    "name": "points",
                    "type": "uint256"
                }
            ],
            "name": "PointsClaimed",
            "type": "event"
        },
        {
            "anonymous": false,
            "inputs": [
                {
                    "indexed": true,
                    "internalType": "address",
                    "name": "operator",
                    "type": "address"
                },
                {
                    "indexed": true,
                    "internalType": "address",
                    "name": "from",
                    "type": "address"
                },
                {
                    "indexed": true,
                    "internalType": "address",
                    "name": "to",
                    "type": "address"
                },
                {
                    "indexed": false,
                    "internalType": "uint256[]",
                    "name": "ids",
                    "type": "uint256[]"
                },
                {
                    "indexed": false,
                    "internalType": "uint256[]",
                    "name": "values",
                    "type": "uint256[]"
                }
            ],
            "name": "TransferBatch",
            "type": "event"
        },
        {
            "anonymous": false,
            "inputs": [
                {
                    "indexed": true,
                    "internalType": "address",
                    "name": "operator",
                    "type": "address"
                },
                {
                    "indexed": true,
                    "internalType": "address",
                    "name": "from",
                    "type": "address"
                },
                {
                    "indexed": true,
                    "internalType": "address",
                    "name": "to",
                    "type": "address"
                },
                {
                    "indexed": false,
                    "internalType": "uint256",
                    "name": "id",
                    "type": "uint256"
                },
                {
                    "indexed": false,
                    "internalType": "uint256",
                    "name": "value",
                    "type": "uint256"
                }
            ],
            "name": "TransferSingle",
            "type": "event"
        },
        {
            "anonymous": false,
            "inputs": [
                {
                    "indexed": false,
                    "internalType": "string",
                    "name": "value",
                    "type": "string"
                },
                {
                    "indexed": true,
                    "internalType": "uint256",
                    "name": "id",
                    "type": "uint256"
                }
            ],
            "name": "URI",
            "type": "event"
        },
        {
            "inputs": [],
            "name": "BRONZE",
            "outputs": [
                {
                    "internalType": "uint256",
                    "name": "",
                    "type": "uint256"
                }
            ],
            "stateMutability": "view",
            "type": "function"
        },
        {
            "inputs": [],
            "name": "DIAMOND",
            "outputs": [
                {
                    "internalType": "uint256",
                    "name": "",
                    "type": "uint256"
                }
            ],
            "stateMutability": "view",
            "type": "function"
        },
        {
            "inputs": [],
            "name": "GOLD",
            "outputs": [
                {
                    "internalType": "uint256",
                    "name": "",
                    "type": "uint256"
                }
            ],
            "stateMutability": "view",
            "type": "function"
        },
        {
            "inputs": [],
            "name": "PLATINUM",
            "outputs": [
                {
                    "internalType": "uint256",
                    "name": "",
                    "type": "uint256"
                }
            ],
            "stateMutability": "view",
            "type": "function"
        },
        {
            "inputs": [],
            "name": "SILVER",
            "outputs": [
                {
                    "internalType": "uint256",
                    "name": "",
                    "type": "uint256"
                }
            ],
            "stateMutability": "view",
            "type": "function"
        },
        {
            "inputs": [],
            "name": "acceptOwnership",
            "outputs": [],
            "stateMutability": "nonpayable",
            "type": "function"
        },
        {
            "inputs": [
                {
                    "internalType": "address",
                    "name": "account",
                    "type": "address"
                },
                {
                    "internalType": "uint256",
                    "name": "id",
                    "type": "uint256"
                }
            ],
            "name": "balanceOf",
            "outputs": [
                {
                    "internalType": "uint256",
                    "name": "",
                    "type": "uint256"
                }
            ],
            "stateMutability": "view",
            "type": "function"
        },
        {
            "inputs": [
                {
                    "internalType": "address[]",
                    "name": "accounts",
                    "type": "address[]"
                },
                {
                    "internalType": "uint256[]",
                    "name": "ids",
                    "type": "uint256[]"
                }
            ],
            "name": "balanceOfBatch",
            "outputs": [
                {
                    "internalType": "uint256[]",
                    "name": "",
                    "type": "uint256[]"
                }
            ],
            "stateMutability": "view",
            "type": "function"
        },
        {
            "inputs": [
                {
                    "internalType": "uint256",
                    "name": "secondsOnCall",
                    "type": "uint256"
                },
                {
                    "internalType": "uint256",
                    "name": "numberOfParticipants",
                    "type": "uint256"
                },
                {
                    "internalType": "string",
                    "name": "nonce",
                    "type": "string"
                },
                {
                    "internalType": "bool",
                    "name": "isHost",
                    "type": "bool"
                },
                {
                    "internalType": "bytes",
                    "name": "signature",
                    "type": "bytes"
                }
            ],
            "name": "claimPoints",
            "outputs": [],
            "stateMutability": "nonpayable",
            "type": "function"
        },
        {
            "inputs": [
                {
                    "internalType": "uint256",
                    "name": "secondsOnCall",
                    "type": "uint256"
                },
                {
                    "internalType": "uint256",
                    "name": "numberOfParticipants",
                    "type": "uint256"
                },
                {
                    "internalType": "string",
                    "name": "nonce",
                    "type": "string"
                },
                {
                    "internalType": "bool",
                    "name": "isHost",
                    "type": "bool"
                }
            ],
            "name": "generatePoints",
            "outputs": [
                {
                    "internalType": "bytes32",
                    "name": "",
                    "type": "bytes32"
                }
            ],
            "stateMutability": "view",
            "type": "function"
        },
        {
            "inputs": [
                {
                    "internalType": "uint256",
                    "name": "",
                    "type": "uint256"
                }
            ],
            "name": "hashRates",
            "outputs": [
                {
                    "internalType": "uint256",
                    "name": "",
                    "type": "uint256"
                }
            ],
            "stateMutability": "view",
            "type": "function"
        },
        {
            "inputs": [
                {
                    "internalType": "address",
                    "name": "account",
                    "type": "address"
                },
                {
                    "internalType": "address",
                    "name": "operator",
                    "type": "address"
                }
            ],
            "name": "isApprovedForAll",
            "outputs": [
                {
                    "internalType": "bool",
                    "name": "",
                    "type": "bool"
                }
            ],
            "stateMutability": "view",
            "type": "function"
        },
        {
            "inputs": [
                {
                    "internalType": "address",
                    "name": "account",
                    "type": "address"
                },
                {
                    "internalType": "bytes",
                    "name": "data",
                    "type": "bytes"
                }
            ],
            "name": "mint",
            "outputs": [],
            "stateMutability": "payable",
            "type": "function"
        },
        {
            "inputs": [],
            "name": "multiSigWallet",
            "outputs": [
                {
                    "internalType": "address",
                    "name": "",
                    "type": "address"
                }
            ],
            "stateMutability": "view",
            "type": "function"
        },
        {
            "inputs": [],
            "name": "owner",
            "outputs": [
                {
                    "internalType": "address",
                    "name": "",
                    "type": "address"
                }
            ],
            "stateMutability": "view",
            "type": "function"
        },
        {
            "inputs": [],
            "name": "pendingOwner",
            "outputs": [
                {
                    "internalType": "address",
                    "name": "",
                    "type": "address"
                }
            ],
            "stateMutability": "view",
            "type": "function"
        },
        {
            "inputs": [
                {
                    "internalType": "uint256",
                    "name": "",
                    "type": "uint256"
                }
            ],
            "name": "prices",
            "outputs": [
                {
                    "internalType": "uint256",
                    "name": "",
                    "type": "uint256"
                }
            ],
            "stateMutability": "view",
            "type": "function"
        },
        {
            "inputs": [],
            "name": "renounceOwnership",
            "outputs": [],
            "stateMutability": "nonpayable",
            "type": "function"
        },
        {
            "inputs": [
                {
                    "internalType": "address",
                    "name": "from",
                    "type": "address"
                },
                {
                    "internalType": "address",
                    "name": "to",
                    "type": "address"
                },
                {
                    "internalType": "uint256[]",
                    "name": "ids",
                    "type": "uint256[]"
                },
                {
                    "internalType": "uint256[]",
                    "name": "amounts",
                    "type": "uint256[]"
                },
                {
                    "internalType": "bytes",
                    "name": "data",
                    "type": "bytes"
                }
            ],
            "name": "safeBatchTransferFrom",
            "outputs": [],
            "stateMutability": "nonpayable",
            "type": "function"
        },
        {
            "inputs": [
                {
                    "internalType": "address",
                    "name": "from",
                    "type": "address"
                },
                {
                    "internalType": "address",
                    "name": "to",
                    "type": "address"
                },
                {
                    "internalType": "uint256",
                    "name": "id",
                    "type": "uint256"
                },
                {
                    "internalType": "uint256",
                    "name": "amount",
                    "type": "uint256"
                },
                {
                    "internalType": "bytes",
                    "name": "data",
                    "type": "bytes"
                }
            ],
            "name": "safeTransferFrom",
            "outputs": [],
            "stateMutability": "nonpayable",
            "type": "function"
        },
        {
            "inputs": [
                {
                    "internalType": "address",
                    "name": "operator",
                    "type": "address"
                },
                {
                    "internalType": "bool",
                    "name": "approved",
                    "type": "bool"
                }
            ],
            "name": "setApprovalForAll",
            "outputs": [],
            "stateMutability": "nonpayable",
            "type": "function"
        },
        {
            "inputs": [
                {
                    "internalType": "address",
                    "name": "_multiSigWallet",
                    "type": "address"
                }
            ],
            "name": "setMultiSigWallet",
            "outputs": [],
            "stateMutability": "nonpayable",
            "type": "function"
        },
        {
            "inputs": [
                {
                    "internalType": "bytes4",
                    "name": "interfaceId",
                    "type": "bytes4"
                }
            ],
            "name": "supportsInterface",
            "outputs": [
                {
                    "internalType": "bool",
                    "name": "",
                    "type": "bool"
                }
            ],
            "stateMutability": "view",
            "type": "function"
        },
        {
            "inputs": [
                {
                    "internalType": "address",
                    "name": "newOwner",
                    "type": "address"
                }
            ],
            "name": "transferOwnership",
            "outputs": [],
            "stateMutability": "nonpayable",
            "type": "function"
        },
        {
            "inputs": [
                {
                    "internalType": "uint256",
                    "name": "",
                    "type": "uint256"
                }
            ],
            "name": "uri",
            "outputs": [
                {
                    "internalType": "string",
                    "name": "",
                    "type": "string"
                }
            ],
            "stateMutability": "view",
            "type": "function"
        },
        {
            "inputs": [
                {
                    "internalType": "string",
                    "name": "",
                    "type": "string"
                }
            ],
            "name": "usedNonces",
            "outputs": [
                {
                    "internalType": "bool",
                    "name": "",
                    "type": "bool"
                }
            ],
            "stateMutability": "view",
            "type": "function"
        },
        {
            "inputs": [
                {
                    "internalType": "address",
                    "name": "",
                    "type": "address"
                }
            ],
            "name": "users",
            "outputs": [
                {
                    "internalType": "uint256",
                    "name": "hashRate",
                    "type": "uint256"
                },
                {
                    "internalType": "uint256",
                    "name": "points",
                    "type": "uint256"
                },
                {
                    "internalType": "uint256",
                    "name": "level",
                    "type": "uint256"
                }
            ],
            "stateMutability": "view",
            "type": "function"
        }
    ],
    "bytecode": "60806040523461042d57604051601f611e7038819003918201601f19168301916001600160401b038311848410176104195780849260209460405283398101031261042d57516001600160a01b0381169081900361042d57604051606081016001600160401b0381118282101761041957604052602a81527f68747470733a2f2f6170692e6578616d706c652e636f6d2f6d6574616461746160208201526917bdb4b23e973539b7b760b11b6040820152600254600190600181811c9116801561040f575b60208210146103fb57601f8111610396575b505060209060025f52815f20915f5b6020811061037e575001516001600160b01b03191690556055600255331561036b57600480546001600160a01b03199081169091556003805491821633908117909155604051916001600160a01b03167f8be0079c531659141344cd1fd0a4f28419497f9722a3daafe3b4186f6b6457e05f80a381156103295750600980546001600160a01b031916919091179055670de0b6b3a76400007f3e5fec24aa4dc4e5aee2e025e51e1392c72a2500577559fae9665c6d52bd6a318190557f8819ef417987f8ae7a81f42cdfb18815282fe989326fbff903d13cf0e03ace2955671bc16d674ec800007f75f96ab15d697e93042dc45b5c896c4b27e89bb6eaf39475c5c371cb2513f7d2556722b1c8c1227a00007fc5069e24aaadb2addc3e52e868fcf3f4f8acf5a87e24300992fd4540c2a87eed556729a2241af62c00007fbfd358e93f18da3ed276c3afdbdba00b8f0b6008a03476a6a86bd6320ee6938b5560076020525f7fb39221ace053465ec3453ce2b36430bd138b997ecea25c1043da0c366812b828819055662386f26fc100007fb7c774451310d1be4108bc180d1b52823cb0ee0274a6c0081bcaf94f115fb96d5566470de4df8200007f3be6fd20d5acfde5b873b48692cd31f4d3c7e8ee8a813af4696af8859e5ca6c655668e1bc9bf0400007fb805995a7ec585a251200611a61d179cfd7fb105e1ab17dc415a7336783786f7556005905266b1a2bc2ec500007fbcdda56b5d08466ec462cbbe0adfa57cb0a15fcc8940ef68f702f21b787bc93555604051611a3e90816104328239f35b62461bcd60e51b815260206004820152601f60248201527f496e76616c6964206d756c74697369672077616c6c65742061646472657373006044820152606490fd5b631e4fbdf760e01b5f525f60045260245ffd5b909260206001819286860151815501940191016100e5565b60025f52601f0160051c7f405787fa12a823e0f2b7631cc41b3ba8828b3321ca811111fa75cd3aa3bb5ace017f405787fa12a823e0f2b7631cc41b3ba8828b3321ca811111fa75cd3aa3bb5ad05b8181106103f157506100d6565b5f815582016103e4565b634e487b7160e01b5f52602260045260245ffd5b90607f16906100c4565b634e487b7160e01b5f52604160045260245ffd5b5f80fdfe60806040526004361015610011575f80fd5b5f3560e01c8062fdd58e146101c357806301ffc9a7146101be5780630469919b146101b95780630e89341c146101b4578063206545c2146101af5780632eb2c2d6146101aa5780633e4bee38146101a55780634b8feb4f146101a05780634e1273f41461019b57806356f0593a14610196578063715018a61461019157806379ba50971461018c5780638da5cb5b14610187578063a22cb46514610182578063a87430ba1461017d578063b510391f14610178578063bc31c1c114610173578063e00fd5431461016e578063e30c397814610169578063e3e55f0814610164578063e4f376f01461015f578063e985e9c51461015a578063f03b0c0b14610155578063f242432a14610150578063f2fde38b1461014b578063f34203ca146101465763f528d87214610141575f80fd5b610f13565b610ec0565b610e54565b610dd0565b610d3f565b610ce3565b610c8b565b610c41565b610c19565b610bfe565b610bd4565b610ace565b610a7f565b6109cd565b6109a5565b61091f565b6108ba565b61089f565b6107e0565b610774565b610759565b6106d1565b610642565b61054e565b61037c565b610266565b61020c565b600435906001600160a01b03821682036101de57565b5f80fd5b602435906001600160a01b03821682036101de57565b35906001600160a01b03821682036101de57565b346101de5760403660031901126101de57602061024b61022a6101c8565b6024355f525f835260405f209060018060a01b03165f5260205260405f2090565b54604051908152f35b6001600160e01b03198116036101de57565b346101de5760203660031901126101de57602060043561028581610254565b63ffffffff60e01b16636cdb3d1360e11b81149081156102c3575b81156102b2575b506040519015158152f35b6301ffc9a760e01b1490505f6102a7565b6303a24d0760e21b811491506102a0565b634e487b7160e01b5f52604160045260245ffd5b90601f801991011681019081106001600160401b0382111761030957604052565b6102d4565b6001600160401b03811161030957601f01601f191660200190565b81601f820112156101de576020813591016103438261030e565b9261035160405194856102e8565b828452828201116101de57815f92602092838601378301015290565b6064359081151582036101de57565b346101de5760a03660031901126101de576024356004356044356001600160401b0381116101de576103b2903690600401610329565b906103bb61036d565b926084356001600160401b0381116101de576103de610479913690600401610329565b92335f52600560205261047261045560405f209561041461040f61040b6104048b610c6e565b5460ff1690565b1590565b610f3d565b6104506104238a8a8988611318565b7f19457468657265756d205369676e6564204d6573736167653a0a3332000000005f52601c52603c5f2090565b611398565b6003546001600160a01b03166001600160a01b0390911614610f79565b8354610fd9565b936104da575b506104aa91600161049d9201610496858254611064565b9055610c6e565b805460ff19166001179055565b60405190815233907fba953728785de35be3827ee7a7a7867a8472947562602939440e6c0bdbf4725e90602090a2005b91600161050c61049d9395610506866104f76104aa981515610ff1565b610500816113ae565b90610fd9565b90611064565b949250509161047f565b805180835260209291819084018484015e5f828201840152601f01601f1916010190565b90602061054b928181520190610516565b90565b346101de5760203660031901126101de576040515f6002548060011c9060018116908115610638575b60208310821461062457828552602085019190811561060b57506001146105b9575b6105b5846105a9818603826102e8565b6040519182918261053a565b0390f35b60025f9081529250907f405787fa12a823e0f2b7631cc41b3ba8828b3321ca811111fa75cd3aa3bb5ace5b8184106105f7575050016105a982610599565b8054848401526020909301926001016105e4565b60ff191682525090151560051b0190506105a982610599565b634e487b7160e01b5f52602260045260245ffd5b91607f1691610577565b346101de575f3660031901126101de57602060405160058152f35b6001600160401b0381116103095760051b60200190565b9080601f830112156101de57813561068b8161065d565b9261069960405194856102e8565b81845260208085019260051b8201019283116101de57602001905b8282106106c15750505090565b81358152602091820191016106b4565b346101de5760a03660031901126101de576106ea6101c8565b506106f36101e2565b506044356001600160401b0381116101de57610713903690600401610674565b506064356001600160401b0381116101de57610733903690600401610674565b506084356001600160401b0381116101de57610753903690600401610329565b50611071565b346101de575f3660031901126101de57602060405160038152f35b346101de575f3660031901126101de576009546040516001600160a01b039091168152602090f35b90602080835192838152019201905f5b8181106107b95750505090565b82518452602093840193909201916001016107ac565b90602061054b92818152019061079c565b346101de5760403660031901126101de576004356001600160401b0381116101de57366023820112156101de5780600401359061081c8261065d565b9161082a60405193846102e8565b8083526024602084019160051b830101913683116101de57602401905b82821061088757836024356001600160401b0381116101de576105b59161087561087b923690600401610674565b906110da565b604051918291826107cf565b60208091610894846101f8565b815201910190610847565b346101de575f3660031901126101de57602060405160048152f35b346101de575f3660031901126101de576108d26114ae565b600480546001600160a01b03199081169091556003805491821690555f906001600160a01b03167f8be0079c531659141344cd1fd0a4f28419497f9722a3daafe3b4186f6b6457e08280a3005b346101de575f3660031901126101de57600454336001600160a01b039091160361099257600480546001600160a01b0319908116909155600380543392811683179091556001600160a01b03167f8be0079c531659141344cd1fd0a4f28419497f9722a3daafe3b4186f6b6457e05f80a3005b63118cdaa760e01b5f523360045260245ffd5b346101de575f3660031901126101de576003546040516001600160a01b039091168152602090f35b346101de5760403660031901126101de576109e66101c8565b60243580151581036101de576001600160a01b038216918215610a6d5781610a2c610a3d92335f52600160205260405f209060018060a01b03165f5260205260405f2090565b9060ff801983541691151516179055565b60405190151581527f17307eab39ab6107e8899845ad3d59bd9653f200f220920489ca2b5937696c3160203392a3005b62ced3e160e81b5f525f60045260245ffd5b346101de5760203660031901126101de576001600160a01b03610aa06101c8565b165f526005602052606060405f20805490600260018201549101549060405192835260208301526040820152f35b60403660031901126101de57610ae26101c8565b6024356001600160401b0381116101de57610b01903690600401610329565b610b096114ae565b60018060a01b03821690815f52600560205260405f206002810190610b4c825493610b366005861061118e565b610b3f85611056565b80978196610b88576114c2565b610b5e835f52600660205260405f2090565b549055557f4cc0a9c4a99ddc700de1af2c9f916a7cbfdb71f14801ccff94061ad1ef8a80405f80a3005b610ba6610b9d835f52600760205260405f2090565b543410156111e5565b610bcf5f80808034610bbf60095460018060a01b031690565b5af1610bc9611231565b50611260565b6114c2565b346101de5760203660031901126101de576004355f526007602052602060405f2054604051908152f35b346101de575f3660031901126101de57602060405160018152f35b346101de575f3660031901126101de576004546040516001600160a01b039091168152602090f35b346101de575f3660031901126101de57602060405160028152f35b805191908290602001825e015f815290565b6020610c809160405192838092610c5c565b600881520301902090565b346101de5760203660031901126101de576004356001600160401b0381116101de5760ff610ccf6020610cc381943690600401610329565b60405192838092610c5c565b600881520301902054166040519015158152f35b346101de5760403660031901126101de57602060ff610d33610d036101c8565b610d0b6101e2565b6001600160a01b039182165f9081526001865260408082209290931681526020919091522090565b54166040519015158152f35b346101de5760203660031901126101de57610d586101c8565b610d606114ae565b6001600160a01b03168015610d8b576bffffffffffffffffffffffff60a01b60095416176009555f80f35b60405162461bcd60e51b815260206004820152601f60248201527f496e76616c6964206d756c74697369672077616c6c65742061646472657373006044820152606490fd5b346101de5760a03660031901126101de57610de96101c8565b50610df26101e2565b506084356001600160401b0381116101de57610e12903690600401610329565b5060405162461bcd60e51b8152602060048201526019602482015278151c985b9cd9995c9cc8185c99481b9bdd08185b1b1bddd959603a1b6044820152606490fd5b346101de5760203660031901126101de57610e6d6101c8565b610e756114ae565b600480546001600160a01b0319166001600160a01b039283169081179091556003549091167f38d16b8cac22d99fc7c124b9cd0de2d3fa1faef420bfe791d8c362d765e227005f80a3005b346101de5760803660031901126101de576024356044356004356001600160401b0382116101de57602092610efc610f0b933690600401610329565b90610f0561036d565b92611318565b604051908152f35b346101de5760203660031901126101de576004355f526006602052602060405f2054604051908152f35b15610f4457565b60405162461bcd60e51b815260206004820152600d60248201526c496e76616c6964206e6f6e636560981b6044820152606490fd5b15610f8057565b60405162461bcd60e51b815260206004820152601760248201527f496e76616c69642061646d696e207369676e61747572650000000000000000006044820152606490fd5b634e487b7160e01b5f52601160045260245ffd5b81810292918115918404141715610fec57565b610fc5565b15610ff857565b60405162461bcd60e51b815260206004820152603060248201527f4e756d626572206f66207061727469636970616e7473206d757374206265206760448201526f726561746572207468616e207a65726f60801b6064820152608490fd5b9060018201809211610fec57565b91908201809211610fec57565b60405162461bcd60e51b8152602060048201526019602482015278151c985b9cd9995c9cc8185c99481b9bdd08185b1b1bddd959603a1b6044820152606490fd5b80518210156110c65760209160051b010190565b634e487b7160e01b5f52603260045260245ffd5b919091805183518082036111795750508051906110f68261065d565b9161110460405193846102e8565b808352611113601f199161065d565b013660208401375f5b8151811015611172578061116160019260051b60208082870101519189010151905f918252602082815260408084206001600160a01b03909316845291905290205490565b61116b82866110b2565b520161111c565b5090925050565b635b05999160e01b5f5260045260245260445ffd5b1561119557565b60405162461bcd60e51b815260206004820152602260248201527f596f752068617665207265616368656420746865206d6178696d756d206c6576604482015261195b60f21b6064820152608490fd5b156111ec57565b60405162461bcd60e51b815260206004820152601760248201527f496e73756666696369656e742066756e64732073656e740000000000000000006044820152606490fd5b3d1561125b573d906112428261030e565b9161125060405193846102e8565b82523d5f602084013e565b606090565b1561126757565b60405162461bcd60e51b815260206004820152602760248201527f4661696c656420746f2073656e642066756e647320746f206d756c7469736967604482015266081dd85b1b195d60ca1b6064820152608490fd5b6112f093603598969795936054936bffffffffffffffffffffffff199060601b168352601483015260348201520190610c5c565b92151560f81b835260601b6bffffffffffffffffffffffff1916600183015260158201520190565b9192908115611353579061133f61134d92604051948593602085019746933093338b6112bc565b03601f1981018352826102e8565b51902090565b50509061134d603461137e9260405193849160208301963360601b8852848401526054830190610c5c565b3060601b81524660148201520360148101845201826102e8565b61054b916113a59161164d565b909291926116a5565b5f9072184f03e93ff9f4daa797ed6e38ed64bf6a1f0160401b81101561148c575b806d04ee2d6d415b85acef8100000000600a921015611470575b662386f26fc1000081101561145b575b6305f5e100811015611449575b612710811015611439575b606481101561142a575b10156114245790565b60010190565b6002906064900492019161141b565b6004906127109004920191611411565b6008906305f5e1009004920191611406565b601090662386f26fc1000090049201916113f9565b6020906d04ee2d6d415b85acef810000000090049201916113e9565b6040915072184f03e93ff9f4daa797ed6e38ed64bf6a1f0160401b90046113cf565b6003546001600160a01b0316330361099257565b91926001600160a01b0383169291831561163a5760405194600186526020860191825260408601600181526060870190600182526080880160405287518151908181036116255750505f5b8851811015611566578060019160051b8a0161155e6115568a61154160606020860151950151945f525f60205260405f2090565b9060018060a01b03165f5260205260405f2090565b918254611064565b90550161150d565b509194939690929560018251145f146115ea575f87517fc3d58168c5ae7397731d063d5bbf3d657854427343f4c083240f7aacaa2d0f626115bd875160405191829133958360209093929193604081019481520152565b0390a45b80516001036115dc5750506115da93519051913361196a565b565b9150916115da94503361183b565b5f6040517f4a39dc06d4c0dbc64b70af90fd698a233a518aa5d07e595d983b8c0526c8f7fb33918061161d8888836117ae565b0390a46115c1565b635b05999160e01b5f5260045260245260445ffd5b632bfa23e760e11b5f525f60045260245ffd5b815191906041830361167d576116769250602082015190606060408401519301515f1a90611721565b9192909190565b50505f9160029190565b6004111561169157565b634e487b7160e01b5f52602160045260245ffd5b6116ae81611687565b806116b7575050565b6116c081611687565b600181036116d75763f645eedf60e01b5f5260045ffd5b6116e081611687565b600281036116fb575063fce698f760e01b5f5260045260245ffd5b80611707600392611687565b1461170f5750565b6335e2f38360e21b5f5260045260245ffd5b91907f7fffffffffffffffffffffffffffffff5d576e7357a4501ddfe92f46681b20a084116117a3579160209360809260ff5f9560405194855216868401526040830152606082015282805260015afa15611798575f516001600160a01b0381161561178e57905f905f90565b505f906001905f90565b6040513d5f823e3d90fd5b5050505f9160039190565b90916117c561054b9360408452604084019061079c565b91602081840391015261079c565b908160209103126101de575161054b81610254565b6001600160a01b0391821681529116602082015260a06040820181905261054b949193919261182d929161181f919086019061079c565b90848203606086015261079c565b916080818403910152610516565b939093929192843b61184f575b5050505050565b6118725f92602094604051968795869563bc197c8160e01b8752600487016117e8565b03815f6001600160a01b0387165af15f9181611900575b506118c35750611897611231565b80519190826118bc57632bfa23e760e11b5f526001600160a01b03821660045260245ffd5b9050602001fd5b6001600160e01b0319166343e6837f60e01b016118e557505f80808080611848565b632bfa23e760e11b5f526001600160a01b031660045260245ffd5b61192391925060203d60201161192a575b61191b81836102e8565b8101906117d3565b905f611889565b503d611911565b6001600160a01b039182168152911660208201526040810191909152606081019190915260a06080820181905261054b92910190610516565b939093929192843b61197d575050505050565b6119a05f92602094604051968795869563f23a6e6160e01b875260048701611931565b03815f6001600160a01b0387165af15f91816119e7575b506119c55750611897611231565b6001600160e01b031916630dc5919f60e01b016118e557505f80808080611848565b611a0191925060203d60201161192a5761191b81836102e8565b905f6119b756fea264697066735822122091784356cade31ed68ff1113ced385902a28e4d7171b2d0d31b0d4fab5502ec964736f6c634300081a0033",
    "sourcePath": "/Users/iamoracle/Documents/Codes/Pody/contracts/contracts/PodyPassport.sol",
    "compiler": {
        "name": "solc",
        "version": "0.8.26+commit.8a97fa7a"
    },
    "functionHashes": {
        "BRONZE()": "e00fd543",
        "DIAMOND()": "206545c2",
        "GOLD()": "3e4bee38",
        "PLATINUM()": "56f0593a",
        "SILVER()": "e3e55f08",
        "acceptOwnership()": "79ba5097",
        "balanceOf(address,uint256)": "00fdd58e",
        "balanceOfBatch(address[],uint256[])": "4e1273f4",
        "claimPoints(uint256,uint256,string,bool,bytes)": "0469919b",
        "generatePoints(uint256,uint256,string,bool)": "f34203ca",
        "hashRates(uint256)": "f528d872",
        "isApprovedForAll(address,address)": "e985e9c5",
        "mint(address,bytes)": "b510391f",
        "multiSigWallet()": "4b8feb4f",
        "owner()": "8da5cb5b",
        "pendingOwner()": "e30c3978",
        "prices(uint256)": "bc31c1c1",
        "renounceOwnership()": "715018a6",
        "safeBatchTransferFrom(address,address,uint256[],uint256[],bytes)": "2eb2c2d6",
        "safeTransferFrom(address,address,uint256,uint256,bytes)": "f242432a",
        "setApprovalForAll(address,bool)": "a22cb465",
        "setMultiSigWallet(address)": "f03b0c0b",
        "supportsInterface(bytes4)": "01ffc9a7",
        "transferOwnership(address)": "f2fde38b",
        "uri(uint256)": "0e89341c",
        "usedNonces(string)": "e4f376f0",
        "users(address)": "a87430ba"
    },
    "gasEstimates": {
        "creation": {
            "codeDepositCost": "1343600",
            "executionCost": "infinite",
            "totalCost": "infinite"
        },
        "external": {
            "BRONZE()": "531",
            "DIAMOND()": "245",
            "GOLD()": "289",
            "PLATINUM()": "355",
            "SILVER()": "575",
            "acceptOwnership()": "52514",
            "balanceOf(address,uint256)": "2491",
            "balanceOfBatch(address[],uint256[])": "infinite",
            "claimPoints(uint256,uint256,string,bool,bytes)": "infinite",
            "generatePoints(uint256,uint256,string,bool)": "infinite",
            "hashRates(uint256)": "2894",
            "isApprovedForAll(address,address)": "3063",
            "mint(address,bytes)": "infinite",
            "multiSigWallet()": "2438",
            "owner()": "2548",
            "pendingOwner()": "2680",
            "prices(uint256)": "2677",
            "renounceOwnership()": "52505",
            "safeBatchTransferFrom(address,address,uint256[],uint256[],bytes)": "infinite",
            "safeTransferFrom(address,address,uint256,uint256,bytes)": "infinite",
            "setApprovalForAll(address,bool)": "26775",
            "setMultiSigWallet(address)": "27117",
            "supportsInterface(bytes4)": "394",
            "transferOwnership(address)": "30784",
            "uri(uint256)": "infinite",
            "usedNonces(string)": "infinite",
            "users(address)": "6975"
        }
    }
}