{
  "contracts/PodyPassport.sol": {
    "PodyPassport": {
      "abi": [
        {
          "inputs": [
            {
              "internalType": "address",
              "name": "_multiSigWallet",
              "type": "address"
            }
          ],
          "stateMutability": "nonpayable",
          "type": "constructor"
        },
        {
          "inputs": [
            {
              "internalType": "address",
              "name": "signer",
              "type": "address"
            },
            {
              "internalType": "address",
              "name": "owner",
              "type": "address"
            }
          ],
          "name": "ClaimPointsOperationFailed",
          "type": "error"
        },
        {
          "inputs": [],
          "name": "ECDSAInvalidSignature",
          "type": "error"
        },
        {
          "inputs": [
            {
              "internalType": "uint256",
              "name": "length",
              "type": "uint256"
            }
          ],
          "name": "ECDSAInvalidSignatureLength",
          "type": "error"
        },
        {
          "inputs": [
            {
              "internalType": "bytes32",
              "name": "s",
              "type": "bytes32"
            }
          ],
          "name": "ECDSAInvalidSignatureS",
          "type": "error"
        },
        {
          "inputs": [
            {
              "internalType": "address",
              "name": "sender",
              "type": "address"
            },
            {
              "internalType": "uint256",
              "name": "balance",
              "type": "uint256"
            },
            {
              "internalType": "uint256",
              "name": "needed",
              "type": "uint256"
            },
            {
              "internalType": "uint256",
              "name": "tokenId",
              "type": "uint256"
            }
          ],
          "name": "ERC1155InsufficientBalance",
          "type": "error"
        },
        {
          "inputs": [
            {
              "internalType": "address",
              "name": "approver",
              "type": "address"
            }
          ],
          "name": "ERC1155InvalidApprover",
          "type": "error"
        },
        {
          "inputs": [
            {
              "internalType": "uint256",
              "name": "idsLength",
              "type": "uint256"
            },
            {
              "internalType": "uint256",
              "name": "valuesLength",
              "type": "uint256"
            }
          ],
          "name": "ERC1155InvalidArrayLength",
          "type": "error"
        },
        {
          "inputs": [
            {
              "internalType": "address",
              "name": "operator",
              "type": "address"
            }
          ],
          "name": "ERC1155InvalidOperator",
          "type": "error"
        },
        {
          "inputs": [
            {
              "internalType": "address",
              "name": "receiver",
              "type": "address"
            }
          ],
          "name": "ERC1155InvalidReceiver",
          "type": "error"
        },
        {
          "inputs": [
            {
              "internalType": "address",
              "name": "sender",
              "type": "address"
            }
          ],
          "name": "ERC1155InvalidSender",
          "type": "error"
        },
        {
          "inputs": [
            {
              "internalType": "address",
              "name": "operator",
              "type": "address"
            },
            {
              "internalType": "address",
              "name": "owner",
              "type": "address"
            }
          ],
          "name": "ERC1155MissingApprovalForAll",
          "type": "error"
        },
        {
          "inputs": [
            {
              "internalType": "address",
              "name": "owner",
              "type": "address"
            }
          ],
          "name": "OwnableInvalidOwner",
          "type": "error"
        },
        {
          "inputs": [
            {
              "internalType": "address",
              "name": "account",
              "type": "address"
            }
          ],
          "name": "OwnableUnauthorizedAccount",
          "type": "error"
        },
        {
          "anonymous": false,
          "inputs": [
            {
              "indexed": true,
              "internalType": "address",
              "name": "account",
              "type": "address"
            },
            {
              "indexed": true,
              "internalType": "address",
              "name": "operator",
              "type": "address"
            },
            {
              "indexed": false,
              "internalType": "bool",
              "name": "approved",
              "type": "bool"
            }
          ],
          "name": "ApprovalForAll",
          "type": "event"
        },
        {
          "anonymous": false,
          "inputs": [
            {
              "indexed": true,
              "internalType": "address",
              "name": "token",
              "type": "address"
            },
            {
              "indexed": true,
              "internalType": "address",
              "name": "to",
              "type": "address"
            },
            {
              "indexed": false,
              "internalType": "uint256",
              "name": "amount",
              "type": "uint256"
            }
          ],
          "name": "FundsWithdrawn",
          "type": "event"
        },
        {
          "anonymous": false,
          "inputs": [
            {
              "indexed": true,
              "internalType": "address",
              "name": "user",
              "type": "address"
            },
            {
              "indexed": true,
              "internalType": "uint256",
              "name": "id",
              "type": "uint256"
            }
          ],
          "name": "NFTMinted",
          "type": "event"
        },
        {
          "anonymous": false,
          "inputs": [
            {
              "indexed": true,
              "internalType": "address",
              "name": "previousOwner",
              "type": "address"
            },
            {
              "indexed": true,
              "internalType": "address",
              "name": "newOwner",
              "type": "address"
            }
          ],
          "name": "OwnershipTransferStarted",
          "type": "event"
        },
        {
          "anonymous": false,
          "inputs": [
            {
              "indexed": true,
              "internalType": "address",
              "name": "previousOwner",
              "type": "address"
            },
            {
              "indexed": true,
              "internalType": "address",
              "name": "newOwner",
              "type": "address"
            }
          ],
          "name": "OwnershipTransferred",
          "type": "event"
        },
        {
          "anonymous": false,
          "inputs": [
            {
              "indexed": true,
              "internalType": "address",
              "name": "user",
              "type": "address"
            },
            {
              "indexed": false,
              "internalType": "uint256",
              "name": "points",
              "type": "uint256"
            }
          ],
          "name": "PointsClaimed",
          "type": "event"
        },
        {
          "anonymous": false,
          "inputs": [
            {
              "indexed": true,
              "internalType": "address",
              "name": "operator",
              "type": "address"
            },
            {
              "indexed": true,
              "internalType": "address",
              "name": "from",
              "type": "address"
            },
            {
              "indexed": true,
              "internalType": "address",
              "name": "to",
              "type": "address"
            },
            {
              "indexed": false,
              "internalType": "uint256[]",
              "name": "ids",
              "type": "uint256[]"
            },
            {
              "indexed": false,
              "internalType": "uint256[]",
              "name": "values",
              "type": "uint256[]"
            }
          ],
          "name": "TransferBatch",
          "type": "event"
        },
        {
          "anonymous": false,
          "inputs": [
            {
              "indexed": true,
              "internalType": "address",
              "name": "operator",
              "type": "address"
            },
            {
              "indexed": true,
              "internalType": "address",
              "name": "from",
              "type": "address"
            },
            {
              "indexed": true,
              "internalType": "address",
              "name": "to",
              "type": "address"
            },
            {
              "indexed": false,
              "internalType": "uint256",
              "name": "id",
              "type": "uint256"
            },
            {
              "indexed": false,
              "internalType": "uint256",
              "name": "value",
              "type": "uint256"
            }
          ],
          "name": "TransferSingle",
          "type": "event"
        },
        {
          "anonymous": false,
          "inputs": [
            {
              "indexed": false,
              "internalType": "string",
              "name": "value",
              "type": "string"
            },
            {
              "indexed": true,
              "internalType": "uint256",
              "name": "id",
              "type": "uint256"
            }
          ],
          "name": "URI",
          "type": "event"
        },
        {
          "inputs": [],
          "name": "BRONZE",
          "outputs": [
            {
              "internalType": "uint256",
              "name": "",
              "type": "uint256"
            }
          ],
          "stateMutability": "view",
          "type": "function"
        },
        {
          "inputs": [],
          "name": "DIAMOND",
          "outputs": [
            {
              "internalType": "uint256",
              "name": "",
              "type": "uint256"
            }
          ],
          "stateMutability": "view",
          "type": "function"
        },
        {
          "inputs": [],
          "name": "GOLD",
          "outputs": [
            {
              "internalType": "uint256",
              "name": "",
              "type": "uint256"
            }
          ],
          "stateMutability": "view",
          "type": "function"
        },
        {
          "inputs": [],
          "name": "PLATINUM",
          "outputs": [
            {
              "internalType": "uint256",
              "name": "",
              "type": "uint256"
            }
          ],
          "stateMutability": "view",
          "type": "function"
        },
        {
          "inputs": [],
          "name": "SILVER",
          "outputs": [
            {
              "internalType": "uint256",
              "name": "",
              "type": "uint256"
            }
          ],
          "stateMutability": "view",
          "type": "function"
        },
        {
          "inputs": [],
          "name": "acceptOwnership",
          "outputs": [],
          "stateMutability": "nonpayable",
          "type": "function"
        },
        {
          "inputs": [
            {
              "internalType": "address",
              "name": "account",
              "type": "address"
            },
            {
              "internalType": "uint256",
              "name": "id",
              "type": "uint256"
            }
          ],
          "name": "balanceOf",
          "outputs": [
            {
              "internalType": "uint256",
              "name": "",
              "type": "uint256"
            }
          ],
          "stateMutability": "view",
          "type": "function"
        },
        {
          "inputs": [
            {
              "internalType": "address[]",
              "name": "accounts",
              "type": "address[]"
            },
            {
              "internalType": "uint256[]",
              "name": "ids",
              "type": "uint256[]"
            }
          ],
          "name": "balanceOfBatch",
          "outputs": [
            {
              "internalType": "uint256[]",
              "name": "",
              "type": "uint256[]"
            }
          ],
          "stateMutability": "view",
          "type": "function"
        },
        {
          "inputs": [
            {
              "internalType": "address",
              "name": "userAddress",
              "type": "address"
            },
            {
              "internalType": "uint256",
              "name": "secondsOnCall",
              "type": "uint256"
            },
            {
              "internalType": "uint256",
              "name": "numberOfParticipants",
              "type": "uint256"
            },
            {
              "internalType": "string",
              "name": "nonce",
              "type": "string"
            },
            {
              "internalType": "bool",
              "name": "isHost",
              "type": "bool"
            },
            {
              "internalType": "bytes",
              "name": "signature",
              "type": "bytes"
            }
          ],
          "name": "claimPoints",
          "outputs": [],
          "stateMutability": "nonpayable",
          "type": "function"
        },
        {
          "inputs": [
            {
              "internalType": "address",
              "name": "userAddress",
              "type": "address"
            },
            {
              "internalType": "uint256",
              "name": "secondsOnCall",
              "type": "uint256"
            },
            {
              "internalType": "uint256",
              "name": "numberOfParticipants",
              "type": "uint256"
            },
            {
              "internalType": "string",
              "name": "nonce",
              "type": "string"
            },
            {
              "internalType": "bool",
              "name": "isHost",
              "type": "bool"
            }
          ],
          "name": "generatePoints",
          "outputs": [
            {
              "internalType": "bytes32",
              "name": "",
              "type": "bytes32"
            }
          ],
          "stateMutability": "view",
          "type": "function"
        },
        {
          "inputs": [
            {
              "internalType": "uint256",
              "name": "",
              "type": "uint256"
            }
          ],
          "name": "hashRates",
          "outputs": [
            {
              "internalType": "uint256",
              "name": "",
              "type": "uint256"
            }
          ],
          "stateMutability": "view",
          "type": "function"
        },
        {
          "inputs": [
            {
              "internalType": "address",
              "name": "account",
              "type": "address"
            },
            {
              "internalType": "address",
              "name": "operator",
              "type": "address"
            }
          ],
          "name": "isApprovedForAll",
          "outputs": [
            {
              "internalType": "bool",
              "name": "",
              "type": "bool"
            }
          ],
          "stateMutability": "view",
          "type": "function"
        },
        {
          "inputs": [
            {
              "internalType": "address",
              "name": "account",
              "type": "address"
            },
            {
              "internalType": "bytes",
              "name": "data",
              "type": "bytes"
            }
          ],
          "name": "mint",
          "outputs": [],
          "stateMutability": "payable",
          "type": "function"
        },
        {
          "inputs": [],
          "name": "multiSigWallet",
          "outputs": [
            {
              "internalType": "address",
              "name": "",
              "type": "address"
            }
          ],
          "stateMutability": "view",
          "type": "function"
        },
        {
          "inputs": [],
          "name": "owner",
          "outputs": [
            {
              "internalType": "address",
              "name": "",
              "type": "address"
            }
          ],
          "stateMutability": "view",
          "type": "function"
        },
        {
          "inputs": [],
          "name": "pendingOwner",
          "outputs": [
            {
              "internalType": "address",
              "name": "",
              "type": "address"
            }
          ],
          "stateMutability": "view",
          "type": "function"
        },
        {
          "inputs": [
            {
              "internalType": "uint256",
              "name": "",
              "type": "uint256"
            }
          ],
          "name": "prices",
          "outputs": [
            {
              "internalType": "uint256",
              "name": "",
              "type": "uint256"
            }
          ],
          "stateMutability": "view",
          "type": "function"
        },
        {
          "inputs": [],
          "name": "renounceOwnership",
          "outputs": [],
          "stateMutability": "nonpayable",
          "type": "function"
        },
        {
          "inputs": [
            {
              "internalType": "address",
              "name": "from",
              "type": "address"
            },
            {
              "internalType": "address",
              "name": "to",
              "type": "address"
            },
            {
              "internalType": "uint256[]",
              "name": "ids",
              "type": "uint256[]"
            },
            {
              "internalType": "uint256[]",
              "name": "amounts",
              "type": "uint256[]"
            },
            {
              "internalType": "bytes",
              "name": "data",
              "type": "bytes"
            }
          ],
          "name": "safeBatchTransferFrom",
          "outputs": [],
          "stateMutability": "nonpayable",
          "type": "function"
        },
        {
          "inputs": [
            {
              "internalType": "address",
              "name": "from",
              "type": "address"
            },
            {
              "internalType": "address",
              "name": "to",
              "type": "address"
            },
            {
              "internalType": "uint256",
              "name": "id",
              "type": "uint256"
            },
            {
              "internalType": "uint256",
              "name": "amount",
              "type": "uint256"
            },
            {
              "internalType": "bytes",
              "name": "data",
              "type": "bytes"
            }
          ],
          "name": "safeTransferFrom",
          "outputs": [],
          "stateMutability": "nonpayable",
          "type": "function"
        },
        {
          "inputs": [
            {
              "internalType": "address",
              "name": "operator",
              "type": "address"
            },
            {
              "internalType": "bool",
              "name": "approved",
              "type": "bool"
            }
          ],
          "name": "setApprovalForAll",
          "outputs": [],
          "stateMutability": "nonpayable",
          "type": "function"
        },
        {
          "inputs": [
            {
              "internalType": "address",
              "name": "_multiSigWallet",
              "type": "address"
            }
          ],
          "name": "setMultiSigWallet",
          "outputs": [],
          "stateMutability": "nonpayable",
          "type": "function"
        },
        {
          "inputs": [
            {
              "internalType": "bytes4",
              "name": "interfaceId",
              "type": "bytes4"
            }
          ],
          "name": "supportsInterface",
          "outputs": [
            {
              "internalType": "bool",
              "name": "",
              "type": "bool"
            }
          ],
          "stateMutability": "view",
          "type": "function"
        },
        {
          "inputs": [
            {
              "internalType": "address",
              "name": "newOwner",
              "type": "address"
            }
          ],
          "name": "transferOwnership",
          "outputs": [],
          "stateMutability": "nonpayable",
          "type": "function"
        },
        {
          "inputs": [
            {
              "internalType": "uint256",
              "name": "",
              "type": "uint256"
            }
          ],
          "name": "uri",
          "outputs": [
            {
              "internalType": "string",
              "name": "",
              "type": "string"
            }
          ],
          "stateMutability": "view",
          "type": "function"
        },
        {
          "inputs": [
            {
              "internalType": "string",
              "name": "",
              "type": "string"
            }
          ],
          "name": "usedNonces",
          "outputs": [
            {
              "internalType": "bool",
              "name": "",
              "type": "bool"
            }
          ],
          "stateMutability": "view",
          "type": "function"
        },
        {
          "inputs": [
            {
              "internalType": "address",
              "name": "",
              "type": "address"
            }
          ],
          "name": "users",
          "outputs": [
            {
              "internalType": "uint256",
              "name": "hashRate",
              "type": "uint256"
            },
            {
              "internalType": "uint256",
              "name": "points",
              "type": "uint256"
            },
            {
              "internalType": "uint256",
              "name": "level",
              "type": "uint256"
            }
          ],
          "stateMutability": "view",
          "type": "function"
        },
        {
          "inputs": [
            {
              "internalType": "contract IERC20",
              "name": "token",
              "type": "address"
            },
            {
              "internalType": "address",
              "name": "to",
              "type": "address"
            },
            {
              "internalType": "uint256",
              "name": "amount",
              "type": "uint256"
            }
          ],
          "name": "withdrawERC20",
          "outputs": [],
          "stateMutability": "nonpayable",
          "type": "function"
        }
      ],
      "evm": {
        "bytecode": {
          "linkReferences": {},
          "object": "6080346200030f57601f620020ac38819003918201601f19168301926001600160401b039290919083851183861017620002f957808392604096875283396020928391810103126200030f57516001600160a01b039290838116908190036200030f578451916060830190811183821017620002f9578552603b82527f68747470733a2f2f6170692e706f64792e6e6574776f726b2f6e66742f706f64838301527f792d706f696e74732f6d657461646174612f7b69647d2e6a736f6e0000000000858301526002938454926001938481811c91168015620002ee575b86821014620002d857601f8111620002a5575b50849086600052856000209160005b87878183106200029057505050015164ffffffffff19169055607785553315620002785760018060a01b031990816004541660045560035433838216176003558751913391167f8be0079c531659141344cd1fd0a4f28419497f9722a3daafe3b4186f6b6457e0600080a3821562000236575090600793929160095416176009558060005260068252670de0b6b3a76400008086600020558460005285600020556003600052671bc16d674ec80000856000205560046000526722b1c8c1227a0000856000205560056000526729a2241af62c000085600020556000525260008281205560005266038d7ea4c680008160002055600360005266071afd498d000081600020556004600052660e35fa931a0000816000205560056000526611c37937e08000816000205551611d979081620003158239f35b62461bcd60e51b815260048101859052601f60248201527f496e76616c6964206d756c74697369672077616c6c65742061646472657373006044820152606490fd5b8551631e4fbdf760e01b815260006004820152602490fd5b839582939486015181550194019101620000fe565b866000528487601f88600020930160051c830192015b828110620002cb575050620000ef565b60008155018590620002bb565b634e487b7160e01b600052602260045260246000fd5b90607f1690620000dc565b634e487b7160e01b600052604160045260246000fd5b600080fdfe6080604052600436101561001257600080fd5b60003560e01c8062fdd58e146101d657806301ffc9a7146101d15780630e89341c146101cc578063206545c2146101c75780632eb2c2d6146101c25780633e4bee38146101bd57806344004cc1146101b85780634b8feb4f146101b35780634e1273f4146101ae57806356f0593a146101a9578063715018a6146101a45780637832cb641461019f57806379ba50971461019a5780638da5cb5b14610195578063a22cb46514610190578063a87430ba1461018b578063b510391f14610186578063bc31c1c114610181578063c3aac87e1461017c578063e00fd54314610177578063e30c397814610172578063e3e55f081461016d578063e4f376f014610168578063e985e9c514610163578063f03b0c0b1461015e578063f242432a14610159578063f2fde38b146101545763f528d8721461014f57600080fd5b611134565b6110c3565b61103b565b610fac565b610f50565b610f08565b610ec6565b610e9d565b610e81565b610cde565b610cb2565b610b58565b610b04565b610a50565b610a27565b6109a5565b610941565b6108cc565b6108b0565b6107f4565b610786565b6105f3565b6105d7565b610558565b610427565b61031e565b610254565b6101f1565b6001600160a01b038116036101ec57565b600080fd5b346101ec5760403660031901126101ec576020610239600435610213816101db565b6024356000526000835260406000209060018060a01b0316600052602052604060002090565b54604051908152f35b6001600160e01b03198116036101ec57565b346101ec5760203660031901126101ec57602060043561027381610242565b63ffffffff60e01b16636cdb3d1360e11b81149081156102b1575b81156102a0575b506040519015158152f35b6301ffc9a760e01b14905038610295565b6303a24d0760e21b8114915061028e565b60005b8381106102d55750506000910152565b81810151838201526020016102c5565b906020916102fe815180928185528580860191016102c2565b601f01601f1916010190565b90602061031b9281815201906102e5565b90565b346101ec576020806003193601126101ec57604051906000906002546001918160011c926001831692831561041d575b6020851084146104095784875260208701939081156103ea5750600114610390575b61038c8661038081880382610459565b6040519182918261030a565b0390f35b6002600090815294509192917f405787fa12a823e0f2b7631cc41b3ba8828b3321ca811111fa75cd3aa3bb5ace5b8386106103d957505050910190506103808261038c38610370565b8054858701529482019481016103be565b60ff1916845250505090151560051b0190506103808261038c38610370565b634e487b7160e01b86526022600452602486fd5b93607f169361034e565b346101ec5760003660031901126101ec57602060405160058152f35b634e487b7160e01b600052604160045260246000fd5b90601f801991011681019081106001600160401b0382111761047a57604052565b610443565b6001600160401b03811161047a5760051b60200190565b9080601f830112156101ec5760209082356104b08161047f565b936104be6040519586610459565b81855260208086019260051b8201019283116101ec57602001905b8282106104e7575050505090565b813581529083019083016104d9565b6001600160401b03811161047a57601f01601f191660200190565b81601f820112156101ec57803590610528826104f6565b926105366040519485610459565b828452602083830101116101ec57816000926020809301838601378301015290565b346101ec5760a03660031901126101ec576105746004356101db565b61057f6024356101db565b6001600160401b036044358181116101ec5761059f903690600401610496565b506064358181116101ec576105b8903690600401610496565b506084359081116101ec576105d1903690600401610511565b50611160565b346101ec5760003660031901126101ec57602060405160038152f35b346101ec5760603660031901126101ec57600435610610816101db565b6024359061061d826101db565b60443561062861176b565b6001600160a01b039182169161063f8315156111a1565b83169261064d8415156111e5565b61065882151561122d565b6040516370a0823160e01b8152306004820152602092908381602481885afa908115610754576106cb9361069a8487948194600091610759575b501015611293565b60405163a9059cbb60e01b81526001600160a01b039091166004820152602481019190915292839081906044820190565b03816000885af1928315610754577fa92ff919b850e4909ab2261d907ef955f11bc1716733a6cbece38d163a69af8a936107229361071292600092610727575b50506112f4565b6040519081529081906020820190565b0390a3005b6107469250803d1061074d575b61073e8183610459565b8101906112df565b388061070b565b503d610734565b611287565b6107799150863d881161077f575b6107718183610459565b810190611278565b38610692565b503d610767565b346101ec5760003660031901126101ec576009546040516001600160a01b039091168152602090f35b90815180825260208080930193019160005b8281106107cf575050505090565b8351855293810193928101926001016107c1565b90602061031b9281815201906107af565b346101ec5760403660031901126101ec576004356001600160401b038082116101ec57366023830112156101ec5781600401356108308161047f565b9261083e6040519485610459565b8184526020916024602086019160051b830101913683116101ec57602401905b82821061089757856024358681116101ec5761038c9161088561088b923690600401610496565b90611362565b604051918291826107e3565b83809183356108a5816101db565b81520191019061085e565b346101ec5760003660031901126101ec57602060405160048152f35b346101ec57600080600319360112610934576108e661176b565b600480546001600160a01b031990811690915560038054918216905581906001600160a01b03167f8be0079c531659141344cd1fd0a4f28419497f9722a3daafe3b4186f6b6457e08280a380f35b80fd5b801515036101ec57565b346101ec5760a03660031901126101ec5760043561095e816101db565b6064356001600160401b0381116101ec5760209161098361099d923690600401610511565b6084359161099083610937565b6044359060243590611478565b604051908152f35b346101ec57600080600319360112610934576004546001600160a01b033381831603610a0f576001600160a01b031991821660045560038054339381168417909155167f8be0079c531659141344cd1fd0a4f28419497f9722a3daafe3b4186f6b6457e08380a380f35b60405163118cdaa760e01b8152336004820152602490fd5b346101ec5760003660031901126101ec576003546040516001600160a01b039091168152602090f35b346101ec5760403660031901126101ec57600435610a6d816101db565b602435610a7981610937565b6001600160a01b038216918215610aec573360009081526001602090815260408083206001600160a01b039094168352929052209015159060ff1981541660ff83161790556040519081527f17307eab39ab6107e8899845ad3d59bd9653f200f220920489ca2b5937696c3160203392a3005b60405162ced3e160e81b815260006004820152602490fd5b346101ec5760203660031901126101ec57600435610b21816101db565b60018060a01b0316600052600560205260606040600020805490600260018201549101549060405192835260208301526040820152f35b60403660031901126101ec57600435610b70816101db565b6024356001600160401b0381116101ec57610b8f903690600401610511565b90610b9861176b565b6001600160a01b038116600090815260056020526040902060028101805491610bc360058410611512565b610bde610bcf8461157f565b958694610c26575b848661177f565b610bf2836000526006602052604060002090565b549055556001600160a01b03167f4cc0a9c4a99ddc700de1af2c9f916a7cbfdb71f14801ccff94061ad1ef8a8040600080a3005b610c45610c3d866000526007602052604060002090565b54341461159f565b610c6f600080808034610c5f60095460018060a01b031690565b5af1610c696115e5565b50611615565b6009546040513481526001600160a01b03909116906000907fa92ff919b850e4909ab2261d907ef955f11bc1716733a6cbece38d163a69af8a90602090a3610bd7565b346101ec5760203660031901126101ec5760043560005260076020526020604060002054604051908152f35b346101ec5760c03660031901126101ec57600435610cfb816101db565b602435906001600160401b03906044356064358381116101ec57610d23903690600401610511565b9260843594610d3186610937565b60a4359182116101ec57610ddd610dc0610d52610de4943690600401610511565b336000526005602052610dbb610d8c8a8a898860406000209c610d87610d8260ff610d7c87610ee2565b54161590565b611671565b611478565b7f19457468657265756d205369676e6564204d6573736167653a0a333200000000600052601c52603c60002090565b61192b565b6003546001600160a01b03166001600160a01b03909116146116ad565b83546116f3565b93610e45575b50610e15916001610e089201610e01858254611592565b9055610ee2565b805460ff19166001179055565b60405190815233907fba953728785de35be3827ee7a7a7867a8472947562602939440e6c0bdbf4725e90602090a2005b916001610e77610e089395610e7186610e62610e15981515611706565b610e6b81611941565b906116f3565b90611592565b9492505091610dea565b346101ec5760003660031901126101ec57602060405160018152f35b346101ec5760003660031901126101ec576004546040516001600160a01b039091168152602090f35b346101ec5760003660031901126101ec57602060405160028152f35b6020610efb9181604051938285809451938492016102c2565b8101600881520301902090565b346101ec5760203660031901126101ec576004356001600160401b0381116101ec5760ff610f44610f3f6020933690600401610511565b610ee2565b54166040519015158152f35b346101ec5760403660031901126101ec57602060ff610f44600435610f74816101db565b60243590610f81826101db565b60018060a01b03166000526001845260406000209060018060a01b0316600052602052604060002090565b346101ec5760203660031901126101ec57600435610fc9816101db565b610fd161176b565b6001600160a01b03168015610ff657600980546001600160a01b031916919091179055005b60405162461bcd60e51b815260206004820152601f60248201527f496e76616c6964206d756c74697369672077616c6c65742061646472657373006044820152606490fd5b346101ec5760a03660031901126101ec576110576004356101db565b6110626024356101db565b6084356001600160401b0381116101ec57611081903690600401610511565b5060405162461bcd60e51b8152602060048201526019602482015278151c985b9cd9995c9cc8185c99481b9bdd08185b1b1bddd959603a1b6044820152606490fd5b346101ec5760203660031901126101ec576004356110e0816101db565b6110e861176b565b600480546001600160a01b0319166001600160a01b039283169081179091556003549091167f38d16b8cac22d99fc7c124b9cd0de2d3fa1faef420bfe791d8c362d765e22700600080a3005b346101ec5760203660031901126101ec5760043560005260066020526020604060002054604051908152f35b60405162461bcd60e51b8152602060048201526019602482015278151c985b9cd9995c9cc8185c99481b9bdd08185b1b1bddd959603a1b6044820152606490fd5b156111a857565b60405162461bcd60e51b8152602060048201526015602482015274496e76616c696420746f6b656e206164647265737360581b6044820152606490fd5b156111ec57565b60405162461bcd60e51b8152602060048201526019602482015278496e76616c696420726563697069656e74206164647265737360381b6044820152606490fd5b1561123457565b606460405162461bcd60e51b815260206004820152602060248201527f416d6f756e74206d7573742062652067726561746572207468616e207a65726f6044820152fd5b908160209103126101ec575190565b6040513d6000823e3d90fd5b1561129a57565b60405162461bcd60e51b815260206004820152601a60248201527f496e73756666696369656e7420746f6b656e2062616c616e63650000000000006044820152606490fd5b908160209103126101ec575161031b81610937565b156112fb57565b60405162461bcd60e51b8152602060048201526015602482015274151bdad95b881d1c985b9cd9995c8819985a5b1959605a1b6044820152606490fd5b805182101561134c5760209160051b010190565b634e487b7160e01b600052603260045260246000fd5b919091805183518082036113ff5750508051906113976113818361047f565b9261138f6040519485610459565b80845261047f565b60209190601f1901368484013760005b81518110156113f757600581901b8281018401519087018401516000908152602081815260408083206001600160a01b0390941683529290522054600191906113f08287611338565b52016113a7565b509193505050565b604051635b05999160e01b815260048101919091526024810191909152604490fd5b909391926089979596936001600160601b0319809660601b1683526014830152603482015261145a8251809360206054850191016102c2565b0193151560f81b605485015260601b16605583015260698201520190565b9193929183156114b4576114ae92916114a0916040519586946020860198469430948b611421565b03601f198101835282610459565b51902090565b93506114ae91925060889060405193849160208301966001600160601b03199060601b16875260348301526114f38151809260206054860191016102c2565b81013060601b6054820152466068820152036068810184520182610459565b1561151957565b60405162461bcd60e51b815260206004820152602260248201527f596f752068617665207265616368656420746865206d6178696d756d206c6576604482015261195b60f21b6064820152608490fd5b634e487b7160e01b600052601160045260246000fd5b906001820180921161158d57565b611569565b9190820180921161158d57565b156115a657565b60405162461bcd60e51b8152602060048201526017602482015276125b9cdd59999a58da595b9d08199d5b991cc81cd95b9d604a1b6044820152606490fd5b3d15611610573d906115f6826104f6565b916116046040519384610459565b82523d6000602084013e565b606090565b1561161c57565b60405162461bcd60e51b815260206004820152602760248201527f4661696c656420746f2073656e642066756e647320746f206d756c7469736967604482015266081dd85b1b195d60ca1b6064820152608490fd5b1561167857565b60405162461bcd60e51b815260206004820152600d60248201526c496e76616c6964206e6f6e636560981b6044820152606490fd5b156116b457565b60405162461bcd60e51b8152602060048201526017602482015276496e76616c69642061646d696e207369676e617475726560481b6044820152606490fd5b8181029291811591840414171561158d57565b1561170d57565b60405162461bcd60e51b815260206004820152603060248201527f4e756d626572206f66207061727469636970616e7473206d757374206265206760448201526f726561746572207468616e207a65726f60801b6064820152608490fd5b6003546001600160a01b03163303610a0f57565b9091906001600160a01b0381168015611912576040519060019182815260209260208201968752604082019281845260609460608401958387526080850180604052855187518082036118f657505050908391826000905b611895575b50505083511460001461185957600088517fc3d58168c5ae7397731d063d5bbf3d657854427343f4c083240f7aacaa2d0f6261182e885160405191829133958360209093929193604081019481520152565b0390a45b81510361184b575050611849935190519133611cb2565b565b915091611849945033611b85565b60006040517f4a39dc06d4c0dbc64b70af90fd698a233a518aa5d07e595d983b8c0526c8f7fb33918061188d898983611b00565b0390a4611832565b86518110156118f15780849160051b88016118e86118e08d6118c98789860151950151946000526000602052604060002090565b9060018060a01b0316600052602052604060002090565b918254611592565b905501836117d7565b6117dc565b635b05999160e01b8352608488019190915260a4870152604490fd5b604051632bfa23e760e11b815260006004820152602490fd5b61031b9161193891611a17565b90929192611a73565b60009072184f03e93ff9f4daa797ed6e38ed64bf6a1f0160401b80821015611a0a575b50600a906d04ee2d6d415b85acef8100000000808210156119fd575b50662386f26fc10000808210156119f0575b506305f5e100808210156119e3575b50612710808210156119d6575b5060648110156119c8575b10156119c25790565b60010190565b6064600291049201916119b9565b60049104920191386119ae565b60089104920191386119a1565b6010910492019138611992565b6020910492019138611980565b604092509004600a611964565b8151919060418303611a4857611a4192506020820151906060604084015193015160001a90611ce7565b9192909190565b505060009160029190565b60041115611a5d57565b634e487b7160e01b600052602160045260246000fd5b611a7c81611a53565b80611a85575050565b611a8e81611a53565b60018103611aa85760405163f645eedf60e01b8152600490fd5b611ab181611a53565b60028103611ad25760405163fce698f760e01b815260048101839052602490fd5b80611ade600392611a53565b14611ae65750565b6040516335e2f38360e21b81526004810191909152602490fd5b9091611b1761031b936040845260408401906107af565b9160208184039101526107af565b908160209103126101ec575161031b81610242565b92611b6961031b9593611b779360018060a01b031686526000602087015260a0604087015260a08601906107af565b9084820360608601526107af565b9160808184039101526102e5565b9293919093843b611b98575b5050505050565b602091611bbb604051948593849363bc197c8160e01b9889865260048601611b3a565b038160006001600160a01b0388165af160009181611c50575b50611c135782611be26115e5565b8051919082611c0c57604051632bfa23e760e11b81526001600160a01b0383166004820152602490fd5b9050602001fd5b6001600160e01b03191603611c2d57503880808080611b91565b604051632bfa23e760e11b81526001600160a01b03919091166004820152602490fd5b611c7391925060203d602011611c7a575b611c6b8183610459565b810190611b25565b9038611bd4565b503d611c61565b909260a09261031b9594600180861b03168352600060208401526040830152606082015281608082015201906102e5565b9293919093843b611cc4575050505050565b602091611bbb604051948593849363f23a6e6160e01b9889865260048601611c81565b91906fa2a8918ca85bafe22016d0b997e4df60600160ff1b038411611d5557926020929160ff608095604051948552168484015260408301526060820152600092839182805260015afa156107545780516001600160a01b03811615611d4c57918190565b50809160019190565b5050506000916003919056fea26469706673582212207cb697680af939690a58ea3811a00313e9d62e7de4defecbe50cc6a1989ea0ed64736f6c63430008180033",
          "opcodes": "PUSH1 0x80 CALLVALUE PUSH3 0x30F JUMPI PUSH1 0x1F PUSH3 0x20AC CODESIZE DUP2 SWAP1 SUB SWAP2 DUP3 ADD PUSH1 0x1F NOT AND DUP4 ADD SWAP3 PUSH1 0x1 PUSH1 0x1 PUSH1 0x40 SHL SUB SWAP3 SWAP1 SWAP2 SWAP1 DUP4 DUP6 GT DUP4 DUP7 LT OR PUSH3 0x2F9 JUMPI DUP1 DUP4 SWAP3 PUSH1 0x40 SWAP7 DUP8 MSTORE DUP4 CODECOPY PUSH1 0x20 SWAP3 DUP4 SWAP2 DUP2 ADD SUB SLT PUSH3 0x30F JUMPI MLOAD PUSH1 0x1 PUSH1 0x1 PUSH1 0xA0 SHL SUB SWAP3 SWAP1 DUP4 DUP2 AND SWAP1 DUP2 SWAP1 SUB PUSH3 0x30F JUMPI DUP5 MLOAD SWAP2 PUSH1 0x60 DUP4 ADD SWAP1 DUP2 GT DUP4 DUP3 LT OR PUSH3 0x2F9 JUMPI DUP6 MSTORE PUSH1 0x3B DUP3 MSTORE PUSH32 0x68747470733A2F2F6170692E706F64792E6E6574776F726B2F6E66742F706F64 DUP4 DUP4 ADD MSTORE PUSH32 0x792D706F696E74732F6D657461646174612F7B69647D2E6A736F6E0000000000 DUP6 DUP4 ADD MSTORE PUSH1 0x2 SWAP4 DUP5 SLOAD SWAP3 PUSH1 0x1 SWAP4 DUP5 DUP2 DUP2 SHR SWAP2 AND DUP1 ISZERO PUSH3 0x2EE JUMPI JUMPDEST DUP7 DUP3 LT EQ PUSH3 0x2D8 JUMPI PUSH1 0x1F DUP2 GT PUSH3 0x2A5 JUMPI JUMPDEST POP DUP5 SWAP1 DUP7 PUSH1 0x0 MSTORE DUP6 PUSH1 0x0 KECCAK256 SWAP2 PUSH1 0x0 JUMPDEST DUP8 DUP8 DUP2 DUP4 LT PUSH3 0x290 JUMPI POP POP POP ADD MLOAD PUSH5 0xFFFFFFFFFF NOT AND SWAP1 SSTORE PUSH1 0x77 DUP6 SSTORE CALLER ISZERO PUSH3 0x278 JUMPI PUSH1 0x1 DUP1 PUSH1 0xA0 SHL SUB NOT SWAP1 DUP2 PUSH1 0x4 SLOAD AND PUSH1 0x4 SSTORE PUSH1 0x3 SLOAD CALLER DUP4 DUP3 AND OR PUSH1 0x3 SSTORE DUP8 MLOAD SWAP2 CALLER SWAP2 AND PUSH32 0x8BE0079C531659141344CD1FD0A4F28419497F9722A3DAAFE3B4186F6B6457E0 PUSH1 0x0 DUP1 LOG3 DUP3 ISZERO PUSH3 0x236 JUMPI POP SWAP1 PUSH1 0x7 SWAP4 SWAP3 SWAP2 PUSH1 0x9 SLOAD AND OR PUSH1 0x9 SSTORE DUP1 PUSH1 0x0 MSTORE PUSH1 0x6 DUP3 MSTORE PUSH8 0xDE0B6B3A7640000 DUP1 DUP7 PUSH1 0x0 KECCAK256 SSTORE DUP5 PUSH1 0x0 MSTORE DUP6 PUSH1 0x0 KECCAK256 SSTORE PUSH1 0x3 PUSH1 0x0 MSTORE PUSH8 0x1BC16D674EC80000 DUP6 PUSH1 0x0 KECCAK256 SSTORE PUSH1 0x4 PUSH1 0x0 MSTORE PUSH8 0x22B1C8C1227A0000 DUP6 PUSH1 0x0 KECCAK256 SSTORE PUSH1 0x5 PUSH1 0x0 MSTORE PUSH8 0x29A2241AF62C0000 DUP6 PUSH1 0x0 KECCAK256 SSTORE PUSH1 0x0 MSTORE MSTORE PUSH1 0x0 DUP3 DUP2 KECCAK256 SSTORE PUSH1 0x0 MSTORE PUSH7 0x38D7EA4C68000 DUP2 PUSH1 0x0 KECCAK256 SSTORE PUSH1 0x3 PUSH1 0x0 MSTORE PUSH7 0x71AFD498D0000 DUP2 PUSH1 0x0 KECCAK256 SSTORE PUSH1 0x4 PUSH1 0x0 MSTORE PUSH7 0xE35FA931A0000 DUP2 PUSH1 0x0 KECCAK256 SSTORE PUSH1 0x5 PUSH1 0x0 MSTORE PUSH7 0x11C37937E08000 DUP2 PUSH1 0x0 KECCAK256 SSTORE MLOAD PUSH2 0x1D97 SWAP1 DUP2 PUSH3 0x315 DUP3 CODECOPY RETURN JUMPDEST PUSH3 0x461BCD PUSH1 0xE5 SHL DUP2 MSTORE PUSH1 0x4 DUP2 ADD DUP6 SWAP1 MSTORE PUSH1 0x1F PUSH1 0x24 DUP3 ADD MSTORE PUSH32 0x496E76616C6964206D756C74697369672077616C6C6574206164647265737300 PUSH1 0x44 DUP3 ADD MSTORE PUSH1 0x64 SWAP1 REVERT JUMPDEST DUP6 MLOAD PUSH4 0x1E4FBDF7 PUSH1 0xE0 SHL DUP2 MSTORE PUSH1 0x0 PUSH1 0x4 DUP3 ADD MSTORE PUSH1 0x24 SWAP1 REVERT JUMPDEST DUP4 SWAP6 DUP3 SWAP4 SWAP5 DUP7 ADD MLOAD DUP2 SSTORE ADD SWAP5 ADD SWAP2 ADD PUSH3 0xFE JUMP JUMPDEST DUP7 PUSH1 0x0 MSTORE DUP5 DUP8 PUSH1 0x1F DUP9 PUSH1 0x0 KECCAK256 SWAP4 ADD PUSH1 0x5 SHR DUP4 ADD SWAP3 ADD JUMPDEST DUP3 DUP2 LT PUSH3 0x2CB JUMPI POP POP PUSH3 0xEF JUMP JUMPDEST PUSH1 0x0 DUP2 SSTORE ADD DUP6 SWAP1 PUSH3 0x2BB JUMP JUMPDEST PUSH4 0x4E487B71 PUSH1 0xE0 SHL PUSH1 0x0 MSTORE PUSH1 0x22 PUSH1 0x4 MSTORE PUSH1 0x24 PUSH1 0x0 REVERT JUMPDEST SWAP1 PUSH1 0x7F AND SWAP1 PUSH3 0xDC JUMP JUMPDEST PUSH4 0x4E487B71 PUSH1 0xE0 SHL PUSH1 0x0 MSTORE PUSH1 0x41 PUSH1 0x4 MSTORE PUSH1 0x24 PUSH1 0x0 REVERT JUMPDEST PUSH1 0x0 DUP1 REVERT INVALID PUSH1 0x80 PUSH1 0x40 MSTORE PUSH1 0x4 CALLDATASIZE LT ISZERO PUSH2 0x12 JUMPI PUSH1 0x0 DUP1 REVERT JUMPDEST PUSH1 0x0 CALLDATALOAD PUSH1 0xE0 SHR DUP1 PUSH3 0xFDD58E EQ PUSH2 0x1D6 JUMPI DUP1 PUSH4 0x1FFC9A7 EQ PUSH2 0x1D1 JUMPI DUP1 PUSH4 0xE89341C EQ PUSH2 0x1CC JUMPI DUP1 PUSH4 0x206545C2 EQ PUSH2 0x1C7 JUMPI DUP1 PUSH4 0x2EB2C2D6 EQ PUSH2 0x1C2 JUMPI DUP1 PUSH4 0x3E4BEE38 EQ PUSH2 0x1BD JUMPI DUP1 PUSH4 0x44004CC1 EQ PUSH2 0x1B8 JUMPI DUP1 PUSH4 0x4B8FEB4F EQ PUSH2 0x1B3 JUMPI DUP1 PUSH4 0x4E1273F4 EQ PUSH2 0x1AE JUMPI DUP1 PUSH4 0x56F0593A EQ PUSH2 0x1A9 JUMPI DUP1 PUSH4 0x715018A6 EQ PUSH2 0x1A4 JUMPI DUP1 PUSH4 0x7832CB64 EQ PUSH2 0x19F JUMPI DUP1 PUSH4 0x79BA5097 EQ PUSH2 0x19A JUMPI DUP1 PUSH4 0x8DA5CB5B EQ PUSH2 0x195 JUMPI DUP1 PUSH4 0xA22CB465 EQ PUSH2 0x190 JUMPI DUP1 PUSH4 0xA87430BA EQ PUSH2 0x18B JUMPI DUP1 PUSH4 0xB510391F EQ PUSH2 0x186 JUMPI DUP1 PUSH4 0xBC31C1C1 EQ PUSH2 0x181 JUMPI DUP1 PUSH4 0xC3AAC87E EQ PUSH2 0x17C JUMPI DUP1 PUSH4 0xE00FD543 EQ PUSH2 0x177 JUMPI DUP1 PUSH4 0xE30C3978 EQ PUSH2 0x172 JUMPI DUP1 PUSH4 0xE3E55F08 EQ PUSH2 0x16D JUMPI DUP1 PUSH4 0xE4F376F0 EQ PUSH2 0x168 JUMPI DUP1 PUSH4 0xE985E9C5 EQ PUSH2 0x163 JUMPI DUP1 PUSH4 0xF03B0C0B EQ PUSH2 0x15E JUMPI DUP1 PUSH4 0xF242432A EQ PUSH2 0x159 JUMPI DUP1 PUSH4 0xF2FDE38B EQ PUSH2 0x154 JUMPI PUSH4 0xF528D872 EQ PUSH2 0x14F JUMPI PUSH1 0x0 DUP1 REVERT JUMPDEST PUSH2 0x1134 JUMP JUMPDEST PUSH2 0x10C3 JUMP JUMPDEST PUSH2 0x103B JUMP JUMPDEST PUSH2 0xFAC JUMP JUMPDEST PUSH2 0xF50 JUMP JUMPDEST PUSH2 0xF08 JUMP JUMPDEST PUSH2 0xEC6 JUMP JUMPDEST PUSH2 0xE9D JUMP JUMPDEST PUSH2 0xE81 JUMP JUMPDEST PUSH2 0xCDE JUMP JUMPDEST PUSH2 0xCB2 JUMP JUMPDEST PUSH2 0xB58 JUMP JUMPDEST PUSH2 0xB04 JUMP JUMPDEST PUSH2 0xA50 JUMP JUMPDEST PUSH2 0xA27 JUMP JUMPDEST PUSH2 0x9A5 JUMP JUMPDEST PUSH2 0x941 JUMP JUMPDEST PUSH2 0x8CC JUMP JUMPDEST PUSH2 0x8B0 JUMP JUMPDEST PUSH2 0x7F4 JUMP JUMPDEST PUSH2 0x786 JUMP JUMPDEST PUSH2 0x5F3 JUMP JUMPDEST PUSH2 0x5D7 JUMP JUMPDEST PUSH2 0x558 JUMP JUMPDEST PUSH2 0x427 JUMP JUMPDEST PUSH2 0x31E JUMP JUMPDEST PUSH2 0x254 JUMP JUMPDEST PUSH2 0x1F1 JUMP JUMPDEST PUSH1 0x1 PUSH1 0x1 PUSH1 0xA0 SHL SUB DUP2 AND SUB PUSH2 0x1EC JUMPI JUMP JUMPDEST PUSH1 0x0 DUP1 REVERT JUMPDEST CALLVALUE PUSH2 0x1EC JUMPI PUSH1 0x40 CALLDATASIZE PUSH1 0x3 NOT ADD SLT PUSH2 0x1EC JUMPI PUSH1 0x20 PUSH2 0x239 PUSH1 0x4 CALLDATALOAD PUSH2 0x213 DUP2 PUSH2 0x1DB JUMP JUMPDEST PUSH1 0x24 CALLDATALOAD PUSH1 0x0 MSTORE PUSH1 0x0 DUP4 MSTORE PUSH1 0x40 PUSH1 0x0 KECCAK256 SWAP1 PUSH1 0x1 DUP1 PUSH1 0xA0 SHL SUB AND PUSH1 0x0 MSTORE PUSH1 0x20 MSTORE PUSH1 0x40 PUSH1 0x0 KECCAK256 SWAP1 JUMP JUMPDEST SLOAD PUSH1 0x40 MLOAD SWAP1 DUP2 MSTORE RETURN JUMPDEST PUSH1 0x1 PUSH1 0x1 PUSH1 0xE0 SHL SUB NOT DUP2 AND SUB PUSH2 0x1EC JUMPI JUMP JUMPDEST CALLVALUE PUSH2 0x1EC JUMPI PUSH1 0x20 CALLDATASIZE PUSH1 0x3 NOT ADD SLT PUSH2 0x1EC JUMPI PUSH1 0x20 PUSH1 0x4 CALLDATALOAD PUSH2 0x273 DUP2 PUSH2 0x242 JUMP JUMPDEST PUSH4 0xFFFFFFFF PUSH1 0xE0 SHL AND PUSH4 0x6CDB3D13 PUSH1 0xE1 SHL DUP2 EQ SWAP1 DUP2 ISZERO PUSH2 0x2B1 JUMPI JUMPDEST DUP2 ISZERO PUSH2 0x2A0 JUMPI JUMPDEST POP PUSH1 0x40 MLOAD SWAP1 ISZERO ISZERO DUP2 MSTORE RETURN JUMPDEST PUSH4 0x1FFC9A7 PUSH1 0xE0 SHL EQ SWAP1 POP CODESIZE PUSH2 0x295 JUMP JUMPDEST PUSH4 0x3A24D07 PUSH1 0xE2 SHL DUP2 EQ SWAP2 POP PUSH2 0x28E JUMP JUMPDEST PUSH1 0x0 JUMPDEST DUP4 DUP2 LT PUSH2 0x2D5 JUMPI POP POP PUSH1 0x0 SWAP2 ADD MSTORE JUMP JUMPDEST DUP2 DUP2 ADD MLOAD DUP4 DUP3 ADD MSTORE PUSH1 0x20 ADD PUSH2 0x2C5 JUMP JUMPDEST SWAP1 PUSH1 0x20 SWAP2 PUSH2 0x2FE DUP2 MLOAD DUP1 SWAP3 DUP2 DUP6 MSTORE DUP6 DUP1 DUP7 ADD SWAP2 ADD PUSH2 0x2C2 JUMP JUMPDEST PUSH1 0x1F ADD PUSH1 0x1F NOT AND ADD ADD SWAP1 JUMP JUMPDEST SWAP1 PUSH1 0x20 PUSH2 0x31B SWAP3 DUP2 DUP2 MSTORE ADD SWAP1 PUSH2 0x2E5 JUMP JUMPDEST SWAP1 JUMP JUMPDEST CALLVALUE PUSH2 0x1EC JUMPI PUSH1 0x20 DUP1 PUSH1 0x3 NOT CALLDATASIZE ADD SLT PUSH2 0x1EC JUMPI PUSH1 0x40 MLOAD SWAP1 PUSH1 0x0 SWAP1 PUSH1 0x2 SLOAD PUSH1 0x1 SWAP2 DUP2 PUSH1 0x1 SHR SWAP3 PUSH1 0x1 DUP4 AND SWAP3 DUP4 ISZERO PUSH2 0x41D JUMPI JUMPDEST PUSH1 0x20 DUP6 LT DUP5 EQ PUSH2 0x409 JUMPI DUP5 DUP8 MSTORE PUSH1 0x20 DUP8 ADD SWAP4 SWAP1 DUP2 ISZERO PUSH2 0x3EA JUMPI POP PUSH1 0x1 EQ PUSH2 0x390 JUMPI JUMPDEST PUSH2 0x38C DUP7 PUSH2 0x380 DUP2 DUP9 SUB DUP3 PUSH2 0x459 JUMP JUMPDEST PUSH1 0x40 MLOAD SWAP2 DUP3 SWAP2 DUP3 PUSH2 0x30A JUMP JUMPDEST SUB SWAP1 RETURN JUMPDEST PUSH1 0x2 PUSH1 0x0 SWAP1 DUP2 MSTORE SWAP5 POP SWAP2 SWAP3 SWAP2 PUSH32 0x405787FA12A823E0F2B7631CC41B3BA8828B3321CA811111FA75CD3AA3BB5ACE JUMPDEST DUP4 DUP7 LT PUSH2 0x3D9 JUMPI POP POP POP SWAP2 ADD SWAP1 POP PUSH2 0x380 DUP3 PUSH2 0x38C CODESIZE PUSH2 0x370 JUMP JUMPDEST DUP1 SLOAD DUP6 DUP8 ADD MSTORE SWAP5 DUP3 ADD SWAP5 DUP2 ADD PUSH2 0x3BE JUMP JUMPDEST PUSH1 0xFF NOT AND DUP5 MSTORE POP POP POP SWAP1 ISZERO ISZERO PUSH1 0x5 SHL ADD SWAP1 POP PUSH2 0x380 DUP3 PUSH2 0x38C CODESIZE PUSH2 0x370 JUMP JUMPDEST PUSH4 0x4E487B71 PUSH1 0xE0 SHL DUP7 MSTORE PUSH1 0x22 PUSH1 0x4 MSTORE PUSH1 0x24 DUP7 REVERT JUMPDEST SWAP4 PUSH1 0x7F AND SWAP4 PUSH2 0x34E JUMP JUMPDEST CALLVALUE PUSH2 0x1EC JUMPI PUSH1 0x0 CALLDATASIZE PUSH1 0x3 NOT ADD SLT PUSH2 0x1EC JUMPI PUSH1 0x20 PUSH1 0x40 MLOAD PUSH1 0x5 DUP2 MSTORE RETURN JUMPDEST PUSH4 0x4E487B71 PUSH1 0xE0 SHL PUSH1 0x0 MSTORE PUSH1 0x41 PUSH1 0x4 MSTORE PUSH1 0x24 PUSH1 0x0 REVERT JUMPDEST SWAP1 PUSH1 0x1F DUP1 NOT SWAP2 ADD AND DUP2 ADD SWAP1 DUP2 LT PUSH1 0x1 PUSH1 0x1 PUSH1 0x40 SHL SUB DUP3 GT OR PUSH2 0x47A JUMPI PUSH1 0x40 MSTORE JUMP JUMPDEST PUSH2 0x443 JUMP JUMPDEST PUSH1 0x1 PUSH1 0x1 PUSH1 0x40 SHL SUB DUP2 GT PUSH2 0x47A JUMPI PUSH1 0x5 SHL PUSH1 0x20 ADD SWAP1 JUMP JUMPDEST SWAP1 DUP1 PUSH1 0x1F DUP4 ADD SLT ISZERO PUSH2 0x1EC JUMPI PUSH1 0x20 SWAP1 DUP3 CALLDATALOAD PUSH2 0x4B0 DUP2 PUSH2 0x47F JUMP JUMPDEST SWAP4 PUSH2 0x4BE PUSH1 0x40 MLOAD SWAP6 DUP7 PUSH2 0x459 JUMP JUMPDEST DUP2 DUP6 MSTORE PUSH1 0x20 DUP1 DUP7 ADD SWAP3 PUSH1 0x5 SHL DUP3 ADD ADD SWAP3 DUP4 GT PUSH2 0x1EC JUMPI PUSH1 0x20 ADD SWAP1 JUMPDEST DUP3 DUP3 LT PUSH2 0x4E7 JUMPI POP POP POP POP SWAP1 JUMP JUMPDEST DUP2 CALLDATALOAD DUP2 MSTORE SWAP1 DUP4 ADD SWAP1 DUP4 ADD PUSH2 0x4D9 JUMP JUMPDEST PUSH1 0x1 PUSH1 0x1 PUSH1 0x40 SHL SUB DUP2 GT PUSH2 0x47A JUMPI PUSH1 0x1F ADD PUSH1 0x1F NOT AND PUSH1 0x20 ADD SWAP1 JUMP JUMPDEST DUP2 PUSH1 0x1F DUP3 ADD SLT ISZERO PUSH2 0x1EC JUMPI DUP1 CALLDATALOAD SWAP1 PUSH2 0x528 DUP3 PUSH2 0x4F6 JUMP JUMPDEST SWAP3 PUSH2 0x536 PUSH1 0x40 MLOAD SWAP5 DUP6 PUSH2 0x459 JUMP JUMPDEST DUP3 DUP5 MSTORE PUSH1 0x20 DUP4 DUP4 ADD ADD GT PUSH2 0x1EC JUMPI DUP2 PUSH1 0x0 SWAP3 PUSH1 0x20 DUP1 SWAP4 ADD DUP4 DUP7 ADD CALLDATACOPY DUP4 ADD ADD MSTORE SWAP1 JUMP JUMPDEST CALLVALUE PUSH2 0x1EC JUMPI PUSH1 0xA0 CALLDATASIZE PUSH1 0x3 NOT ADD SLT PUSH2 0x1EC JUMPI PUSH2 0x574 PUSH1 0x4 CALLDATALOAD PUSH2 0x1DB JUMP JUMPDEST PUSH2 0x57F PUSH1 0x24 CALLDATALOAD PUSH2 0x1DB JUMP JUMPDEST PUSH1 0x1 PUSH1 0x1 PUSH1 0x40 SHL SUB PUSH1 0x44 CALLDATALOAD DUP2 DUP2 GT PUSH2 0x1EC JUMPI PUSH2 0x59F SWAP1 CALLDATASIZE SWAP1 PUSH1 0x4 ADD PUSH2 0x496 JUMP JUMPDEST POP PUSH1 0x64 CALLDATALOAD DUP2 DUP2 GT PUSH2 0x1EC JUMPI PUSH2 0x5B8 SWAP1 CALLDATASIZE SWAP1 PUSH1 0x4 ADD PUSH2 0x496 JUMP JUMPDEST POP PUSH1 0x84 CALLDATALOAD SWAP1 DUP2 GT PUSH2 0x1EC JUMPI PUSH2 0x5D1 SWAP1 CALLDATASIZE SWAP1 PUSH1 0x4 ADD PUSH2 0x511 JUMP JUMPDEST POP PUSH2 0x1160 JUMP JUMPDEST CALLVALUE PUSH2 0x1EC JUMPI PUSH1 0x0 CALLDATASIZE PUSH1 0x3 NOT ADD SLT PUSH2 0x1EC JUMPI PUSH1 0x20 PUSH1 0x40 MLOAD PUSH1 0x3 DUP2 MSTORE RETURN JUMPDEST CALLVALUE PUSH2 0x1EC JUMPI PUSH1 0x60 CALLDATASIZE PUSH1 0x3 NOT ADD SLT PUSH2 0x1EC JUMPI PUSH1 0x4 CALLDATALOAD PUSH2 0x610 DUP2 PUSH2 0x1DB JUMP JUMPDEST PUSH1 0x24 CALLDATALOAD SWAP1 PUSH2 0x61D DUP3 PUSH2 0x1DB JUMP JUMPDEST PUSH1 0x44 CALLDATALOAD PUSH2 0x628 PUSH2 0x176B JUMP JUMPDEST PUSH1 0x1 PUSH1 0x1 PUSH1 0xA0 SHL SUB SWAP2 DUP3 AND SWAP2 PUSH2 0x63F DUP4 ISZERO ISZERO PUSH2 0x11A1 JUMP JUMPDEST DUP4 AND SWAP3 PUSH2 0x64D DUP5 ISZERO ISZERO PUSH2 0x11E5 JUMP JUMPDEST PUSH2 0x658 DUP3 ISZERO ISZERO PUSH2 0x122D JUMP JUMPDEST PUSH1 0x40 MLOAD PUSH4 0x70A08231 PUSH1 0xE0 SHL DUP2 MSTORE ADDRESS PUSH1 0x4 DUP3 ADD MSTORE PUSH1 0x20 SWAP3 SWAP1 DUP4 DUP2 PUSH1 0x24 DUP2 DUP9 GAS STATICCALL SWAP1 DUP2 ISZERO PUSH2 0x754 JUMPI PUSH2 0x6CB SWAP4 PUSH2 0x69A DUP5 DUP8 SWAP5 DUP2 SWAP5 PUSH1 0x0 SWAP2 PUSH2 0x759 JUMPI JUMPDEST POP LT ISZERO PUSH2 0x1293 JUMP JUMPDEST PUSH1 0x40 MLOAD PUSH4 0xA9059CBB PUSH1 0xE0 SHL DUP2 MSTORE PUSH1 0x1 PUSH1 0x1 PUSH1 0xA0 SHL SUB SWAP1 SWAP2 AND PUSH1 0x4 DUP3 ADD MSTORE PUSH1 0x24 DUP2 ADD SWAP2 SWAP1 SWAP2 MSTORE SWAP3 DUP4 SWAP1 DUP2 SWAP1 PUSH1 0x44 DUP3 ADD SWAP1 JUMP JUMPDEST SUB DUP2 PUSH1 0x0 DUP9 GAS CALL SWAP3 DUP4 ISZERO PUSH2 0x754 JUMPI PUSH32 0xA92FF919B850E4909AB2261D907EF955F11BC1716733A6CBECE38D163A69AF8A SWAP4 PUSH2 0x722 SWAP4 PUSH2 0x712 SWAP3 PUSH1 0x0 SWAP3 PUSH2 0x727 JUMPI JUMPDEST POP POP PUSH2 0x12F4 JUMP JUMPDEST PUSH1 0x40 MLOAD SWAP1 DUP2 MSTORE SWAP1 DUP2 SWAP1 PUSH1 0x20 DUP3 ADD SWAP1 JUMP JUMPDEST SUB SWAP1 LOG3 STOP JUMPDEST PUSH2 0x746 SWAP3 POP DUP1 RETURNDATASIZE LT PUSH2 0x74D JUMPI JUMPDEST PUSH2 0x73E DUP2 DUP4 PUSH2 0x459 JUMP JUMPDEST DUP2 ADD SWAP1 PUSH2 0x12DF JUMP JUMPDEST CODESIZE DUP1 PUSH2 0x70B JUMP JUMPDEST POP RETURNDATASIZE PUSH2 0x734 JUMP JUMPDEST PUSH2 0x1287 JUMP JUMPDEST PUSH2 0x779 SWAP2 POP DUP7 RETURNDATASIZE DUP9 GT PUSH2 0x77F JUMPI JUMPDEST PUSH2 0x771 DUP2 DUP4 PUSH2 0x459 JUMP JUMPDEST DUP2 ADD SWAP1 PUSH2 0x1278 JUMP JUMPDEST CODESIZE PUSH2 0x692 JUMP JUMPDEST POP RETURNDATASIZE PUSH2 0x767 JUMP JUMPDEST CALLVALUE PUSH2 0x1EC JUMPI PUSH1 0x0 CALLDATASIZE PUSH1 0x3 NOT ADD SLT PUSH2 0x1EC JUMPI PUSH1 0x9 SLOAD PUSH1 0x40 MLOAD PUSH1 0x1 PUSH1 0x1 PUSH1 0xA0 SHL SUB SWAP1 SWAP2 AND DUP2 MSTORE PUSH1 0x20 SWAP1 RETURN JUMPDEST SWAP1 DUP2 MLOAD DUP1 DUP3 MSTORE PUSH1 0x20 DUP1 DUP1 SWAP4 ADD SWAP4 ADD SWAP2 PUSH1 0x0 JUMPDEST DUP3 DUP2 LT PUSH2 0x7CF JUMPI POP POP POP POP SWAP1 JUMP JUMPDEST DUP4 MLOAD DUP6 MSTORE SWAP4 DUP2 ADD SWAP4 SWAP3 DUP2 ADD SWAP3 PUSH1 0x1 ADD PUSH2 0x7C1 JUMP JUMPDEST SWAP1 PUSH1 0x20 PUSH2 0x31B SWAP3 DUP2 DUP2 MSTORE ADD SWAP1 PUSH2 0x7AF JUMP JUMPDEST CALLVALUE PUSH2 0x1EC JUMPI PUSH1 0x40 CALLDATASIZE PUSH1 0x3 NOT ADD SLT PUSH2 0x1EC JUMPI PUSH1 0x4 CALLDATALOAD PUSH1 0x1 PUSH1 0x1 PUSH1 0x40 SHL SUB DUP1 DUP3 GT PUSH2 0x1EC JUMPI CALLDATASIZE PUSH1 0x23 DUP4 ADD SLT ISZERO PUSH2 0x1EC JUMPI DUP2 PUSH1 0x4 ADD CALLDATALOAD PUSH2 0x830 DUP2 PUSH2 0x47F JUMP JUMPDEST SWAP3 PUSH2 0x83E PUSH1 0x40 MLOAD SWAP5 DUP6 PUSH2 0x459 JUMP JUMPDEST DUP2 DUP5 MSTORE PUSH1 0x20 SWAP2 PUSH1 0x24 PUSH1 0x20 DUP7 ADD SWAP2 PUSH1 0x5 SHL DUP4 ADD ADD SWAP2 CALLDATASIZE DUP4 GT PUSH2 0x1EC JUMPI PUSH1 0x24 ADD SWAP1 JUMPDEST DUP3 DUP3 LT PUSH2 0x897 JUMPI DUP6 PUSH1 0x24 CALLDATALOAD DUP7 DUP2 GT PUSH2 0x1EC JUMPI PUSH2 0x38C SWAP2 PUSH2 0x885 PUSH2 0x88B SWAP3 CALLDATASIZE SWAP1 PUSH1 0x4 ADD PUSH2 0x496 JUMP JUMPDEST SWAP1 PUSH2 0x1362 JUMP JUMPDEST PUSH1 0x40 MLOAD SWAP2 DUP3 SWAP2 DUP3 PUSH2 0x7E3 JUMP JUMPDEST DUP4 DUP1 SWAP2 DUP4 CALLDATALOAD PUSH2 0x8A5 DUP2 PUSH2 0x1DB JUMP JUMPDEST DUP2 MSTORE ADD SWAP2 ADD SWAP1 PUSH2 0x85E JUMP JUMPDEST CALLVALUE PUSH2 0x1EC JUMPI PUSH1 0x0 CALLDATASIZE PUSH1 0x3 NOT ADD SLT PUSH2 0x1EC JUMPI PUSH1 0x20 PUSH1 0x40 MLOAD PUSH1 0x4 DUP2 MSTORE RETURN JUMPDEST CALLVALUE PUSH2 0x1EC JUMPI PUSH1 0x0 DUP1 PUSH1 0x3 NOT CALLDATASIZE ADD SLT PUSH2 0x934 JUMPI PUSH2 0x8E6 PUSH2 0x176B JUMP JUMPDEST PUSH1 0x4 DUP1 SLOAD PUSH1 0x1 PUSH1 0x1 PUSH1 0xA0 SHL SUB NOT SWAP1 DUP2 AND SWAP1 SWAP2 SSTORE PUSH1 0x3 DUP1 SLOAD SWAP2 DUP3 AND SWAP1 SSTORE DUP2 SWAP1 PUSH1 0x1 PUSH1 0x1 PUSH1 0xA0 SHL SUB AND PUSH32 0x8BE0079C531659141344CD1FD0A4F28419497F9722A3DAAFE3B4186F6B6457E0 DUP3 DUP1 LOG3 DUP1 RETURN JUMPDEST DUP1 REVERT JUMPDEST DUP1 ISZERO ISZERO SUB PUSH2 0x1EC JUMPI JUMP JUMPDEST CALLVALUE PUSH2 0x1EC JUMPI PUSH1 0xA0 CALLDATASIZE PUSH1 0x3 NOT ADD SLT PUSH2 0x1EC JUMPI PUSH1 0x4 CALLDATALOAD PUSH2 0x95E DUP2 PUSH2 0x1DB JUMP JUMPDEST PUSH1 0x64 CALLDATALOAD PUSH1 0x1 PUSH1 0x1 PUSH1 0x40 SHL SUB DUP2 GT PUSH2 0x1EC JUMPI PUSH1 0x20 SWAP2 PUSH2 0x983 PUSH2 0x99D SWAP3 CALLDATASIZE SWAP1 PUSH1 0x4 ADD PUSH2 0x511 JUMP JUMPDEST PUSH1 0x84 CALLDATALOAD SWAP2 PUSH2 0x990 DUP4 PUSH2 0x937 JUMP JUMPDEST PUSH1 0x44 CALLDATALOAD SWAP1 PUSH1 0x24 CALLDATALOAD SWAP1 PUSH2 0x1478 JUMP JUMPDEST PUSH1 0x40 MLOAD SWAP1 DUP2 MSTORE RETURN JUMPDEST CALLVALUE PUSH2 0x1EC JUMPI PUSH1 0x0 DUP1 PUSH1 0x3 NOT CALLDATASIZE ADD SLT PUSH2 0x934 JUMPI PUSH1 0x4 SLOAD PUSH1 0x1 PUSH1 0x1 PUSH1 0xA0 SHL SUB CALLER DUP2 DUP4 AND SUB PUSH2 0xA0F JUMPI PUSH1 0x1 PUSH1 0x1 PUSH1 0xA0 SHL SUB NOT SWAP2 DUP3 AND PUSH1 0x4 SSTORE PUSH1 0x3 DUP1 SLOAD CALLER SWAP4 DUP2 AND DUP5 OR SWAP1 SWAP2 SSTORE AND PUSH32 0x8BE0079C531659141344CD1FD0A4F28419497F9722A3DAAFE3B4186F6B6457E0 DUP4 DUP1 LOG3 DUP1 RETURN JUMPDEST PUSH1 0x40 MLOAD PUSH4 0x118CDAA7 PUSH1 0xE0 SHL DUP2 MSTORE CALLER PUSH1 0x4 DUP3 ADD MSTORE PUSH1 0x24 SWAP1 REVERT JUMPDEST CALLVALUE PUSH2 0x1EC JUMPI PUSH1 0x0 CALLDATASIZE PUSH1 0x3 NOT ADD SLT PUSH2 0x1EC JUMPI PUSH1 0x3 SLOAD PUSH1 0x40 MLOAD PUSH1 0x1 PUSH1 0x1 PUSH1 0xA0 SHL SUB SWAP1 SWAP2 AND DUP2 MSTORE PUSH1 0x20 SWAP1 RETURN JUMPDEST CALLVALUE PUSH2 0x1EC JUMPI PUSH1 0x40 CALLDATASIZE PUSH1 0x3 NOT ADD SLT PUSH2 0x1EC JUMPI PUSH1 0x4 CALLDATALOAD PUSH2 0xA6D DUP2 PUSH2 0x1DB JUMP JUMPDEST PUSH1 0x24 CALLDATALOAD PUSH2 0xA79 DUP2 PUSH2 0x937 JUMP JUMPDEST PUSH1 0x1 PUSH1 0x1 PUSH1 0xA0 SHL SUB DUP3 AND SWAP2 DUP3 ISZERO PUSH2 0xAEC JUMPI CALLER PUSH1 0x0 SWAP1 DUP2 MSTORE PUSH1 0x1 PUSH1 0x20 SWAP1 DUP2 MSTORE PUSH1 0x40 DUP1 DUP4 KECCAK256 PUSH1 0x1 PUSH1 0x1 PUSH1 0xA0 SHL SUB SWAP1 SWAP5 AND DUP4 MSTORE SWAP3 SWAP1 MSTORE KECCAK256 SWAP1 ISZERO ISZERO SWAP1 PUSH1 0xFF NOT DUP2 SLOAD AND PUSH1 0xFF DUP4 AND OR SWAP1 SSTORE PUSH1 0x40 MLOAD SWAP1 DUP2 MSTORE PUSH32 0x17307EAB39AB6107E8899845AD3D59BD9653F200F220920489CA2B5937696C31 PUSH1 0x20 CALLER SWAP3 LOG3 STOP JUMPDEST PUSH1 0x40 MLOAD PUSH3 0xCED3E1 PUSH1 0xE8 SHL DUP2 MSTORE PUSH1 0x0 PUSH1 0x4 DUP3 ADD MSTORE PUSH1 0x24 SWAP1 REVERT JUMPDEST CALLVALUE PUSH2 0x1EC JUMPI PUSH1 0x20 CALLDATASIZE PUSH1 0x3 NOT ADD SLT PUSH2 0x1EC JUMPI PUSH1 0x4 CALLDATALOAD PUSH2 0xB21 DUP2 PUSH2 0x1DB JUMP JUMPDEST PUSH1 0x1 DUP1 PUSH1 0xA0 SHL SUB AND PUSH1 0x0 MSTORE PUSH1 0x5 PUSH1 0x20 MSTORE PUSH1 0x60 PUSH1 0x40 PUSH1 0x0 KECCAK256 DUP1 SLOAD SWAP1 PUSH1 0x2 PUSH1 0x1 DUP3 ADD SLOAD SWAP2 ADD SLOAD SWAP1 PUSH1 0x40 MLOAD SWAP3 DUP4 MSTORE PUSH1 0x20 DUP4 ADD MSTORE PUSH1 0x40 DUP3 ADD MSTORE RETURN JUMPDEST PUSH1 0x40 CALLDATASIZE PUSH1 0x3 NOT ADD SLT PUSH2 0x1EC JUMPI PUSH1 0x4 CALLDATALOAD PUSH2 0xB70 DUP2 PUSH2 0x1DB JUMP JUMPDEST PUSH1 0x24 CALLDATALOAD PUSH1 0x1 PUSH1 0x1 PUSH1 0x40 SHL SUB DUP2 GT PUSH2 0x1EC JUMPI PUSH2 0xB8F SWAP1 CALLDATASIZE SWAP1 PUSH1 0x4 ADD PUSH2 0x511 JUMP JUMPDEST SWAP1 PUSH2 0xB98 PUSH2 0x176B JUMP JUMPDEST PUSH1 0x1 PUSH1 0x1 PUSH1 0xA0 SHL SUB DUP2 AND PUSH1 0x0 SWAP1 DUP2 MSTORE PUSH1 0x5 PUSH1 0x20 MSTORE PUSH1 0x40 SWAP1 KECCAK256 PUSH1 0x2 DUP2 ADD DUP1 SLOAD SWAP2 PUSH2 0xBC3 PUSH1 0x5 DUP5 LT PUSH2 0x1512 JUMP JUMPDEST PUSH2 0xBDE PUSH2 0xBCF DUP5 PUSH2 0x157F JUMP JUMPDEST SWAP6 DUP7 SWAP5 PUSH2 0xC26 JUMPI JUMPDEST DUP5 DUP7 PUSH2 0x177F JUMP JUMPDEST PUSH2 0xBF2 DUP4 PUSH1 0x0 MSTORE PUSH1 0x6 PUSH1 0x20 MSTORE PUSH1 0x40 PUSH1 0x0 KECCAK256 SWAP1 JUMP JUMPDEST SLOAD SWAP1 SSTORE SSTORE PUSH1 0x1 PUSH1 0x1 PUSH1 0xA0 SHL SUB AND PUSH32 0x4CC0A9C4A99DDC700DE1AF2C9F916A7CBFDB71F14801CCFF94061AD1EF8A8040 PUSH1 0x0 DUP1 LOG3 STOP JUMPDEST PUSH2 0xC45 PUSH2 0xC3D DUP7 PUSH1 0x0 MSTORE PUSH1 0x7 PUSH1 0x20 MSTORE PUSH1 0x40 PUSH1 0x0 KECCAK256 SWAP1 JUMP JUMPDEST SLOAD CALLVALUE EQ PUSH2 0x159F JUMP JUMPDEST PUSH2 0xC6F PUSH1 0x0 DUP1 DUP1 DUP1 CALLVALUE PUSH2 0xC5F PUSH1 0x9 SLOAD PUSH1 0x1 DUP1 PUSH1 0xA0 SHL SUB AND SWAP1 JUMP JUMPDEST GAS CALL PUSH2 0xC69 PUSH2 0x15E5 JUMP JUMPDEST POP PUSH2 0x1615 JUMP JUMPDEST PUSH1 0x9 SLOAD PUSH1 0x40 MLOAD CALLVALUE DUP2 MSTORE PUSH1 0x1 PUSH1 0x1 PUSH1 0xA0 SHL SUB SWAP1 SWAP2 AND SWAP1 PUSH1 0x0 SWAP1 PUSH32 0xA92FF919B850E4909AB2261D907EF955F11BC1716733A6CBECE38D163A69AF8A SWAP1 PUSH1 0x20 SWAP1 LOG3 PUSH2 0xBD7 JUMP JUMPDEST CALLVALUE PUSH2 0x1EC JUMPI PUSH1 0x20 CALLDATASIZE PUSH1 0x3 NOT ADD SLT PUSH2 0x1EC JUMPI PUSH1 0x4 CALLDATALOAD PUSH1 0x0 MSTORE PUSH1 0x7 PUSH1 0x20 MSTORE PUSH1 0x20 PUSH1 0x40 PUSH1 0x0 KECCAK256 SLOAD PUSH1 0x40 MLOAD SWAP1 DUP2 MSTORE RETURN JUMPDEST CALLVALUE PUSH2 0x1EC JUMPI PUSH1 0xC0 CALLDATASIZE PUSH1 0x3 NOT ADD SLT PUSH2 0x1EC JUMPI PUSH1 0x4 CALLDATALOAD PUSH2 0xCFB DUP2 PUSH2 0x1DB JUMP JUMPDEST PUSH1 0x24 CALLDATALOAD SWAP1 PUSH1 0x1 PUSH1 0x1 PUSH1 0x40 SHL SUB SWAP1 PUSH1 0x44 CALLDATALOAD PUSH1 0x64 CALLDATALOAD DUP4 DUP2 GT PUSH2 0x1EC JUMPI PUSH2 0xD23 SWAP1 CALLDATASIZE SWAP1 PUSH1 0x4 ADD PUSH2 0x511 JUMP JUMPDEST SWAP3 PUSH1 0x84 CALLDATALOAD SWAP5 PUSH2 0xD31 DUP7 PUSH2 0x937 JUMP JUMPDEST PUSH1 0xA4 CALLDATALOAD SWAP2 DUP3 GT PUSH2 0x1EC JUMPI PUSH2 0xDDD PUSH2 0xDC0 PUSH2 0xD52 PUSH2 0xDE4 SWAP5 CALLDATASIZE SWAP1 PUSH1 0x4 ADD PUSH2 0x511 JUMP JUMPDEST CALLER PUSH1 0x0 MSTORE PUSH1 0x5 PUSH1 0x20 MSTORE PUSH2 0xDBB PUSH2 0xD8C DUP11 DUP11 DUP10 DUP9 PUSH1 0x40 PUSH1 0x0 KECCAK256 SWAP13 PUSH2 0xD87 PUSH2 0xD82 PUSH1 0xFF PUSH2 0xD7C DUP8 PUSH2 0xEE2 JUMP JUMPDEST SLOAD AND ISZERO SWAP1 JUMP JUMPDEST PUSH2 0x1671 JUMP JUMPDEST PUSH2 0x1478 JUMP JUMPDEST PUSH32 0x19457468657265756D205369676E6564204D6573736167653A0A333200000000 PUSH1 0x0 MSTORE PUSH1 0x1C MSTORE PUSH1 0x3C PUSH1 0x0 KECCAK256 SWAP1 JUMP JUMPDEST PUSH2 0x192B JUMP JUMPDEST PUSH1 0x3 SLOAD PUSH1 0x1 PUSH1 0x1 PUSH1 0xA0 SHL SUB AND PUSH1 0x1 PUSH1 0x1 PUSH1 0xA0 SHL SUB SWAP1 SWAP2 AND EQ PUSH2 0x16AD JUMP JUMPDEST DUP4 SLOAD PUSH2 0x16F3 JUMP JUMPDEST SWAP4 PUSH2 0xE45 JUMPI JUMPDEST POP PUSH2 0xE15 SWAP2 PUSH1 0x1 PUSH2 0xE08 SWAP3 ADD PUSH2 0xE01 DUP6 DUP3 SLOAD PUSH2 0x1592 JUMP JUMPDEST SWAP1 SSTORE PUSH2 0xEE2 JUMP JUMPDEST DUP1 SLOAD PUSH1 0xFF NOT AND PUSH1 0x1 OR SWAP1 SSTORE JUMP JUMPDEST PUSH1 0x40 MLOAD SWAP1 DUP2 MSTORE CALLER SWAP1 PUSH32 0xBA953728785DE35BE3827EE7A7A7867A8472947562602939440E6C0BDBF4725E SWAP1 PUSH1 0x20 SWAP1 LOG2 STOP JUMPDEST SWAP2 PUSH1 0x1 PUSH2 0xE77 PUSH2 0xE08 SWAP4 SWAP6 PUSH2 0xE71 DUP7 PUSH2 0xE62 PUSH2 0xE15 SWAP9 ISZERO ISZERO PUSH2 0x1706 JUMP JUMPDEST PUSH2 0xE6B DUP2 PUSH2 0x1941 JUMP JUMPDEST SWAP1 PUSH2 0x16F3 JUMP JUMPDEST SWAP1 PUSH2 0x1592 JUMP JUMPDEST SWAP5 SWAP3 POP POP SWAP2 PUSH2 0xDEA JUMP JUMPDEST CALLVALUE PUSH2 0x1EC JUMPI PUSH1 0x0 CALLDATASIZE PUSH1 0x3 NOT ADD SLT PUSH2 0x1EC JUMPI PUSH1 0x20 PUSH1 0x40 MLOAD PUSH1 0x1 DUP2 MSTORE RETURN JUMPDEST CALLVALUE PUSH2 0x1EC JUMPI PUSH1 0x0 CALLDATASIZE PUSH1 0x3 NOT ADD SLT PUSH2 0x1EC JUMPI PUSH1 0x4 SLOAD PUSH1 0x40 MLOAD PUSH1 0x1 PUSH1 0x1 PUSH1 0xA0 SHL SUB SWAP1 SWAP2 AND DUP2 MSTORE PUSH1 0x20 SWAP1 RETURN JUMPDEST CALLVALUE PUSH2 0x1EC JUMPI PUSH1 0x0 CALLDATASIZE PUSH1 0x3 NOT ADD SLT PUSH2 0x1EC JUMPI PUSH1 0x20 PUSH1 0x40 MLOAD PUSH1 0x2 DUP2 MSTORE RETURN JUMPDEST PUSH1 0x20 PUSH2 0xEFB SWAP2 DUP2 PUSH1 0x40 MLOAD SWAP4 DUP3 DUP6 DUP1 SWAP5 MLOAD SWAP4 DUP5 SWAP3 ADD PUSH2 0x2C2 JUMP JUMPDEST DUP2 ADD PUSH1 0x8 DUP2 MSTORE SUB ADD SWAP1 KECCAK256 SWAP1 JUMP JUMPDEST CALLVALUE PUSH2 0x1EC JUMPI PUSH1 0x20 CALLDATASIZE PUSH1 0x3 NOT ADD SLT PUSH2 0x1EC JUMPI PUSH1 0x4 CALLDATALOAD PUSH1 0x1 PUSH1 0x1 PUSH1 0x40 SHL SUB DUP2 GT PUSH2 0x1EC JUMPI PUSH1 0xFF PUSH2 0xF44 PUSH2 0xF3F PUSH1 0x20 SWAP4 CALLDATASIZE SWAP1 PUSH1 0x4 ADD PUSH2 0x511 JUMP JUMPDEST PUSH2 0xEE2 JUMP JUMPDEST SLOAD AND PUSH1 0x40 MLOAD SWAP1 ISZERO ISZERO DUP2 MSTORE RETURN JUMPDEST CALLVALUE PUSH2 0x1EC JUMPI PUSH1 0x40 CALLDATASIZE PUSH1 0x3 NOT ADD SLT PUSH2 0x1EC JUMPI PUSH1 0x20 PUSH1 0xFF PUSH2 0xF44 PUSH1 0x4 CALLDATALOAD PUSH2 0xF74 DUP2 PUSH2 0x1DB JUMP JUMPDEST PUSH1 0x24 CALLDATALOAD SWAP1 PUSH2 0xF81 DUP3 PUSH2 0x1DB JUMP JUMPDEST PUSH1 0x1 DUP1 PUSH1 0xA0 SHL SUB AND PUSH1 0x0 MSTORE PUSH1 0x1 DUP5 MSTORE PUSH1 0x40 PUSH1 0x0 KECCAK256 SWAP1 PUSH1 0x1 DUP1 PUSH1 0xA0 SHL SUB AND PUSH1 0x0 MSTORE PUSH1 0x20 MSTORE PUSH1 0x40 PUSH1 0x0 KECCAK256 SWAP1 JUMP JUMPDEST CALLVALUE PUSH2 0x1EC JUMPI PUSH1 0x20 CALLDATASIZE PUSH1 0x3 NOT ADD SLT PUSH2 0x1EC JUMPI PUSH1 0x4 CALLDATALOAD PUSH2 0xFC9 DUP2 PUSH2 0x1DB JUMP JUMPDEST PUSH2 0xFD1 PUSH2 0x176B JUMP JUMPDEST PUSH1 0x1 PUSH1 0x1 PUSH1 0xA0 SHL SUB AND DUP1 ISZERO PUSH2 0xFF6 JUMPI PUSH1 0x9 DUP1 SLOAD PUSH1 0x1 PUSH1 0x1 PUSH1 0xA0 SHL SUB NOT AND SWAP2 SWAP1 SWAP2 OR SWAP1 SSTORE STOP JUMPDEST PUSH1 0x40 MLOAD PUSH3 0x461BCD PUSH1 0xE5 SHL DUP2 MSTORE PUSH1 0x20 PUSH1 0x4 DUP3 ADD MSTORE PUSH1 0x1F PUSH1 0x24 DUP3 ADD MSTORE PUSH32 0x496E76616C6964206D756C74697369672077616C6C6574206164647265737300 PUSH1 0x44 DUP3 ADD MSTORE PUSH1 0x64 SWAP1 REVERT JUMPDEST CALLVALUE PUSH2 0x1EC JUMPI PUSH1 0xA0 CALLDATASIZE PUSH1 0x3 NOT ADD SLT PUSH2 0x1EC JUMPI PUSH2 0x1057 PUSH1 0x4 CALLDATALOAD PUSH2 0x1DB JUMP JUMPDEST PUSH2 0x1062 PUSH1 0x24 CALLDATALOAD PUSH2 0x1DB JUMP JUMPDEST PUSH1 0x84 CALLDATALOAD PUSH1 0x1 PUSH1 0x1 PUSH1 0x40 SHL SUB DUP2 GT PUSH2 0x1EC JUMPI PUSH2 0x1081 SWAP1 CALLDATASIZE SWAP1 PUSH1 0x4 ADD PUSH2 0x511 JUMP JUMPDEST POP PUSH1 0x40 MLOAD PUSH3 0x461BCD PUSH1 0xE5 SHL DUP2 MSTORE PUSH1 0x20 PUSH1 0x4 DUP3 ADD MSTORE PUSH1 0x19 PUSH1 0x24 DUP3 ADD MSTORE PUSH25 0x151C985B9CD9995C9CC8185C99481B9BDD08185B1B1BDDD959 PUSH1 0x3A SHL PUSH1 0x44 DUP3 ADD MSTORE PUSH1 0x64 SWAP1 REVERT JUMPDEST CALLVALUE PUSH2 0x1EC JUMPI PUSH1 0x20 CALLDATASIZE PUSH1 0x3 NOT ADD SLT PUSH2 0x1EC JUMPI PUSH1 0x4 CALLDATALOAD PUSH2 0x10E0 DUP2 PUSH2 0x1DB JUMP JUMPDEST PUSH2 0x10E8 PUSH2 0x176B JUMP JUMPDEST PUSH1 0x4 DUP1 SLOAD PUSH1 0x1 PUSH1 0x1 PUSH1 0xA0 SHL SUB NOT AND PUSH1 0x1 PUSH1 0x1 PUSH1 0xA0 SHL SUB SWAP3 DUP4 AND SWAP1 DUP2 OR SWAP1 SWAP2 SSTORE PUSH1 0x3 SLOAD SWAP1 SWAP2 AND PUSH32 0x38D16B8CAC22D99FC7C124B9CD0DE2D3FA1FAEF420BFE791D8C362D765E22700 PUSH1 0x0 DUP1 LOG3 STOP JUMPDEST CALLVALUE PUSH2 0x1EC JUMPI PUSH1 0x20 CALLDATASIZE PUSH1 0x3 NOT ADD SLT PUSH2 0x1EC JUMPI PUSH1 0x4 CALLDATALOAD PUSH1 0x0 MSTORE PUSH1 0x6 PUSH1 0x20 MSTORE PUSH1 0x20 PUSH1 0x40 PUSH1 0x0 KECCAK256 SLOAD PUSH1 0x40 MLOAD SWAP1 DUP2 MSTORE RETURN JUMPDEST PUSH1 0x40 MLOAD PUSH3 0x461BCD PUSH1 0xE5 SHL DUP2 MSTORE PUSH1 0x20 PUSH1 0x4 DUP3 ADD MSTORE PUSH1 0x19 PUSH1 0x24 DUP3 ADD MSTORE PUSH25 0x151C985B9CD9995C9CC8185C99481B9BDD08185B1B1BDDD959 PUSH1 0x3A SHL PUSH1 0x44 DUP3 ADD MSTORE PUSH1 0x64 SWAP1 REVERT JUMPDEST ISZERO PUSH2 0x11A8 JUMPI JUMP JUMPDEST PUSH1 0x40 MLOAD PUSH3 0x461BCD PUSH1 0xE5 SHL DUP2 MSTORE PUSH1 0x20 PUSH1 0x4 DUP3 ADD MSTORE PUSH1 0x15 PUSH1 0x24 DUP3 ADD MSTORE PUSH21 0x496E76616C696420746F6B656E2061646472657373 PUSH1 0x58 SHL PUSH1 0x44 DUP3 ADD MSTORE PUSH1 0x64 SWAP1 REVERT JUMPDEST ISZERO PUSH2 0x11EC JUMPI JUMP JUMPDEST PUSH1 0x40 MLOAD PUSH3 0x461BCD PUSH1 0xE5 SHL DUP2 MSTORE PUSH1 0x20 PUSH1 0x4 DUP3 ADD MSTORE PUSH1 0x19 PUSH1 0x24 DUP3 ADD MSTORE PUSH25 0x496E76616C696420726563697069656E742061646472657373 PUSH1 0x38 SHL PUSH1 0x44 DUP3 ADD MSTORE PUSH1 0x64 SWAP1 REVERT JUMPDEST ISZERO PUSH2 0x1234 JUMPI JUMP JUMPDEST PUSH1 0x64 PUSH1 0x40 MLOAD PUSH3 0x461BCD PUSH1 0xE5 SHL DUP2 MSTORE PUSH1 0x20 PUSH1 0x4 DUP3 ADD MSTORE PUSH1 0x20 PUSH1 0x24 DUP3 ADD MSTORE PUSH32 0x416D6F756E74206D7573742062652067726561746572207468616E207A65726F PUSH1 0x44 DUP3 ADD MSTORE REVERT JUMPDEST SWAP1 DUP2 PUSH1 0x20 SWAP2 SUB SLT PUSH2 0x1EC JUMPI MLOAD SWAP1 JUMP JUMPDEST PUSH1 0x40 MLOAD RETURNDATASIZE PUSH1 0x0 DUP3 RETURNDATACOPY RETURNDATASIZE SWAP1 REVERT JUMPDEST ISZERO PUSH2 0x129A JUMPI JUMP JUMPDEST PUSH1 0x40 MLOAD PUSH3 0x461BCD PUSH1 0xE5 SHL DUP2 MSTORE PUSH1 0x20 PUSH1 0x4 DUP3 ADD MSTORE PUSH1 0x1A PUSH1 0x24 DUP3 ADD MSTORE PUSH32 0x496E73756666696369656E7420746F6B656E2062616C616E6365000000000000 PUSH1 0x44 DUP3 ADD MSTORE PUSH1 0x64 SWAP1 REVERT JUMPDEST SWAP1 DUP2 PUSH1 0x20 SWAP2 SUB SLT PUSH2 0x1EC JUMPI MLOAD PUSH2 0x31B DUP2 PUSH2 0x937 JUMP JUMPDEST ISZERO PUSH2 0x12FB JUMPI JUMP JUMPDEST PUSH1 0x40 MLOAD PUSH3 0x461BCD PUSH1 0xE5 SHL DUP2 MSTORE PUSH1 0x20 PUSH1 0x4 DUP3 ADD MSTORE PUSH1 0x15 PUSH1 0x24 DUP3 ADD MSTORE PUSH21 0x151BDAD95B881D1C985B9CD9995C8819985A5B1959 PUSH1 0x5A SHL PUSH1 0x44 DUP3 ADD MSTORE PUSH1 0x64 SWAP1 REVERT JUMPDEST DUP1 MLOAD DUP3 LT ISZERO PUSH2 0x134C JUMPI PUSH1 0x20 SWAP2 PUSH1 0x5 SHL ADD ADD SWAP1 JUMP JUMPDEST PUSH4 0x4E487B71 PUSH1 0xE0 SHL PUSH1 0x0 MSTORE PUSH1 0x32 PUSH1 0x4 MSTORE PUSH1 0x24 PUSH1 0x0 REVERT JUMPDEST SWAP2 SWAP1 SWAP2 DUP1 MLOAD DUP4 MLOAD DUP1 DUP3 SUB PUSH2 0x13FF JUMPI POP POP DUP1 MLOAD SWAP1 PUSH2 0x1397 PUSH2 0x1381 DUP4 PUSH2 0x47F JUMP JUMPDEST SWAP3 PUSH2 0x138F PUSH1 0x40 MLOAD SWAP5 DUP6 PUSH2 0x459 JUMP JUMPDEST DUP1 DUP5 MSTORE PUSH2 0x47F JUMP JUMPDEST PUSH1 0x20 SWAP2 SWAP1 PUSH1 0x1F NOT ADD CALLDATASIZE DUP5 DUP5 ADD CALLDATACOPY PUSH1 0x0 JUMPDEST DUP2 MLOAD DUP2 LT ISZERO PUSH2 0x13F7 JUMPI PUSH1 0x5 DUP2 SWAP1 SHL DUP3 DUP2 ADD DUP5 ADD MLOAD SWAP1 DUP8 ADD DUP5 ADD MLOAD PUSH1 0x0 SWAP1 DUP2 MSTORE PUSH1 0x20 DUP2 DUP2 MSTORE PUSH1 0x40 DUP1 DUP4 KECCAK256 PUSH1 0x1 PUSH1 0x1 PUSH1 0xA0 SHL SUB SWAP1 SWAP5 AND DUP4 MSTORE SWAP3 SWAP1 MSTORE KECCAK256 SLOAD PUSH1 0x1 SWAP2 SWAP1 PUSH2 0x13F0 DUP3 DUP8 PUSH2 0x1338 JUMP JUMPDEST MSTORE ADD PUSH2 0x13A7 JUMP JUMPDEST POP SWAP2 SWAP4 POP POP POP JUMP JUMPDEST PUSH1 0x40 MLOAD PUSH4 0x5B059991 PUSH1 0xE0 SHL DUP2 MSTORE PUSH1 0x4 DUP2 ADD SWAP2 SWAP1 SWAP2 MSTORE PUSH1 0x24 DUP2 ADD SWAP2 SWAP1 SWAP2 MSTORE PUSH1 0x44 SWAP1 REVERT JUMPDEST SWAP1 SWAP4 SWAP2 SWAP3 PUSH1 0x89 SWAP8 SWAP6 SWAP7 SWAP4 PUSH1 0x1 PUSH1 0x1 PUSH1 0x60 SHL SUB NOT DUP1 SWAP7 PUSH1 0x60 SHL AND DUP4 MSTORE PUSH1 0x14 DUP4 ADD MSTORE PUSH1 0x34 DUP3 ADD MSTORE PUSH2 0x145A DUP3 MLOAD DUP1 SWAP4 PUSH1 0x20 PUSH1 0x54 DUP6 ADD SWAP2 ADD PUSH2 0x2C2 JUMP JUMPDEST ADD SWAP4 ISZERO ISZERO PUSH1 0xF8 SHL PUSH1 0x54 DUP6 ADD MSTORE PUSH1 0x60 SHL AND PUSH1 0x55 DUP4 ADD MSTORE PUSH1 0x69 DUP3 ADD MSTORE ADD SWAP1 JUMP JUMPDEST SWAP2 SWAP4 SWAP3 SWAP2 DUP4 ISZERO PUSH2 0x14B4 JUMPI PUSH2 0x14AE SWAP3 SWAP2 PUSH2 0x14A0 SWAP2 PUSH1 0x40 MLOAD SWAP6 DUP7 SWAP5 PUSH1 0x20 DUP7 ADD SWAP9 CHAINID SWAP5 ADDRESS SWAP5 DUP12 PUSH2 0x1421 JUMP JUMPDEST SUB PUSH1 0x1F NOT DUP2 ADD DUP4 MSTORE DUP3 PUSH2 0x459 JUMP JUMPDEST MLOAD SWAP1 KECCAK256 SWAP1 JUMP JUMPDEST SWAP4 POP PUSH2 0x14AE SWAP2 SWAP3 POP PUSH1 0x88 SWAP1 PUSH1 0x40 MLOAD SWAP4 DUP5 SWAP2 PUSH1 0x20 DUP4 ADD SWAP7 PUSH1 0x1 PUSH1 0x1 PUSH1 0x60 SHL SUB NOT SWAP1 PUSH1 0x60 SHL AND DUP8 MSTORE PUSH1 0x34 DUP4 ADD MSTORE PUSH2 0x14F3 DUP2 MLOAD DUP1 SWAP3 PUSH1 0x20 PUSH1 0x54 DUP7 ADD SWAP2 ADD PUSH2 0x2C2 JUMP JUMPDEST DUP2 ADD ADDRESS PUSH1 0x60 SHL PUSH1 0x54 DUP3 ADD MSTORE CHAINID PUSH1 0x68 DUP3 ADD MSTORE SUB PUSH1 0x68 DUP2 ADD DUP5 MSTORE ADD DUP3 PUSH2 0x459 JUMP JUMPDEST ISZERO PUSH2 0x1519 JUMPI JUMP JUMPDEST PUSH1 0x40 MLOAD PUSH3 0x461BCD PUSH1 0xE5 SHL DUP2 MSTORE PUSH1 0x20 PUSH1 0x4 DUP3 ADD MSTORE PUSH1 0x22 PUSH1 0x24 DUP3 ADD MSTORE PUSH32 0x596F752068617665207265616368656420746865206D6178696D756D206C6576 PUSH1 0x44 DUP3 ADD MSTORE PUSH2 0x195B PUSH1 0xF2 SHL PUSH1 0x64 DUP3 ADD MSTORE PUSH1 0x84 SWAP1 REVERT JUMPDEST PUSH4 0x4E487B71 PUSH1 0xE0 SHL PUSH1 0x0 MSTORE PUSH1 0x11 PUSH1 0x4 MSTORE PUSH1 0x24 PUSH1 0x0 REVERT JUMPDEST SWAP1 PUSH1 0x1 DUP3 ADD DUP1 SWAP3 GT PUSH2 0x158D JUMPI JUMP JUMPDEST PUSH2 0x1569 JUMP JUMPDEST SWAP2 SWAP1 DUP3 ADD DUP1 SWAP3 GT PUSH2 0x158D JUMPI JUMP JUMPDEST ISZERO PUSH2 0x15A6 JUMPI JUMP JUMPDEST PUSH1 0x40 MLOAD PUSH3 0x461BCD PUSH1 0xE5 SHL DUP2 MSTORE PUSH1 0x20 PUSH1 0x4 DUP3 ADD MSTORE PUSH1 0x17 PUSH1 0x24 DUP3 ADD MSTORE PUSH23 0x125B9CDD59999A58DA595B9D08199D5B991CC81CD95B9D PUSH1 0x4A SHL PUSH1 0x44 DUP3 ADD MSTORE PUSH1 0x64 SWAP1 REVERT JUMPDEST RETURNDATASIZE ISZERO PUSH2 0x1610 JUMPI RETURNDATASIZE SWAP1 PUSH2 0x15F6 DUP3 PUSH2 0x4F6 JUMP JUMPDEST SWAP2 PUSH2 0x1604 PUSH1 0x40 MLOAD SWAP4 DUP5 PUSH2 0x459 JUMP JUMPDEST DUP3 MSTORE RETURNDATASIZE PUSH1 0x0 PUSH1 0x20 DUP5 ADD RETURNDATACOPY JUMP JUMPDEST PUSH1 0x60 SWAP1 JUMP JUMPDEST ISZERO PUSH2 0x161C JUMPI JUMP JUMPDEST PUSH1 0x40 MLOAD PUSH3 0x461BCD PUSH1 0xE5 SHL DUP2 MSTORE PUSH1 0x20 PUSH1 0x4 DUP3 ADD MSTORE PUSH1 0x27 PUSH1 0x24 DUP3 ADD MSTORE PUSH32 0x4661696C656420746F2073656E642066756E647320746F206D756C7469736967 PUSH1 0x44 DUP3 ADD MSTORE PUSH7 0x81DD85B1B195D PUSH1 0xCA SHL PUSH1 0x64 DUP3 ADD MSTORE PUSH1 0x84 SWAP1 REVERT JUMPDEST ISZERO PUSH2 0x1678 JUMPI JUMP JUMPDEST PUSH1 0x40 MLOAD PUSH3 0x461BCD PUSH1 0xE5 SHL DUP2 MSTORE PUSH1 0x20 PUSH1 0x4 DUP3 ADD MSTORE PUSH1 0xD PUSH1 0x24 DUP3 ADD MSTORE PUSH13 0x496E76616C6964206E6F6E6365 PUSH1 0x98 SHL PUSH1 0x44 DUP3 ADD MSTORE PUSH1 0x64 SWAP1 REVERT JUMPDEST ISZERO PUSH2 0x16B4 JUMPI JUMP JUMPDEST PUSH1 0x40 MLOAD PUSH3 0x461BCD PUSH1 0xE5 SHL DUP2 MSTORE PUSH1 0x20 PUSH1 0x4 DUP3 ADD MSTORE PUSH1 0x17 PUSH1 0x24 DUP3 ADD MSTORE PUSH23 0x496E76616C69642061646D696E207369676E6174757265 PUSH1 0x48 SHL PUSH1 0x44 DUP3 ADD MSTORE PUSH1 0x64 SWAP1 REVERT JUMPDEST DUP2 DUP2 MUL SWAP3 SWAP2 DUP2 ISZERO SWAP2 DUP5 DIV EQ OR ISZERO PUSH2 0x158D JUMPI JUMP JUMPDEST ISZERO PUSH2 0x170D JUMPI JUMP JUMPDEST PUSH1 0x40 MLOAD PUSH3 0x461BCD PUSH1 0xE5 SHL DUP2 MSTORE PUSH1 0x20 PUSH1 0x4 DUP3 ADD MSTORE PUSH1 0x30 PUSH1 0x24 DUP3 ADD MSTORE PUSH32 0x4E756D626572206F66207061727469636970616E7473206D7573742062652067 PUSH1 0x44 DUP3 ADD MSTORE PUSH16 0x726561746572207468616E207A65726F PUSH1 0x80 SHL PUSH1 0x64 DUP3 ADD MSTORE PUSH1 0x84 SWAP1 REVERT JUMPDEST PUSH1 0x3 SLOAD PUSH1 0x1 PUSH1 0x1 PUSH1 0xA0 SHL SUB AND CALLER SUB PUSH2 0xA0F JUMPI JUMP JUMPDEST SWAP1 SWAP2 SWAP1 PUSH1 0x1 PUSH1 0x1 PUSH1 0xA0 SHL SUB DUP2 AND DUP1 ISZERO PUSH2 0x1912 JUMPI PUSH1 0x40 MLOAD SWAP1 PUSH1 0x1 SWAP2 DUP3 DUP2 MSTORE PUSH1 0x20 SWAP3 PUSH1 0x20 DUP3 ADD SWAP7 DUP8 MSTORE PUSH1 0x40 DUP3 ADD SWAP3 DUP2 DUP5 MSTORE PUSH1 0x60 SWAP5 PUSH1 0x60 DUP5 ADD SWAP6 DUP4 DUP8 MSTORE PUSH1 0x80 DUP6 ADD DUP1 PUSH1 0x40 MSTORE DUP6 MLOAD DUP8 MLOAD DUP1 DUP3 SUB PUSH2 0x18F6 JUMPI POP POP POP SWAP1 DUP4 SWAP2 DUP3 PUSH1 0x0 SWAP1 JUMPDEST PUSH2 0x1895 JUMPI JUMPDEST POP POP POP DUP4 MLOAD EQ PUSH1 0x0 EQ PUSH2 0x1859 JUMPI PUSH1 0x0 DUP9 MLOAD PUSH32 0xC3D58168C5AE7397731D063D5BBF3D657854427343F4C083240F7AACAA2D0F62 PUSH2 0x182E DUP9 MLOAD PUSH1 0x40 MLOAD SWAP2 DUP3 SWAP2 CALLER SWAP6 DUP4 PUSH1 0x20 SWAP1 SWAP4 SWAP3 SWAP2 SWAP4 PUSH1 0x40 DUP2 ADD SWAP5 DUP2 MSTORE ADD MSTORE JUMP JUMPDEST SUB SWAP1 LOG4 JUMPDEST DUP2 MLOAD SUB PUSH2 0x184B JUMPI POP POP PUSH2 0x1849 SWAP4 MLOAD SWAP1 MLOAD SWAP2 CALLER PUSH2 0x1CB2 JUMP JUMPDEST JUMP JUMPDEST SWAP2 POP SWAP2 PUSH2 0x1849 SWAP5 POP CALLER PUSH2 0x1B85 JUMP JUMPDEST PUSH1 0x0 PUSH1 0x40 MLOAD PUSH32 0x4A39DC06D4C0DBC64B70AF90FD698A233A518AA5D07E595D983B8C0526C8F7FB CALLER SWAP2 DUP1 PUSH2 0x188D DUP10 DUP10 DUP4 PUSH2 0x1B00 JUMP JUMPDEST SUB SWAP1 LOG4 PUSH2 0x1832 JUMP JUMPDEST DUP7 MLOAD DUP2 LT ISZERO PUSH2 0x18F1 JUMPI DUP1 DUP5 SWAP2 PUSH1 0x5 SHL DUP9 ADD PUSH2 0x18E8 PUSH2 0x18E0 DUP14 PUSH2 0x18C9 DUP8 DUP10 DUP7 ADD MLOAD SWAP6 ADD MLOAD SWAP5 PUSH1 0x0 MSTORE PUSH1 0x0 PUSH1 0x20 MSTORE PUSH1 0x40 PUSH1 0x0 KECCAK256 SWAP1 JUMP JUMPDEST SWAP1 PUSH1 0x1 DUP1 PUSH1 0xA0 SHL SUB AND PUSH1 0x0 MSTORE PUSH1 0x20 MSTORE PUSH1 0x40 PUSH1 0x0 KECCAK256 SWAP1 JUMP JUMPDEST SWAP2 DUP3 SLOAD PUSH2 0x1592 JUMP JUMPDEST SWAP1 SSTORE ADD DUP4 PUSH2 0x17D7 JUMP JUMPDEST PUSH2 0x17DC JUMP JUMPDEST PUSH4 0x5B059991 PUSH1 0xE0 SHL DUP4 MSTORE PUSH1 0x84 DUP9 ADD SWAP2 SWAP1 SWAP2 MSTORE PUSH1 0xA4 DUP8 ADD MSTORE PUSH1 0x44 SWAP1 REVERT JUMPDEST PUSH1 0x40 MLOAD PUSH4 0x2BFA23E7 PUSH1 0xE1 SHL DUP2 MSTORE PUSH1 0x0 PUSH1 0x4 DUP3 ADD MSTORE PUSH1 0x24 SWAP1 REVERT JUMPDEST PUSH2 0x31B SWAP2 PUSH2 0x1938 SWAP2 PUSH2 0x1A17 JUMP JUMPDEST SWAP1 SWAP3 SWAP2 SWAP3 PUSH2 0x1A73 JUMP JUMPDEST PUSH1 0x0 SWAP1 PUSH19 0x184F03E93FF9F4DAA797ED6E38ED64BF6A1F01 PUSH1 0x40 SHL DUP1 DUP3 LT ISZERO PUSH2 0x1A0A JUMPI JUMPDEST POP PUSH1 0xA SWAP1 PUSH14 0x4EE2D6D415B85ACEF8100000000 DUP1 DUP3 LT ISZERO PUSH2 0x19FD JUMPI JUMPDEST POP PUSH7 0x2386F26FC10000 DUP1 DUP3 LT ISZERO PUSH2 0x19F0 JUMPI JUMPDEST POP PUSH4 0x5F5E100 DUP1 DUP3 LT ISZERO PUSH2 0x19E3 JUMPI JUMPDEST POP PUSH2 0x2710 DUP1 DUP3 LT ISZERO PUSH2 0x19D6 JUMPI JUMPDEST POP PUSH1 0x64 DUP2 LT ISZERO PUSH2 0x19C8 JUMPI JUMPDEST LT ISZERO PUSH2 0x19C2 JUMPI SWAP1 JUMP JUMPDEST PUSH1 0x1 ADD SWAP1 JUMP JUMPDEST PUSH1 0x64 PUSH1 0x2 SWAP2 DIV SWAP3 ADD SWAP2 PUSH2 0x19B9 JUMP JUMPDEST PUSH1 0x4 SWAP2 DIV SWAP3 ADD SWAP2 CODESIZE PUSH2 0x19AE JUMP JUMPDEST PUSH1 0x8 SWAP2 DIV SWAP3 ADD SWAP2 CODESIZE PUSH2 0x19A1 JUMP JUMPDEST PUSH1 0x10 SWAP2 DIV SWAP3 ADD SWAP2 CODESIZE PUSH2 0x1992 JUMP JUMPDEST PUSH1 0x20 SWAP2 DIV SWAP3 ADD SWAP2 CODESIZE PUSH2 0x1980 JUMP JUMPDEST PUSH1 0x40 SWAP3 POP SWAP1 DIV PUSH1 0xA PUSH2 0x1964 JUMP JUMPDEST DUP2 MLOAD SWAP2 SWAP1 PUSH1 0x41 DUP4 SUB PUSH2 0x1A48 JUMPI PUSH2 0x1A41 SWAP3 POP PUSH1 0x20 DUP3 ADD MLOAD SWAP1 PUSH1 0x60 PUSH1 0x40 DUP5 ADD MLOAD SWAP4 ADD MLOAD PUSH1 0x0 BYTE SWAP1 PUSH2 0x1CE7 JUMP JUMPDEST SWAP2 SWAP3 SWAP1 SWAP2 SWAP1 JUMP JUMPDEST POP POP PUSH1 0x0 SWAP2 PUSH1 0x2 SWAP2 SWAP1 JUMP JUMPDEST PUSH1 0x4 GT ISZERO PUSH2 0x1A5D JUMPI JUMP JUMPDEST PUSH4 0x4E487B71 PUSH1 0xE0 SHL PUSH1 0x0 MSTORE PUSH1 0x21 PUSH1 0x4 MSTORE PUSH1 0x24 PUSH1 0x0 REVERT JUMPDEST PUSH2 0x1A7C DUP2 PUSH2 0x1A53 JUMP JUMPDEST DUP1 PUSH2 0x1A85 JUMPI POP POP JUMP JUMPDEST PUSH2 0x1A8E DUP2 PUSH2 0x1A53 JUMP JUMPDEST PUSH1 0x1 DUP2 SUB PUSH2 0x1AA8 JUMPI PUSH1 0x40 MLOAD PUSH4 0xF645EEDF PUSH1 0xE0 SHL DUP2 MSTORE PUSH1 0x4 SWAP1 REVERT JUMPDEST PUSH2 0x1AB1 DUP2 PUSH2 0x1A53 JUMP JUMPDEST PUSH1 0x2 DUP2 SUB PUSH2 0x1AD2 JUMPI PUSH1 0x40 MLOAD PUSH4 0xFCE698F7 PUSH1 0xE0 SHL DUP2 MSTORE PUSH1 0x4 DUP2 ADD DUP4 SWAP1 MSTORE PUSH1 0x24 SWAP1 REVERT JUMPDEST DUP1 PUSH2 0x1ADE PUSH1 0x3 SWAP3 PUSH2 0x1A53 JUMP JUMPDEST EQ PUSH2 0x1AE6 JUMPI POP JUMP JUMPDEST PUSH1 0x40 MLOAD PUSH4 0x35E2F383 PUSH1 0xE2 SHL DUP2 MSTORE PUSH1 0x4 DUP2 ADD SWAP2 SWAP1 SWAP2 MSTORE PUSH1 0x24 SWAP1 REVERT JUMPDEST SWAP1 SWAP2 PUSH2 0x1B17 PUSH2 0x31B SWAP4 PUSH1 0x40 DUP5 MSTORE PUSH1 0x40 DUP5 ADD SWAP1 PUSH2 0x7AF JUMP JUMPDEST SWAP2 PUSH1 0x20 DUP2 DUP5 SUB SWAP2 ADD MSTORE PUSH2 0x7AF JUMP JUMPDEST SWAP1 DUP2 PUSH1 0x20 SWAP2 SUB SLT PUSH2 0x1EC JUMPI MLOAD PUSH2 0x31B DUP2 PUSH2 0x242 JUMP JUMPDEST SWAP3 PUSH2 0x1B69 PUSH2 0x31B SWAP6 SWAP4 PUSH2 0x1B77 SWAP4 PUSH1 0x1 DUP1 PUSH1 0xA0 SHL SUB AND DUP7 MSTORE PUSH1 0x0 PUSH1 0x20 DUP8 ADD MSTORE PUSH1 0xA0 PUSH1 0x40 DUP8 ADD MSTORE PUSH1 0xA0 DUP7 ADD SWAP1 PUSH2 0x7AF JUMP JUMPDEST SWAP1 DUP5 DUP3 SUB PUSH1 0x60 DUP7 ADD MSTORE PUSH2 0x7AF JUMP JUMPDEST SWAP2 PUSH1 0x80 DUP2 DUP5 SUB SWAP2 ADD MSTORE PUSH2 0x2E5 JUMP JUMPDEST SWAP3 SWAP4 SWAP2 SWAP1 SWAP4 DUP5 EXTCODESIZE PUSH2 0x1B98 JUMPI JUMPDEST POP POP POP POP POP JUMP JUMPDEST PUSH1 0x20 SWAP2 PUSH2 0x1BBB PUSH1 0x40 MLOAD SWAP5 DUP6 SWAP4 DUP5 SWAP4 PUSH4 0xBC197C81 PUSH1 0xE0 SHL SWAP9 DUP10 DUP7 MSTORE PUSH1 0x4 DUP7 ADD PUSH2 0x1B3A JUMP JUMPDEST SUB DUP2 PUSH1 0x0 PUSH1 0x1 PUSH1 0x1 PUSH1 0xA0 SHL SUB DUP9 AND GAS CALL PUSH1 0x0 SWAP2 DUP2 PUSH2 0x1C50 JUMPI JUMPDEST POP PUSH2 0x1C13 JUMPI DUP3 PUSH2 0x1BE2 PUSH2 0x15E5 JUMP JUMPDEST DUP1 MLOAD SWAP2 SWAP1 DUP3 PUSH2 0x1C0C JUMPI PUSH1 0x40 MLOAD PUSH4 0x2BFA23E7 PUSH1 0xE1 SHL DUP2 MSTORE PUSH1 0x1 PUSH1 0x1 PUSH1 0xA0 SHL SUB DUP4 AND PUSH1 0x4 DUP3 ADD MSTORE PUSH1 0x24 SWAP1 REVERT JUMPDEST SWAP1 POP PUSH1 0x20 ADD REVERT JUMPDEST PUSH1 0x1 PUSH1 0x1 PUSH1 0xE0 SHL SUB NOT AND SUB PUSH2 0x1C2D JUMPI POP CODESIZE DUP1 DUP1 DUP1 DUP1 PUSH2 0x1B91 JUMP JUMPDEST PUSH1 0x40 MLOAD PUSH4 0x2BFA23E7 PUSH1 0xE1 SHL DUP2 MSTORE PUSH1 0x1 PUSH1 0x1 PUSH1 0xA0 SHL SUB SWAP2 SWAP1 SWAP2 AND PUSH1 0x4 DUP3 ADD MSTORE PUSH1 0x24 SWAP1 REVERT JUMPDEST PUSH2 0x1C73 SWAP2 SWAP3 POP PUSH1 0x20 RETURNDATASIZE PUSH1 0x20 GT PUSH2 0x1C7A JUMPI JUMPDEST PUSH2 0x1C6B DUP2 DUP4 PUSH2 0x459 JUMP JUMPDEST DUP2 ADD SWAP1 PUSH2 0x1B25 JUMP JUMPDEST SWAP1 CODESIZE PUSH2 0x1BD4 JUMP JUMPDEST POP RETURNDATASIZE PUSH2 0x1C61 JUMP JUMPDEST SWAP1 SWAP3 PUSH1 0xA0 SWAP3 PUSH2 0x31B SWAP6 SWAP5 PUSH1 0x1 DUP1 DUP7 SHL SUB AND DUP4 MSTORE PUSH1 0x0 PUSH1 0x20 DUP5 ADD MSTORE PUSH1 0x40 DUP4 ADD MSTORE PUSH1 0x60 DUP3 ADD MSTORE DUP2 PUSH1 0x80 DUP3 ADD MSTORE ADD SWAP1 PUSH2 0x2E5 JUMP JUMPDEST SWAP3 SWAP4 SWAP2 SWAP1 SWAP4 DUP5 EXTCODESIZE PUSH2 0x1CC4 JUMPI POP POP POP POP POP JUMP JUMPDEST PUSH1 0x20 SWAP2 PUSH2 0x1BBB PUSH1 0x40 MLOAD SWAP5 DUP6 SWAP4 DUP5 SWAP4 PUSH4 0xF23A6E61 PUSH1 0xE0 SHL SWAP9 DUP10 DUP7 MSTORE PUSH1 0x4 DUP7 ADD PUSH2 0x1C81 JUMP JUMPDEST SWAP2 SWAP1 PUSH16 0xA2A8918CA85BAFE22016D0B997E4DF60 PUSH1 0x1 PUSH1 0xFF SHL SUB DUP5 GT PUSH2 0x1D55 JUMPI SWAP3 PUSH1 0x20 SWAP3 SWAP2 PUSH1 0xFF PUSH1 0x80 SWAP6 PUSH1 0x40 MLOAD SWAP5 DUP6 MSTORE AND DUP5 DUP5 ADD MSTORE PUSH1 0x40 DUP4 ADD MSTORE PUSH1 0x60 DUP3 ADD MSTORE PUSH1 0x0 SWAP3 DUP4 SWAP2 DUP3 DUP1 MSTORE PUSH1 0x1 GAS STATICCALL ISZERO PUSH2 0x754 JUMPI DUP1 MLOAD PUSH1 0x1 PUSH1 0x1 PUSH1 0xA0 SHL SUB DUP2 AND ISZERO PUSH2 0x1D4C JUMPI SWAP2 DUP2 SWAP1 JUMP JUMPDEST POP DUP1 SWAP2 PUSH1 0x1 SWAP2 SWAP1 JUMP JUMPDEST POP POP POP PUSH1 0x0 SWAP2 PUSH1 0x3 SWAP2 SWAP1 JUMP INVALID LOG2 PUSH5 0x6970667358 0x22 SLT KECCAK256 PUSH29 0xB697680AF939690A58EA3811A00313E9D62E7DE4DEFECBE50CC6A1989E LOG0 0xED PUSH5 0x736F6C6343 STOP ADDMOD XOR STOP CALLER "
        },
        "methodIdentifiers": {
          "BRONZE()": "e00fd543",
          "DIAMOND()": "206545c2",
          "GOLD()": "3e4bee38",
          "PLATINUM()": "56f0593a",
          "SILVER()": "e3e55f08",
          "acceptOwnership()": "79ba5097",
          "balanceOf(address,uint256)": "00fdd58e",
          "balanceOfBatch(address[],uint256[])": "4e1273f4",
          "claimPoints(address,uint256,uint256,string,bool,bytes)": "c3aac87e",
          "generatePoints(address,uint256,uint256,string,bool)": "7832cb64",
          "hashRates(uint256)": "f528d872",
          "isApprovedForAll(address,address)": "e985e9c5",
          "mint(address,bytes)": "b510391f",
          "multiSigWallet()": "4b8feb4f",
          "owner()": "8da5cb5b",
          "pendingOwner()": "e30c3978",
          "prices(uint256)": "bc31c1c1",
          "renounceOwnership()": "715018a6",
          "safeBatchTransferFrom(address,address,uint256[],uint256[],bytes)": "2eb2c2d6",
          "safeTransferFrom(address,address,uint256,uint256,bytes)": "f242432a",
          "setApprovalForAll(address,bool)": "a22cb465",
          "setMultiSigWallet(address)": "f03b0c0b",
          "supportsInterface(bytes4)": "01ffc9a7",
          "transferOwnership(address)": "f2fde38b",
          "uri(uint256)": "0e89341c",
          "usedNonces(string)": "e4f376f0",
          "users(address)": "a87430ba",
          "withdrawERC20(address,address,uint256)": "44004cc1"
        }
      }
    }
  }
}