{
  "contracts/PodyGift.sol": {
    "PodyGift": {
      "abi": [
        {
          "inputs": [
            {
              "internalType": "address",
              "name": "tokenAddress",
              "type": "address"
            },
            {
              "internalType": "uint256",
              "name": "initialFee",
              "type": "uint256"
            },
            {
              "internalType": "uint256",
              "name": "initialMinGiftAmount",
              "type": "uint256"
            },
            {
              "internalType": "uint256",
              "name": "initialMaxGiftAmount",
              "type": "uint256"
            },
            {
              "internalType": "uint256",
              "name": "initialMinEtherAmount",
              "type": "uint256"
            },
            {
              "internalType": "uint256",
              "name": "initialMaxEtherAmount",
              "type": "uint256"
            }
          ],
          "stateMutability": "nonpayable",
          "type": "constructor"
        },
        {
          "inputs": [
            {
              "internalType": "address",
              "name": "owner",
              "type": "address"
            }
          ],
          "name": "OwnableInvalidOwner",
          "type": "error"
        },
        {
          "inputs": [
            {
              "internalType": "address",
              "name": "account",
              "type": "address"
            }
          ],
          "name": "OwnableUnauthorizedAccount",
          "type": "error"
        },
        {
          "anonymous": false,
          "inputs": [
            {
              "indexed": false,
              "internalType": "uint256",
              "name": "newFee",
              "type": "uint256"
            }
          ],
          "name": "FeeUpdated",
          "type": "event"
        },
        {
          "anonymous": false,
          "inputs": [
            {
              "indexed": true,
              "internalType": "address",
              "name": "sender",
              "type": "address"
            },
            {
              "indexed": true,
              "internalType": "address",
              "name": "recipient",
              "type": "address"
            },
            {
              "indexed": false,
              "internalType": "address",
              "name": "tokenAddress",
              "type": "address"
            },
            {
              "indexed": false,
              "internalType": "uint256",
              "name": "amountSent",
              "type": "uint256"
            },
            {
              "indexed": false,
              "internalType": "uint256",
              "name": "commission",
              "type": "uint256"
            }
          ],
          "name": "GiftSent",
          "type": "event"
        },
        {
          "anonymous": false,
          "inputs": [
            {
              "indexed": false,
              "internalType": "uint256",
              "name": "newMinEtherAmount",
              "type": "uint256"
            },
            {
              "indexed": false,
              "internalType": "uint256",
              "name": "newMaxEtherAmount",
              "type": "uint256"
            }
          ],
          "name": "MinMaxEtherGiftAmountUpdated",
          "type": "event"
        },
        {
          "anonymous": false,
          "inputs": [
            {
              "indexed": false,
              "internalType": "address",
              "name": "tokenAddress",
              "type": "address"
            },
            {
              "indexed": false,
              "internalType": "uint256",
              "name": "newMinAmount",
              "type": "uint256"
            },
            {
              "indexed": false,
              "internalType": "uint256",
              "name": "newMaxAmount",
              "type": "uint256"
            }
          ],
          "name": "MinMaxGiftAmountUpdated",
          "type": "event"
        },
        {
          "anonymous": false,
          "inputs": [
            {
              "indexed": true,
              "internalType": "address",
              "name": "previousOwner",
              "type": "address"
            },
            {
              "indexed": true,
              "internalType": "address",
              "name": "newOwner",
              "type": "address"
            }
          ],
          "name": "OwnershipTransferStarted",
          "type": "event"
        },
        {
          "anonymous": false,
          "inputs": [
            {
              "indexed": true,
              "internalType": "address",
              "name": "previousOwner",
              "type": "address"
            },
            {
              "indexed": true,
              "internalType": "address",
              "name": "newOwner",
              "type": "address"
            }
          ],
          "name": "OwnershipTransferred",
          "type": "event"
        },
        {
          "anonymous": false,
          "inputs": [
            {
              "indexed": false,
              "internalType": "address",
              "name": "newTokenAddress",
              "type": "address"
            }
          ],
          "name": "TokenUpdated",
          "type": "event"
        },
        {
          "anonymous": false,
          "inputs": [
            {
              "indexed": false,
              "internalType": "address",
              "name": "tokenAddress",
              "type": "address"
            },
            {
              "indexed": false,
              "internalType": "bool",
              "name": "isWhitelisted",
              "type": "bool"
            }
          ],
          "name": "TokenWhitelisted",
          "type": "event"
        },
        {
          "inputs": [],
          "name": "acceptOwnership",
          "outputs": [],
          "stateMutability": "nonpayable",
          "type": "function"
        },
        {
          "inputs": [],
          "name": "commissionFee",
          "outputs": [
            {
              "internalType": "uint256",
              "name": "",
              "type": "uint256"
            }
          ],
          "stateMutability": "view",
          "type": "function"
        },
        {
          "inputs": [
            {
              "internalType": "address payable",
              "name": "recipient",
              "type": "address"
            }
          ],
          "name": "giftEther",
          "outputs": [],
          "stateMutability": "payable",
          "type": "function"
        },
        {
          "inputs": [
            {
              "internalType": "address",
              "name": "recipient",
              "type": "address"
            },
            {
              "internalType": "uint256",
              "name": "amount",
              "type": "uint256"
            },
            {
              "internalType": "address",
              "name": "tokenAddress",
              "type": "address"
            }
          ],
          "name": "giftTokens",
          "outputs": [],
          "stateMutability": "nonpayable",
          "type": "function"
        },
        {
          "inputs": [
            {
              "internalType": "address",
              "name": "recipient",
              "type": "address"
            },
            {
              "internalType": "uint256",
              "name": "amount",
              "type": "uint256"
            }
          ],
          "name": "giftTokens",
          "outputs": [],
          "stateMutability": "nonpayable",
          "type": "function"
        },
        {
          "inputs": [],
          "name": "maxEtherGiftAmount",
          "outputs": [
            {
              "internalType": "uint256",
              "name": "",
              "type": "uint256"
            }
          ],
          "stateMutability": "view",
          "type": "function"
        },
        {
          "inputs": [
            {
              "internalType": "address",
              "name": "",
              "type": "address"
            }
          ],
          "name": "maxGiftAmountForToken",
          "outputs": [
            {
              "internalType": "uint256",
              "name": "",
              "type": "uint256"
            }
          ],
          "stateMutability": "view",
          "type": "function"
        },
        {
          "inputs": [],
          "name": "minEtherGiftAmount",
          "outputs": [
            {
              "internalType": "uint256",
              "name": "",
              "type": "uint256"
            }
          ],
          "stateMutability": "view",
          "type": "function"
        },
        {
          "inputs": [
            {
              "internalType": "address",
              "name": "",
              "type": "address"
            }
          ],
          "name": "minGiftAmountForToken",
          "outputs": [
            {
              "internalType": "uint256",
              "name": "",
              "type": "uint256"
            }
          ],
          "stateMutability": "view",
          "type": "function"
        },
        {
          "inputs": [],
          "name": "owner",
          "outputs": [
            {
              "internalType": "address",
              "name": "",
              "type": "address"
            }
          ],
          "stateMutability": "view",
          "type": "function"
        },
        {
          "inputs": [],
          "name": "pendingOwner",
          "outputs": [
            {
              "internalType": "address",
              "name": "",
              "type": "address"
            }
          ],
          "stateMutability": "view",
          "type": "function"
        },
        {
          "inputs": [],
          "name": "renounceOwnership",
          "outputs": [],
          "stateMutability": "nonpayable",
          "type": "function"
        },
        {
          "inputs": [
            {
              "internalType": "address",
              "name": "tokenAddress",
              "type": "address"
            },
            {
              "internalType": "bool",
              "name": "isWhitelisted",
              "type": "bool"
            }
          ],
          "name": "setWhitelistedToken",
          "outputs": [],
          "stateMutability": "nonpayable",
          "type": "function"
        },
        {
          "inputs": [],
          "name": "token",
          "outputs": [
            {
              "internalType": "contract PodyToken",
              "name": "",
              "type": "address"
            }
          ],
          "stateMutability": "view",
          "type": "function"
        },
        {
          "inputs": [
            {
              "internalType": "address",
              "name": "newOwner",
              "type": "address"
            }
          ],
          "name": "transferOwnership",
          "outputs": [],
          "stateMutability": "nonpayable",
          "type": "function"
        },
        {
          "inputs": [
            {
              "internalType": "uint256",
              "name": "newFee",
              "type": "uint256"
            }
          ],
          "name": "updateCommissionFee",
          "outputs": [],
          "stateMutability": "nonpayable",
          "type": "function"
        },
        {
          "inputs": [
            {
              "internalType": "uint256",
              "name": "newMinEtherAmount",
              "type": "uint256"
            },
            {
              "internalType": "uint256",
              "name": "newMaxEtherAmount",
              "type": "uint256"
            }
          ],
          "name": "updateMinMaxEtherGiftAmount",
          "outputs": [],
          "stateMutability": "nonpayable",
          "type": "function"
        },
        {
          "inputs": [
            {
              "internalType": "address",
              "name": "tokenAddress",
              "type": "address"
            },
            {
              "internalType": "uint256",
              "name": "newMinAmount",
              "type": "uint256"
            },
            {
              "internalType": "uint256",
              "name": "newMaxAmount",
              "type": "uint256"
            }
          ],
          "name": "updateMinMaxGiftAmount",
          "outputs": [],
          "stateMutability": "nonpayable",
          "type": "function"
        },
        {
          "inputs": [
            {
              "internalType": "address",
              "name": "",
              "type": "address"
            }
          ],
          "name": "whitelistedTokens",
          "outputs": [
            {
              "internalType": "bool",
              "name": "",
              "type": "bool"
            }
          ],
          "stateMutability": "view",
          "type": "function"
        }
      ],
      "evm": {
        "bytecode": {
          "linkReferences": {},
          "object": "60803461015257601f61101e38819003918201601f191683019291906001600160401b03841183851017610157578160c092849260409687528339810103126101525780516001600160a01b039182821691829003610152576020810151908481015190606081015160a0608083015192015192331561013a5792879593927fef81a9943b96c8df4ef243401c9bf5159146166211356898b52d382086168d92979592879460018060a01b03199485600154166001558760009687543382821617895589519b3391167f8be0079c531659141344cd1fd0a4f28419497f9722a3daafe3b4186f6b6457e08a80a36002541617600255600355868552600460205285852055600560205284842055600755600855600660205220600160ff19825416179055815260016020820152a151610eb0908161016e8239f35b8751631e4fbdf760e01b815260006004820152602490fd5b600080fd5b634e487b7160e01b600052604160045260246000fdfe6040608081526004908136101561001557600080fd5b600091823560e01c9081631e7343fb14610a06578163266ead171461094a5781634cdc4eed1461092b5781634eae79081461075557816364edc20f146106c15781636fb1eb0c146106a2578163715018a61461063d57816376ce28f1146105ac57816379ba509714610529578163891fa9331461050a5781638da5cb5b146104e257816393895d32146104ac578163c4c50acf1461030f578163daf9c210146102d1578163e30c3978146102a8578163e84c849f14610270578163f2fde38b14610200578163fa936e4e1461011f575063fc0c546a146100f457600080fd5b3461011b578160031936011261011b5760025490516001600160a01b039091168152602090f35b5080fd5b8391503461011b57606036600319011261011b5761013b610be2565b602435916044359061014b610e2e565b8184116101b1576001600160a01b03929092168085526020928352858520849055600583528585208290559451948552908401919091526040830152907f02b7b4cd8cc10848fc442bdfbce1d2b42bde2f70f4977fc57b8c9a2267e6f0a890606090a180f35b608490602087519162461bcd60e51b8352820152602360248201527f4d696e20616d6f756e742063616e6e6f7420657863656564206d617820616d6f6044820152621d5b9d60ea1b6064820152fd5b833461026d57602036600319011261026d5761021a610be2565b610222610e2e565b600180546001600160a01b0319166001600160a01b0392831690811790915582549091167f38d16b8cac22d99fc7c124b9cd0de2d3fa1faef420bfe791d8c362d765e227008380a380f35b80fd5b50503461011b57602036600319011261011b5760209181906001600160a01b03610298610be2565b1681526005845220549051908152f35b50503461011b578160031936011261011b5760015490516001600160a01b039091168152602090f35b50503461011b57602036600319011261011b5760209160ff9082906001600160a01b036102fc610be2565b1681526006855220541690519015158152f35b919050346104a857806003193601126104a85761032a610be2565b6001600160a01b0380821693602435929190610347861515610bfd565b816002541692838852602091808352610365878a2054871015610d42565b8489526005835261037b878a2054871115610d9a565b61039561271061038d60035489610c48565b048097610c71565b948388518092818d816103b78c6323b872dd60e01b9a8b8452338b8501610e0c565b03925af1801561049e57918793918593610481575b508560025416908b87815416936103f08c5197889687958694855233908501610e0c565b03925af180156104775791600080516020610e5b8339815191529594939161044393610449575b5050600254169451928392339684604091949392606082019560018060a01b0316825260208201520152565b0390a380f35b8161046892903d10610470575b6104608183610c7e565b810190610df4565b503880610417565b503d610456565b86513d8a823e3d90fd5b61049790843d8611610470576104608183610c7e565b50386103cc565b88513d8c823e3d90fd5b8280fd5b9050346104a85760203660031901126104a85760209282916001600160a01b036104d4610be2565b168252845220549051908152f35b50503461011b578160031936011261011b57905490516001600160a01b039091168152602090f35b50503461011b578160031936011261011b576020906008549051908152f35b919050346104a857826003193601126104a857600154916001600160a01b039133838516036105955750506001600160a01b031991821660015582543392811683178455167f8be0079c531659141344cd1fd0a4f28419497f9722a3daafe3b4186f6b6457e08380a380f35b60249250519063118cdaa760e01b82523390820152fd5b50503461011b578060031936011261011b576105c6610be2565b90602435801515809103610639577fef81a9943b96c8df4ef243401c9bf5159146166211356898b52d382086168d92926105fe610e2e565b6001600160a01b031690610613821515610cf6565b818552600660205282852060ff1981541660ff831617905582519182526020820152a180f35b8380fd5b833461026d578060031936011261026d57610656610e2e565b600180546001600160a01b03199081169091558154908116825581906001600160a01b03167f8be0079c531659141344cd1fd0a4f28419497f9722a3daafe3b4186f6b6457e08280a380f35b50503461011b578160031936011261011b576020906003549051908152f35b919050346104a85760203660031901126104a8578135916106e0610e2e565b611388831161071b5750816020917f8c4d35e54a3f2ef1134138fd8ea3daee6a3c89e10d2665996babdf70261e2c769360035551908152a180f35b6020606492519162461bcd60e51b835282015260156024820152744665652063616e6e6f74206578636565642035302560581b6044820152fd5b9050346104a85760603660031901126104a857610770610be2565b6001600160a01b039160443591602435918484169190828503610927578582169561079c871515610bfd565b6107a7841515610cf6565b8389526020926006845260ff898b205416156108ec57848a528284526107d2898b2054871015610d42565b848a52600584526107e8898b2054871115610d9a565b6107fa61271061038d60035489610c48565b948951938b86868061081b8b6323b872dd60e01b9889845233888501610e0c565b038184875af19485156108e057899688966108c3575b508154169361084d8d5197889687958694855233908501610e0c565b03925af180156108b95791600080516020610e5b833981519152959697916104439361089b575b505051928392339684604091949392606082019560018060a01b0316825260208201520152565b816108b192903d10610470576104608183610c7e565b503880610874565b87513d8a823e3d90fd5b6108d990873d8911610470576104608183610c7e565b5038610831565b508b51903d90823e3d90fd5b885162461bcd60e51b81528084018590526015602482015274151bdad95b881b9bdd081dda1a5d195b1a5cdd1959605a1b6044820152606490fd5b8780fd5b50503461011b578160031936011261011b576020906007549051908152f35b83833461011b578060031936011261011b5782356024359361096a610e2e565b8482116109ab57507f29d018e09acf0338eb66f17ec314c492e242622e5feb6c8ace3bb40a3a5804739293816007558060085582519182526020820152a180f35b608490602084519162461bcd60e51b8352820152602f60248201527f4d696e20457468657220616d6f756e742063616e6e6f7420657863656564206d60448201526e185e08115d1a195c88185b5bdd5b9d608a1b6064820152fd5b60209150366003190182136106395780356001600160a01b038181169491859003610bde57610a36851515610bfd565b6007543410610b9c576008543411610b5b57612710610a5760035434610c48565b0492610a638434610c71565b9187808080868b5af1610a74610cb6565b5015610b0e578780808781948254165af1610a8d610cb6565b5015610acb575081519373eeeeeeeeeeeeeeeeeeeeeeeeeeeeeeeeeeeeeeee8552840152820152600080516020610e5b83398151915260603392a380f35b825162461bcd60e51b8152908101859052601d60248201527f4661696c656420746f2073656e6420457468657220746f206f776e65720000006044820152606490fd5b835162461bcd60e51b8152808301879052602160248201527f4661696c656420746f2073656e6420457468657220746f20726563697069656e6044820152601d60fa1b6064820152608490fd5b509180606493519262461bcd60e51b845283015260248201527f416d6f756e742065786365656473206d6178696d756d20666f722045746865726044820152fd5b5091606492519162461bcd60e51b8352820152601e60248201527f416d6f756e742062656c6f77206d696e696d756d20666f7220457468657200006044820152fd5b8580fd5b600435906001600160a01b0382168203610bf857565b600080fd5b15610c0457565b606460405162461bcd60e51b815260206004820152602060248201527f526563697069656e7420616464726573732063616e6e6f74206265207a65726f6044820152fd5b81810292918115918404141715610c5b57565b634e487b7160e01b600052601160045260246000fd5b91908203918211610c5b57565b90601f8019910116810190811067ffffffffffffffff821117610ca057604052565b634e487b7160e01b600052604160045260246000fd5b3d15610cf1573d9067ffffffffffffffff8211610ca05760405191610ce5601f8201601f191660200184610c7e565b82523d6000602084013e565b606090565b15610cfd57565b60405162461bcd60e51b815260206004820152601c60248201527f546f6b656e20616464726573732063616e6e6f74206265207a65726f000000006044820152606490fd5b15610d4957565b60405162461bcd60e51b815260206004820152602360248201527f416d6f756e742062656c6f77206d696e696d756d20666f72207468697320746f60448201526235b2b760e91b6064820152608490fd5b15610da157565b60405162461bcd60e51b815260206004820152602560248201527f416d6f756e742065786365656473206d6178696d756d20666f722074686973206044820152643a37b5b2b760d91b6064820152608490fd5b90816020910312610bf857518015158103610bf85790565b6001600160a01b03918216815291166020820152604081019190915260600190565b6000546001600160a01b03163303610e4257565b60405163118cdaa760e01b8152336004820152602490fdfe6df11fb4556a783e86a9e286544336da83bafdb11cdfba24c9816ab08af191d0a264697066735822122066c5b011832e4c5646f0fd1092ea1552fb0ea4fec3d8d15981a4d2d64bd509a364736f6c63430008180033",
          "opcodes": "PUSH1 0x80 CALLVALUE PUSH2 0x152 JUMPI PUSH1 0x1F PUSH2 0x101E CODESIZE DUP2 SWAP1 SUB SWAP2 DUP3 ADD PUSH1 0x1F NOT AND DUP4 ADD SWAP3 SWAP2 SWAP1 PUSH1 0x1 PUSH1 0x1 PUSH1 0x40 SHL SUB DUP5 GT DUP4 DUP6 LT OR PUSH2 0x157 JUMPI DUP2 PUSH1 0xC0 SWAP3 DUP5 SWAP3 PUSH1 0x40 SWAP7 DUP8 MSTORE DUP4 CODECOPY DUP2 ADD SUB SLT PUSH2 0x152 JUMPI DUP1 MLOAD PUSH1 0x1 PUSH1 0x1 PUSH1 0xA0 SHL SUB SWAP2 DUP3 DUP3 AND SWAP2 DUP3 SWAP1 SUB PUSH2 0x152 JUMPI PUSH1 0x20 DUP2 ADD MLOAD SWAP1 DUP5 DUP2 ADD MLOAD SWAP1 PUSH1 0x60 DUP2 ADD MLOAD PUSH1 0xA0 PUSH1 0x80 DUP4 ADD MLOAD SWAP3 ADD MLOAD SWAP3 CALLER ISZERO PUSH2 0x13A JUMPI SWAP3 DUP8 SWAP6 SWAP4 SWAP3 PUSH32 0xEF81A9943B96C8DF4EF243401C9BF5159146166211356898B52D382086168D92 SWAP8 SWAP6 SWAP3 DUP8 SWAP5 PUSH1 0x1 DUP1 PUSH1 0xA0 SHL SUB NOT SWAP5 DUP6 PUSH1 0x1 SLOAD AND PUSH1 0x1 SSTORE DUP8 PUSH1 0x0 SWAP7 DUP8 SLOAD CALLER DUP3 DUP3 AND OR DUP10 SSTORE DUP10 MLOAD SWAP12 CALLER SWAP2 AND PUSH32 0x8BE0079C531659141344CD1FD0A4F28419497F9722A3DAAFE3B4186F6B6457E0 DUP11 DUP1 LOG3 PUSH1 0x2 SLOAD AND OR PUSH1 0x2 SSTORE PUSH1 0x3 SSTORE DUP7 DUP6 MSTORE PUSH1 0x4 PUSH1 0x20 MSTORE DUP6 DUP6 KECCAK256 SSTORE PUSH1 0x5 PUSH1 0x20 MSTORE DUP5 DUP5 KECCAK256 SSTORE PUSH1 0x7 SSTORE PUSH1 0x8 SSTORE PUSH1 0x6 PUSH1 0x20 MSTORE KECCAK256 PUSH1 0x1 PUSH1 0xFF NOT DUP3 SLOAD AND OR SWAP1 SSTORE DUP2 MSTORE PUSH1 0x1 PUSH1 0x20 DUP3 ADD MSTORE LOG1 MLOAD PUSH2 0xEB0 SWAP1 DUP2 PUSH2 0x16E DUP3 CODECOPY RETURN JUMPDEST DUP8 MLOAD PUSH4 0x1E4FBDF7 PUSH1 0xE0 SHL DUP2 MSTORE PUSH1 0x0 PUSH1 0x4 DUP3 ADD MSTORE PUSH1 0x24 SWAP1 REVERT JUMPDEST PUSH1 0x0 DUP1 REVERT JUMPDEST PUSH4 0x4E487B71 PUSH1 0xE0 SHL PUSH1 0x0 MSTORE PUSH1 0x41 PUSH1 0x4 MSTORE PUSH1 0x24 PUSH1 0x0 REVERT INVALID PUSH1 0x40 PUSH1 0x80 DUP2 MSTORE PUSH1 0x4 SWAP1 DUP2 CALLDATASIZE LT ISZERO PUSH2 0x15 JUMPI PUSH1 0x0 DUP1 REVERT JUMPDEST PUSH1 0x0 SWAP2 DUP3 CALLDATALOAD PUSH1 0xE0 SHR SWAP1 DUP2 PUSH4 0x1E7343FB EQ PUSH2 0xA06 JUMPI DUP2 PUSH4 0x266EAD17 EQ PUSH2 0x94A JUMPI DUP2 PUSH4 0x4CDC4EED EQ PUSH2 0x92B JUMPI DUP2 PUSH4 0x4EAE7908 EQ PUSH2 0x755 JUMPI DUP2 PUSH4 0x64EDC20F EQ PUSH2 0x6C1 JUMPI DUP2 PUSH4 0x6FB1EB0C EQ PUSH2 0x6A2 JUMPI DUP2 PUSH4 0x715018A6 EQ PUSH2 0x63D JUMPI DUP2 PUSH4 0x76CE28F1 EQ PUSH2 0x5AC JUMPI DUP2 PUSH4 0x79BA5097 EQ PUSH2 0x529 JUMPI DUP2 PUSH4 0x891FA933 EQ PUSH2 0x50A JUMPI DUP2 PUSH4 0x8DA5CB5B EQ PUSH2 0x4E2 JUMPI DUP2 PUSH4 0x93895D32 EQ PUSH2 0x4AC JUMPI DUP2 PUSH4 0xC4C50ACF EQ PUSH2 0x30F JUMPI DUP2 PUSH4 0xDAF9C210 EQ PUSH2 0x2D1 JUMPI DUP2 PUSH4 0xE30C3978 EQ PUSH2 0x2A8 JUMPI DUP2 PUSH4 0xE84C849F EQ PUSH2 0x270 JUMPI DUP2 PUSH4 0xF2FDE38B EQ PUSH2 0x200 JUMPI DUP2 PUSH4 0xFA936E4E EQ PUSH2 0x11F JUMPI POP PUSH4 0xFC0C546A EQ PUSH2 0xF4 JUMPI PUSH1 0x0 DUP1 REVERT JUMPDEST CALLVALUE PUSH2 0x11B JUMPI DUP2 PUSH1 0x3 NOT CALLDATASIZE ADD SLT PUSH2 0x11B JUMPI PUSH1 0x2 SLOAD SWAP1 MLOAD PUSH1 0x1 PUSH1 0x1 PUSH1 0xA0 SHL SUB SWAP1 SWAP2 AND DUP2 MSTORE PUSH1 0x20 SWAP1 RETURN JUMPDEST POP DUP1 REVERT JUMPDEST DUP4 SWAP2 POP CALLVALUE PUSH2 0x11B JUMPI PUSH1 0x60 CALLDATASIZE PUSH1 0x3 NOT ADD SLT PUSH2 0x11B JUMPI PUSH2 0x13B PUSH2 0xBE2 JUMP JUMPDEST PUSH1 0x24 CALLDATALOAD SWAP2 PUSH1 0x44 CALLDATALOAD SWAP1 PUSH2 0x14B PUSH2 0xE2E JUMP JUMPDEST DUP2 DUP5 GT PUSH2 0x1B1 JUMPI PUSH1 0x1 PUSH1 0x1 PUSH1 0xA0 SHL SUB SWAP3 SWAP1 SWAP3 AND DUP1 DUP6 MSTORE PUSH1 0x20 SWAP3 DUP4 MSTORE DUP6 DUP6 KECCAK256 DUP5 SWAP1 SSTORE PUSH1 0x5 DUP4 MSTORE DUP6 DUP6 KECCAK256 DUP3 SWAP1 SSTORE SWAP5 MLOAD SWAP5 DUP6 MSTORE SWAP1 DUP5 ADD SWAP2 SWAP1 SWAP2 MSTORE PUSH1 0x40 DUP4 ADD MSTORE SWAP1 PUSH32 0x2B7B4CD8CC10848FC442BDFBCE1D2B42BDE2F70F4977FC57B8C9A2267E6F0A8 SWAP1 PUSH1 0x60 SWAP1 LOG1 DUP1 RETURN JUMPDEST PUSH1 0x84 SWAP1 PUSH1 0x20 DUP8 MLOAD SWAP2 PUSH3 0x461BCD PUSH1 0xE5 SHL DUP4 MSTORE DUP3 ADD MSTORE PUSH1 0x23 PUSH1 0x24 DUP3 ADD MSTORE PUSH32 0x4D696E20616D6F756E742063616E6E6F7420657863656564206D617820616D6F PUSH1 0x44 DUP3 ADD MSTORE PUSH3 0x1D5B9D PUSH1 0xEA SHL PUSH1 0x64 DUP3 ADD MSTORE REVERT JUMPDEST DUP4 CALLVALUE PUSH2 0x26D JUMPI PUSH1 0x20 CALLDATASIZE PUSH1 0x3 NOT ADD SLT PUSH2 0x26D JUMPI PUSH2 0x21A PUSH2 0xBE2 JUMP JUMPDEST PUSH2 0x222 PUSH2 0xE2E JUMP JUMPDEST PUSH1 0x1 DUP1 SLOAD PUSH1 0x1 PUSH1 0x1 PUSH1 0xA0 SHL SUB NOT AND PUSH1 0x1 PUSH1 0x1 PUSH1 0xA0 SHL SUB SWAP3 DUP4 AND SWAP1 DUP2 OR SWAP1 SWAP2 SSTORE DUP3 SLOAD SWAP1 SWAP2 AND PUSH32 0x38D16B8CAC22D99FC7C124B9CD0DE2D3FA1FAEF420BFE791D8C362D765E22700 DUP4 DUP1 LOG3 DUP1 RETURN JUMPDEST DUP1 REVERT JUMPDEST POP POP CALLVALUE PUSH2 0x11B JUMPI PUSH1 0x20 CALLDATASIZE PUSH1 0x3 NOT ADD SLT PUSH2 0x11B JUMPI PUSH1 0x20 SWAP2 DUP2 SWAP1 PUSH1 0x1 PUSH1 0x1 PUSH1 0xA0 SHL SUB PUSH2 0x298 PUSH2 0xBE2 JUMP JUMPDEST AND DUP2 MSTORE PUSH1 0x5 DUP5 MSTORE KECCAK256 SLOAD SWAP1 MLOAD SWAP1 DUP2 MSTORE RETURN JUMPDEST POP POP CALLVALUE PUSH2 0x11B JUMPI DUP2 PUSH1 0x3 NOT CALLDATASIZE ADD SLT PUSH2 0x11B JUMPI PUSH1 0x1 SLOAD SWAP1 MLOAD PUSH1 0x1 PUSH1 0x1 PUSH1 0xA0 SHL SUB SWAP1 SWAP2 AND DUP2 MSTORE PUSH1 0x20 SWAP1 RETURN JUMPDEST POP POP CALLVALUE PUSH2 0x11B JUMPI PUSH1 0x20 CALLDATASIZE PUSH1 0x3 NOT ADD SLT PUSH2 0x11B JUMPI PUSH1 0x20 SWAP2 PUSH1 0xFF SWAP1 DUP3 SWAP1 PUSH1 0x1 PUSH1 0x1 PUSH1 0xA0 SHL SUB PUSH2 0x2FC PUSH2 0xBE2 JUMP JUMPDEST AND DUP2 MSTORE PUSH1 0x6 DUP6 MSTORE KECCAK256 SLOAD AND SWAP1 MLOAD SWAP1 ISZERO ISZERO DUP2 MSTORE RETURN JUMPDEST SWAP2 SWAP1 POP CALLVALUE PUSH2 0x4A8 JUMPI DUP1 PUSH1 0x3 NOT CALLDATASIZE ADD SLT PUSH2 0x4A8 JUMPI PUSH2 0x32A PUSH2 0xBE2 JUMP JUMPDEST PUSH1 0x1 PUSH1 0x1 PUSH1 0xA0 SHL SUB DUP1 DUP3 AND SWAP4 PUSH1 0x24 CALLDATALOAD SWAP3 SWAP2 SWAP1 PUSH2 0x347 DUP7 ISZERO ISZERO PUSH2 0xBFD JUMP JUMPDEST DUP2 PUSH1 0x2 SLOAD AND SWAP3 DUP4 DUP9 MSTORE PUSH1 0x20 SWAP2 DUP1 DUP4 MSTORE PUSH2 0x365 DUP8 DUP11 KECCAK256 SLOAD DUP8 LT ISZERO PUSH2 0xD42 JUMP JUMPDEST DUP5 DUP10 MSTORE PUSH1 0x5 DUP4 MSTORE PUSH2 0x37B DUP8 DUP11 KECCAK256 SLOAD DUP8 GT ISZERO PUSH2 0xD9A JUMP JUMPDEST PUSH2 0x395 PUSH2 0x2710 PUSH2 0x38D PUSH1 0x3 SLOAD DUP10 PUSH2 0xC48 JUMP JUMPDEST DIV DUP1 SWAP8 PUSH2 0xC71 JUMP JUMPDEST SWAP5 DUP4 DUP9 MLOAD DUP1 SWAP3 DUP2 DUP14 DUP2 PUSH2 0x3B7 DUP13 PUSH4 0x23B872DD PUSH1 0xE0 SHL SWAP11 DUP12 DUP5 MSTORE CALLER DUP12 DUP6 ADD PUSH2 0xE0C JUMP JUMPDEST SUB SWAP3 GAS CALL DUP1 ISZERO PUSH2 0x49E JUMPI SWAP2 DUP8 SWAP4 SWAP2 DUP6 SWAP4 PUSH2 0x481 JUMPI JUMPDEST POP DUP6 PUSH1 0x2 SLOAD AND SWAP1 DUP12 DUP8 DUP2 SLOAD AND SWAP4 PUSH2 0x3F0 DUP13 MLOAD SWAP8 DUP9 SWAP7 DUP8 SWAP6 DUP7 SWAP5 DUP6 MSTORE CALLER SWAP1 DUP6 ADD PUSH2 0xE0C JUMP JUMPDEST SUB SWAP3 GAS CALL DUP1 ISZERO PUSH2 0x477 JUMPI SWAP2 PUSH1 0x0 DUP1 MLOAD PUSH1 0x20 PUSH2 0xE5B DUP4 CODECOPY DUP2 MLOAD SWAP2 MSTORE SWAP6 SWAP5 SWAP4 SWAP2 PUSH2 0x443 SWAP4 PUSH2 0x449 JUMPI JUMPDEST POP POP PUSH1 0x2 SLOAD AND SWAP5 MLOAD SWAP3 DUP4 SWAP3 CALLER SWAP7 DUP5 PUSH1 0x40 SWAP2 SWAP5 SWAP4 SWAP3 PUSH1 0x60 DUP3 ADD SWAP6 PUSH1 0x1 DUP1 PUSH1 0xA0 SHL SUB AND DUP3 MSTORE PUSH1 0x20 DUP3 ADD MSTORE ADD MSTORE JUMP JUMPDEST SUB SWAP1 LOG3 DUP1 RETURN JUMPDEST DUP2 PUSH2 0x468 SWAP3 SWAP1 RETURNDATASIZE LT PUSH2 0x470 JUMPI JUMPDEST PUSH2 0x460 DUP2 DUP4 PUSH2 0xC7E JUMP JUMPDEST DUP2 ADD SWAP1 PUSH2 0xDF4 JUMP JUMPDEST POP CODESIZE DUP1 PUSH2 0x417 JUMP JUMPDEST POP RETURNDATASIZE PUSH2 0x456 JUMP JUMPDEST DUP7 MLOAD RETURNDATASIZE DUP11 DUP3 RETURNDATACOPY RETURNDATASIZE SWAP1 REVERT JUMPDEST PUSH2 0x497 SWAP1 DUP5 RETURNDATASIZE DUP7 GT PUSH2 0x470 JUMPI PUSH2 0x460 DUP2 DUP4 PUSH2 0xC7E JUMP JUMPDEST POP CODESIZE PUSH2 0x3CC JUMP JUMPDEST DUP9 MLOAD RETURNDATASIZE DUP13 DUP3 RETURNDATACOPY RETURNDATASIZE SWAP1 REVERT JUMPDEST DUP3 DUP1 REVERT JUMPDEST SWAP1 POP CALLVALUE PUSH2 0x4A8 JUMPI PUSH1 0x20 CALLDATASIZE PUSH1 0x3 NOT ADD SLT PUSH2 0x4A8 JUMPI PUSH1 0x20 SWAP3 DUP3 SWAP2 PUSH1 0x1 PUSH1 0x1 PUSH1 0xA0 SHL SUB PUSH2 0x4D4 PUSH2 0xBE2 JUMP JUMPDEST AND DUP3 MSTORE DUP5 MSTORE KECCAK256 SLOAD SWAP1 MLOAD SWAP1 DUP2 MSTORE RETURN JUMPDEST POP POP CALLVALUE PUSH2 0x11B JUMPI DUP2 PUSH1 0x3 NOT CALLDATASIZE ADD SLT PUSH2 0x11B JUMPI SWAP1 SLOAD SWAP1 MLOAD PUSH1 0x1 PUSH1 0x1 PUSH1 0xA0 SHL SUB SWAP1 SWAP2 AND DUP2 MSTORE PUSH1 0x20 SWAP1 RETURN JUMPDEST POP POP CALLVALUE PUSH2 0x11B JUMPI DUP2 PUSH1 0x3 NOT CALLDATASIZE ADD SLT PUSH2 0x11B JUMPI PUSH1 0x20 SWAP1 PUSH1 0x8 SLOAD SWAP1 MLOAD SWAP1 DUP2 MSTORE RETURN JUMPDEST SWAP2 SWAP1 POP CALLVALUE PUSH2 0x4A8 JUMPI DUP3 PUSH1 0x3 NOT CALLDATASIZE ADD SLT PUSH2 0x4A8 JUMPI PUSH1 0x1 SLOAD SWAP2 PUSH1 0x1 PUSH1 0x1 PUSH1 0xA0 SHL SUB SWAP2 CALLER DUP4 DUP6 AND SUB PUSH2 0x595 JUMPI POP POP PUSH1 0x1 PUSH1 0x1 PUSH1 0xA0 SHL SUB NOT SWAP2 DUP3 AND PUSH1 0x1 SSTORE DUP3 SLOAD CALLER SWAP3 DUP2 AND DUP4 OR DUP5 SSTORE AND PUSH32 0x8BE0079C531659141344CD1FD0A4F28419497F9722A3DAAFE3B4186F6B6457E0 DUP4 DUP1 LOG3 DUP1 RETURN JUMPDEST PUSH1 0x24 SWAP3 POP MLOAD SWAP1 PUSH4 0x118CDAA7 PUSH1 0xE0 SHL DUP3 MSTORE CALLER SWAP1 DUP3 ADD MSTORE REVERT JUMPDEST POP POP CALLVALUE PUSH2 0x11B JUMPI DUP1 PUSH1 0x3 NOT CALLDATASIZE ADD SLT PUSH2 0x11B JUMPI PUSH2 0x5C6 PUSH2 0xBE2 JUMP JUMPDEST SWAP1 PUSH1 0x24 CALLDATALOAD DUP1 ISZERO ISZERO DUP1 SWAP2 SUB PUSH2 0x639 JUMPI PUSH32 0xEF81A9943B96C8DF4EF243401C9BF5159146166211356898B52D382086168D92 SWAP3 PUSH2 0x5FE PUSH2 0xE2E JUMP JUMPDEST PUSH1 0x1 PUSH1 0x1 PUSH1 0xA0 SHL SUB AND SWAP1 PUSH2 0x613 DUP3 ISZERO ISZERO PUSH2 0xCF6 JUMP JUMPDEST DUP2 DUP6 MSTORE PUSH1 0x6 PUSH1 0x20 MSTORE DUP3 DUP6 KECCAK256 PUSH1 0xFF NOT DUP2 SLOAD AND PUSH1 0xFF DUP4 AND OR SWAP1 SSTORE DUP3 MLOAD SWAP2 DUP3 MSTORE PUSH1 0x20 DUP3 ADD MSTORE LOG1 DUP1 RETURN JUMPDEST DUP4 DUP1 REVERT JUMPDEST DUP4 CALLVALUE PUSH2 0x26D JUMPI DUP1 PUSH1 0x3 NOT CALLDATASIZE ADD SLT PUSH2 0x26D JUMPI PUSH2 0x656 PUSH2 0xE2E JUMP JUMPDEST PUSH1 0x1 DUP1 SLOAD PUSH1 0x1 PUSH1 0x1 PUSH1 0xA0 SHL SUB NOT SWAP1 DUP2 AND SWAP1 SWAP2 SSTORE DUP2 SLOAD SWAP1 DUP2 AND DUP3 SSTORE DUP2 SWAP1 PUSH1 0x1 PUSH1 0x1 PUSH1 0xA0 SHL SUB AND PUSH32 0x8BE0079C531659141344CD1FD0A4F28419497F9722A3DAAFE3B4186F6B6457E0 DUP3 DUP1 LOG3 DUP1 RETURN JUMPDEST POP POP CALLVALUE PUSH2 0x11B JUMPI DUP2 PUSH1 0x3 NOT CALLDATASIZE ADD SLT PUSH2 0x11B JUMPI PUSH1 0x20 SWAP1 PUSH1 0x3 SLOAD SWAP1 MLOAD SWAP1 DUP2 MSTORE RETURN JUMPDEST SWAP2 SWAP1 POP CALLVALUE PUSH2 0x4A8 JUMPI PUSH1 0x20 CALLDATASIZE PUSH1 0x3 NOT ADD SLT PUSH2 0x4A8 JUMPI DUP2 CALLDATALOAD SWAP2 PUSH2 0x6E0 PUSH2 0xE2E JUMP JUMPDEST PUSH2 0x1388 DUP4 GT PUSH2 0x71B JUMPI POP DUP2 PUSH1 0x20 SWAP2 PUSH32 0x8C4D35E54A3F2EF1134138FD8EA3DAEE6A3C89E10D2665996BABDF70261E2C76 SWAP4 PUSH1 0x3 SSTORE MLOAD SWAP1 DUP2 MSTORE LOG1 DUP1 RETURN JUMPDEST PUSH1 0x20 PUSH1 0x64 SWAP3 MLOAD SWAP2 PUSH3 0x461BCD PUSH1 0xE5 SHL DUP4 MSTORE DUP3 ADD MSTORE PUSH1 0x15 PUSH1 0x24 DUP3 ADD MSTORE PUSH21 0x4665652063616E6E6F742065786365656420353025 PUSH1 0x58 SHL PUSH1 0x44 DUP3 ADD MSTORE REVERT JUMPDEST SWAP1 POP CALLVALUE PUSH2 0x4A8 JUMPI PUSH1 0x60 CALLDATASIZE PUSH1 0x3 NOT ADD SLT PUSH2 0x4A8 JUMPI PUSH2 0x770 PUSH2 0xBE2 JUMP JUMPDEST PUSH1 0x1 PUSH1 0x1 PUSH1 0xA0 SHL SUB SWAP2 PUSH1 0x44 CALLDATALOAD SWAP2 PUSH1 0x24 CALLDATALOAD SWAP2 DUP5 DUP5 AND SWAP2 SWAP1 DUP3 DUP6 SUB PUSH2 0x927 JUMPI DUP6 DUP3 AND SWAP6 PUSH2 0x79C DUP8 ISZERO ISZERO PUSH2 0xBFD JUMP JUMPDEST PUSH2 0x7A7 DUP5 ISZERO ISZERO PUSH2 0xCF6 JUMP JUMPDEST DUP4 DUP10 MSTORE PUSH1 0x20 SWAP3 PUSH1 0x6 DUP5 MSTORE PUSH1 0xFF DUP10 DUP12 KECCAK256 SLOAD AND ISZERO PUSH2 0x8EC JUMPI DUP5 DUP11 MSTORE DUP3 DUP5 MSTORE PUSH2 0x7D2 DUP10 DUP12 KECCAK256 SLOAD DUP8 LT ISZERO PUSH2 0xD42 JUMP JUMPDEST DUP5 DUP11 MSTORE PUSH1 0x5 DUP5 MSTORE PUSH2 0x7E8 DUP10 DUP12 KECCAK256 SLOAD DUP8 GT ISZERO PUSH2 0xD9A JUMP JUMPDEST PUSH2 0x7FA PUSH2 0x2710 PUSH2 0x38D PUSH1 0x3 SLOAD DUP10 PUSH2 0xC48 JUMP JUMPDEST SWAP5 DUP10 MLOAD SWAP4 DUP12 DUP7 DUP7 DUP1 PUSH2 0x81B DUP12 PUSH4 0x23B872DD PUSH1 0xE0 SHL SWAP9 DUP10 DUP5 MSTORE CALLER DUP9 DUP6 ADD PUSH2 0xE0C JUMP JUMPDEST SUB DUP2 DUP5 DUP8 GAS CALL SWAP5 DUP6 ISZERO PUSH2 0x8E0 JUMPI DUP10 SWAP7 DUP9 SWAP7 PUSH2 0x8C3 JUMPI JUMPDEST POP DUP2 SLOAD AND SWAP4 PUSH2 0x84D DUP14 MLOAD SWAP8 DUP9 SWAP7 DUP8 SWAP6 DUP7 SWAP5 DUP6 MSTORE CALLER SWAP1 DUP6 ADD PUSH2 0xE0C JUMP JUMPDEST SUB SWAP3 GAS CALL DUP1 ISZERO PUSH2 0x8B9 JUMPI SWAP2 PUSH1 0x0 DUP1 MLOAD PUSH1 0x20 PUSH2 0xE5B DUP4 CODECOPY DUP2 MLOAD SWAP2 MSTORE SWAP6 SWAP7 SWAP8 SWAP2 PUSH2 0x443 SWAP4 PUSH2 0x89B JUMPI JUMPDEST POP POP MLOAD SWAP3 DUP4 SWAP3 CALLER SWAP7 DUP5 PUSH1 0x40 SWAP2 SWAP5 SWAP4 SWAP3 PUSH1 0x60 DUP3 ADD SWAP6 PUSH1 0x1 DUP1 PUSH1 0xA0 SHL SUB AND DUP3 MSTORE PUSH1 0x20 DUP3 ADD MSTORE ADD MSTORE JUMP JUMPDEST DUP2 PUSH2 0x8B1 SWAP3 SWAP1 RETURNDATASIZE LT PUSH2 0x470 JUMPI PUSH2 0x460 DUP2 DUP4 PUSH2 0xC7E JUMP JUMPDEST POP CODESIZE DUP1 PUSH2 0x874 JUMP JUMPDEST DUP8 MLOAD RETURNDATASIZE DUP11 DUP3 RETURNDATACOPY RETURNDATASIZE SWAP1 REVERT JUMPDEST PUSH2 0x8D9 SWAP1 DUP8 RETURNDATASIZE DUP10 GT PUSH2 0x470 JUMPI PUSH2 0x460 DUP2 DUP4 PUSH2 0xC7E JUMP JUMPDEST POP CODESIZE PUSH2 0x831 JUMP JUMPDEST POP DUP12 MLOAD SWAP1 RETURNDATASIZE SWAP1 DUP3 RETURNDATACOPY RETURNDATASIZE SWAP1 REVERT JUMPDEST DUP9 MLOAD PUSH3 0x461BCD PUSH1 0xE5 SHL DUP2 MSTORE DUP1 DUP5 ADD DUP6 SWAP1 MSTORE PUSH1 0x15 PUSH1 0x24 DUP3 ADD MSTORE PUSH21 0x151BDAD95B881B9BDD081DDA1A5D195B1A5CDD1959 PUSH1 0x5A SHL PUSH1 0x44 DUP3 ADD MSTORE PUSH1 0x64 SWAP1 REVERT JUMPDEST DUP8 DUP1 REVERT JUMPDEST POP POP CALLVALUE PUSH2 0x11B JUMPI DUP2 PUSH1 0x3 NOT CALLDATASIZE ADD SLT PUSH2 0x11B JUMPI PUSH1 0x20 SWAP1 PUSH1 0x7 SLOAD SWAP1 MLOAD SWAP1 DUP2 MSTORE RETURN JUMPDEST DUP4 DUP4 CALLVALUE PUSH2 0x11B JUMPI DUP1 PUSH1 0x3 NOT CALLDATASIZE ADD SLT PUSH2 0x11B JUMPI DUP3 CALLDATALOAD PUSH1 0x24 CALLDATALOAD SWAP4 PUSH2 0x96A PUSH2 0xE2E JUMP JUMPDEST DUP5 DUP3 GT PUSH2 0x9AB JUMPI POP PUSH32 0x29D018E09ACF0338EB66F17EC314C492E242622E5FEB6C8ACE3BB40A3A580473 SWAP3 SWAP4 DUP2 PUSH1 0x7 SSTORE DUP1 PUSH1 0x8 SSTORE DUP3 MLOAD SWAP2 DUP3 MSTORE PUSH1 0x20 DUP3 ADD MSTORE LOG1 DUP1 RETURN JUMPDEST PUSH1 0x84 SWAP1 PUSH1 0x20 DUP5 MLOAD SWAP2 PUSH3 0x461BCD PUSH1 0xE5 SHL DUP4 MSTORE DUP3 ADD MSTORE PUSH1 0x2F PUSH1 0x24 DUP3 ADD MSTORE PUSH32 0x4D696E20457468657220616D6F756E742063616E6E6F7420657863656564206D PUSH1 0x44 DUP3 ADD MSTORE PUSH15 0x185E08115D1A195C88185B5BDD5B9D PUSH1 0x8A SHL PUSH1 0x64 DUP3 ADD MSTORE REVERT JUMPDEST PUSH1 0x20 SWAP2 POP CALLDATASIZE PUSH1 0x3 NOT ADD DUP3 SGT PUSH2 0x639 JUMPI DUP1 CALLDATALOAD PUSH1 0x1 PUSH1 0x1 PUSH1 0xA0 SHL SUB DUP2 DUP2 AND SWAP5 SWAP2 DUP6 SWAP1 SUB PUSH2 0xBDE JUMPI PUSH2 0xA36 DUP6 ISZERO ISZERO PUSH2 0xBFD JUMP JUMPDEST PUSH1 0x7 SLOAD CALLVALUE LT PUSH2 0xB9C JUMPI PUSH1 0x8 SLOAD CALLVALUE GT PUSH2 0xB5B JUMPI PUSH2 0x2710 PUSH2 0xA57 PUSH1 0x3 SLOAD CALLVALUE PUSH2 0xC48 JUMP JUMPDEST DIV SWAP3 PUSH2 0xA63 DUP5 CALLVALUE PUSH2 0xC71 JUMP JUMPDEST SWAP2 DUP8 DUP1 DUP1 DUP1 DUP7 DUP12 GAS CALL PUSH2 0xA74 PUSH2 0xCB6 JUMP JUMPDEST POP ISZERO PUSH2 0xB0E JUMPI DUP8 DUP1 DUP1 DUP8 DUP2 SWAP5 DUP3 SLOAD AND GAS CALL PUSH2 0xA8D PUSH2 0xCB6 JUMP JUMPDEST POP ISZERO PUSH2 0xACB JUMPI POP DUP2 MLOAD SWAP4 PUSH20 0xEEEEEEEEEEEEEEEEEEEEEEEEEEEEEEEEEEEEEEEE DUP6 MSTORE DUP5 ADD MSTORE DUP3 ADD MSTORE PUSH1 0x0 DUP1 MLOAD PUSH1 0x20 PUSH2 0xE5B DUP4 CODECOPY DUP2 MLOAD SWAP2 MSTORE PUSH1 0x60 CALLER SWAP3 LOG3 DUP1 RETURN JUMPDEST DUP3 MLOAD PUSH3 0x461BCD PUSH1 0xE5 SHL DUP2 MSTORE SWAP1 DUP2 ADD DUP6 SWAP1 MSTORE PUSH1 0x1D PUSH1 0x24 DUP3 ADD MSTORE PUSH32 0x4661696C656420746F2073656E6420457468657220746F206F776E6572000000 PUSH1 0x44 DUP3 ADD MSTORE PUSH1 0x64 SWAP1 REVERT JUMPDEST DUP4 MLOAD PUSH3 0x461BCD PUSH1 0xE5 SHL DUP2 MSTORE DUP1 DUP4 ADD DUP8 SWAP1 MSTORE PUSH1 0x21 PUSH1 0x24 DUP3 ADD MSTORE PUSH32 0x4661696C656420746F2073656E6420457468657220746F20726563697069656E PUSH1 0x44 DUP3 ADD MSTORE PUSH1 0x1D PUSH1 0xFA SHL PUSH1 0x64 DUP3 ADD MSTORE PUSH1 0x84 SWAP1 REVERT JUMPDEST POP SWAP2 DUP1 PUSH1 0x64 SWAP4 MLOAD SWAP3 PUSH3 0x461BCD PUSH1 0xE5 SHL DUP5 MSTORE DUP4 ADD MSTORE PUSH1 0x24 DUP3 ADD MSTORE PUSH32 0x416D6F756E742065786365656473206D6178696D756D20666F72204574686572 PUSH1 0x44 DUP3 ADD MSTORE REVERT JUMPDEST POP SWAP2 PUSH1 0x64 SWAP3 MLOAD SWAP2 PUSH3 0x461BCD PUSH1 0xE5 SHL DUP4 MSTORE DUP3 ADD MSTORE PUSH1 0x1E PUSH1 0x24 DUP3 ADD MSTORE PUSH32 0x416D6F756E742062656C6F77206D696E696D756D20666F722045746865720000 PUSH1 0x44 DUP3 ADD MSTORE REVERT JUMPDEST DUP6 DUP1 REVERT JUMPDEST PUSH1 0x4 CALLDATALOAD SWAP1 PUSH1 0x1 PUSH1 0x1 PUSH1 0xA0 SHL SUB DUP3 AND DUP3 SUB PUSH2 0xBF8 JUMPI JUMP JUMPDEST PUSH1 0x0 DUP1 REVERT JUMPDEST ISZERO PUSH2 0xC04 JUMPI JUMP JUMPDEST PUSH1 0x64 PUSH1 0x40 MLOAD PUSH3 0x461BCD PUSH1 0xE5 SHL DUP2 MSTORE PUSH1 0x20 PUSH1 0x4 DUP3 ADD MSTORE PUSH1 0x20 PUSH1 0x24 DUP3 ADD MSTORE PUSH32 0x526563697069656E7420616464726573732063616E6E6F74206265207A65726F PUSH1 0x44 DUP3 ADD MSTORE REVERT JUMPDEST DUP2 DUP2 MUL SWAP3 SWAP2 DUP2 ISZERO SWAP2 DUP5 DIV EQ OR ISZERO PUSH2 0xC5B JUMPI JUMP JUMPDEST PUSH4 0x4E487B71 PUSH1 0xE0 SHL PUSH1 0x0 MSTORE PUSH1 0x11 PUSH1 0x4 MSTORE PUSH1 0x24 PUSH1 0x0 REVERT JUMPDEST SWAP2 SWAP1 DUP3 SUB SWAP2 DUP3 GT PUSH2 0xC5B JUMPI JUMP JUMPDEST SWAP1 PUSH1 0x1F DUP1 NOT SWAP2 ADD AND DUP2 ADD SWAP1 DUP2 LT PUSH8 0xFFFFFFFFFFFFFFFF DUP3 GT OR PUSH2 0xCA0 JUMPI PUSH1 0x40 MSTORE JUMP JUMPDEST PUSH4 0x4E487B71 PUSH1 0xE0 SHL PUSH1 0x0 MSTORE PUSH1 0x41 PUSH1 0x4 MSTORE PUSH1 0x24 PUSH1 0x0 REVERT JUMPDEST RETURNDATASIZE ISZERO PUSH2 0xCF1 JUMPI RETURNDATASIZE SWAP1 PUSH8 0xFFFFFFFFFFFFFFFF DUP3 GT PUSH2 0xCA0 JUMPI PUSH1 0x40 MLOAD SWAP2 PUSH2 0xCE5 PUSH1 0x1F DUP3 ADD PUSH1 0x1F NOT AND PUSH1 0x20 ADD DUP5 PUSH2 0xC7E JUMP JUMPDEST DUP3 MSTORE RETURNDATASIZE PUSH1 0x0 PUSH1 0x20 DUP5 ADD RETURNDATACOPY JUMP JUMPDEST PUSH1 0x60 SWAP1 JUMP JUMPDEST ISZERO PUSH2 0xCFD JUMPI JUMP JUMPDEST PUSH1 0x40 MLOAD PUSH3 0x461BCD PUSH1 0xE5 SHL DUP2 MSTORE PUSH1 0x20 PUSH1 0x4 DUP3 ADD MSTORE PUSH1 0x1C PUSH1 0x24 DUP3 ADD MSTORE PUSH32 0x546F6B656E20616464726573732063616E6E6F74206265207A65726F00000000 PUSH1 0x44 DUP3 ADD MSTORE PUSH1 0x64 SWAP1 REVERT JUMPDEST ISZERO PUSH2 0xD49 JUMPI JUMP JUMPDEST PUSH1 0x40 MLOAD PUSH3 0x461BCD PUSH1 0xE5 SHL DUP2 MSTORE PUSH1 0x20 PUSH1 0x4 DUP3 ADD MSTORE PUSH1 0x23 PUSH1 0x24 DUP3 ADD MSTORE PUSH32 0x416D6F756E742062656C6F77206D696E696D756D20666F72207468697320746F PUSH1 0x44 DUP3 ADD MSTORE PUSH3 0x35B2B7 PUSH1 0xE9 SHL PUSH1 0x64 DUP3 ADD MSTORE PUSH1 0x84 SWAP1 REVERT JUMPDEST ISZERO PUSH2 0xDA1 JUMPI JUMP JUMPDEST PUSH1 0x40 MLOAD PUSH3 0x461BCD PUSH1 0xE5 SHL DUP2 MSTORE PUSH1 0x20 PUSH1 0x4 DUP3 ADD MSTORE PUSH1 0x25 PUSH1 0x24 DUP3 ADD MSTORE PUSH32 0x416D6F756E742065786365656473206D6178696D756D20666F72207468697320 PUSH1 0x44 DUP3 ADD MSTORE PUSH5 0x3A37B5B2B7 PUSH1 0xD9 SHL PUSH1 0x64 DUP3 ADD MSTORE PUSH1 0x84 SWAP1 REVERT JUMPDEST SWAP1 DUP2 PUSH1 0x20 SWAP2 SUB SLT PUSH2 0xBF8 JUMPI MLOAD DUP1 ISZERO ISZERO DUP2 SUB PUSH2 0xBF8 JUMPI SWAP1 JUMP JUMPDEST PUSH1 0x1 PUSH1 0x1 PUSH1 0xA0 SHL SUB SWAP2 DUP3 AND DUP2 MSTORE SWAP2 AND PUSH1 0x20 DUP3 ADD MSTORE PUSH1 0x40 DUP2 ADD SWAP2 SWAP1 SWAP2 MSTORE PUSH1 0x60 ADD SWAP1 JUMP JUMPDEST PUSH1 0x0 SLOAD PUSH1 0x1 PUSH1 0x1 PUSH1 0xA0 SHL SUB AND CALLER SUB PUSH2 0xE42 JUMPI JUMP JUMPDEST PUSH1 0x40 MLOAD PUSH4 0x118CDAA7 PUSH1 0xE0 SHL DUP2 MSTORE CALLER PUSH1 0x4 DUP3 ADD MSTORE PUSH1 0x24 SWAP1 REVERT INVALID PUSH14 0xF11FB4556A783E86A9E286544336 0xDA DUP4 0xBA REVERT 0xB1 SHR 0xDF 0xBA 0x24 0xC9 DUP2 PUSH11 0xB08AF191D0A26469706673 PC 0x22 SLT KECCAK256 PUSH7 0xC5B011832E4C56 CHAINID CREATE REVERT LT SWAP3 0xEA ISZERO MSTORE 0xFB 0xE LOG4 INVALID 0xC3 0xD8 0xD1 MSIZE DUP2 LOG4 0xD2 0xD6 0x4B 0xD5 MULMOD LOG3 PUSH5 0x736F6C6343 STOP ADDMOD XOR STOP CALLER "
        },
        "methodIdentifiers": {
          "acceptOwnership()": "79ba5097",
          "commissionFee()": "6fb1eb0c",
          "giftEther(address)": "1e7343fb",
          "giftTokens(address,uint256)": "c4c50acf",
          "giftTokens(address,uint256,address)": "4eae7908",
          "maxEtherGiftAmount()": "891fa933",
          "maxGiftAmountForToken(address)": "e84c849f",
          "minEtherGiftAmount()": "4cdc4eed",
          "minGiftAmountForToken(address)": "93895d32",
          "owner()": "8da5cb5b",
          "pendingOwner()": "e30c3978",
          "renounceOwnership()": "715018a6",
          "setWhitelistedToken(address,bool)": "76ce28f1",
          "token()": "fc0c546a",
          "transferOwnership(address)": "f2fde38b",
          "updateCommissionFee(uint256)": "64edc20f",
          "updateMinMaxEtherGiftAmount(uint256,uint256)": "266ead17",
          "updateMinMaxGiftAmount(address,uint256,uint256)": "fa936e4e",
          "whitelistedTokens(address)": "daf9c210"
        }
      }
    }
  }
}