{
  "_format": "hh-sol-artifact-1",
  "contractName": "PodyGift",
  "sourceName": "contracts/PodyGift.sol",
  "abi": [
    {
      "inputs": [
        {
          "internalType": "address",
          "name": "tokenAddress",
          "type": "address"
        },
        {
          "internalType": "uint256",
          "name": "initialFee",
          "type": "uint256"
        },
        {
          "internalType": "uint256",
          "name": "initialMinGiftAmount",
          "type": "uint256"
        },
        {
          "internalType": "uint256",
          "name": "initialMaxGiftAmount",
          "type": "uint256"
        },
        {
          "internalType": "uint256",
          "name": "initialMinEtherAmount",
          "type": "uint256"
        },
        {
          "internalType": "uint256",
          "name": "initialMaxEtherAmount",
          "type": "uint256"
        }
      ],
      "stateMutability": "nonpayable",
      "type": "constructor"
    },
    {
      "inputs": [
        {
          "internalType": "address",
          "name": "owner",
          "type": "address"
        }
      ],
      "name": "OwnableInvalidOwner",
      "type": "error"
    },
    {
      "inputs": [
        {
          "internalType": "address",
          "name": "account",
          "type": "address"
        }
      ],
      "name": "OwnableUnauthorizedAccount",
      "type": "error"
    },
    {
      "anonymous": false,
      "inputs": [
        {
          "indexed": false,
          "internalType": "uint256",
          "name": "newFee",
          "type": "uint256"
        }
      ],
      "name": "FeeUpdated",
      "type": "event"
    },
    {
      "anonymous": false,
      "inputs": [
        {
          "indexed": true,
          "internalType": "address",
          "name": "sender",
          "type": "address"
        },
        {
          "indexed": true,
          "internalType": "address",
          "name": "recipient",
          "type": "address"
        },
        {
          "indexed": false,
          "internalType": "address",
          "name": "tokenAddress",
          "type": "address"
        },
        {
          "indexed": false,
          "internalType": "uint256",
          "name": "amountSent",
          "type": "uint256"
        },
        {
          "indexed": false,
          "internalType": "uint256",
          "name": "commission",
          "type": "uint256"
        }
      ],
      "name": "GiftSent",
      "type": "event"
    },
    {
      "anonymous": false,
      "inputs": [
        {
          "indexed": false,
          "internalType": "uint256",
          "name": "newMinEtherAmount",
          "type": "uint256"
        },
        {
          "indexed": false,
          "internalType": "uint256",
          "name": "newMaxEtherAmount",
          "type": "uint256"
        }
      ],
      "name": "MinMaxEtherGiftAmountUpdated",
      "type": "event"
    },
    {
      "anonymous": false,
      "inputs": [
        {
          "indexed": false,
          "internalType": "address",
          "name": "tokenAddress",
          "type": "address"
        },
        {
          "indexed": false,
          "internalType": "uint256",
          "name": "newMinAmount",
          "type": "uint256"
        },
        {
          "indexed": false,
          "internalType": "uint256",
          "name": "newMaxAmount",
          "type": "uint256"
        }
      ],
      "name": "MinMaxGiftAmountUpdated",
      "type": "event"
    },
    {
      "anonymous": false,
      "inputs": [
        {
          "indexed": true,
          "internalType": "address",
          "name": "previousOwner",
          "type": "address"
        },
        {
          "indexed": true,
          "internalType": "address",
          "name": "newOwner",
          "type": "address"
        }
      ],
      "name": "OwnershipTransferStarted",
      "type": "event"
    },
    {
      "anonymous": false,
      "inputs": [
        {
          "indexed": true,
          "internalType": "address",
          "name": "previousOwner",
          "type": "address"
        },
        {
          "indexed": true,
          "internalType": "address",
          "name": "newOwner",
          "type": "address"
        }
      ],
      "name": "OwnershipTransferred",
      "type": "event"
    },
    {
      "anonymous": false,
      "inputs": [
        {
          "indexed": false,
          "internalType": "address",
          "name": "newTokenAddress",
          "type": "address"
        }
      ],
      "name": "TokenUpdated",
      "type": "event"
    },
    {
      "anonymous": false,
      "inputs": [
        {
          "indexed": false,
          "internalType": "address",
          "name": "tokenAddress",
          "type": "address"
        },
        {
          "indexed": false,
          "internalType": "bool",
          "name": "isWhitelisted",
          "type": "bool"
        }
      ],
      "name": "TokenWhitelisted",
      "type": "event"
    },
    {
      "inputs": [],
      "name": "acceptOwnership",
      "outputs": [],
      "stateMutability": "nonpayable",
      "type": "function"
    },
    {
      "inputs": [],
      "name": "commissionFee",
      "outputs": [
        {
          "internalType": "uint256",
          "name": "",
          "type": "uint256"
        }
      ],
      "stateMutability": "view",
      "type": "function"
    },
    {
      "inputs": [
        {
          "internalType": "address payable",
          "name": "recipient",
          "type": "address"
        }
      ],
      "name": "giftEther",
      "outputs": [],
      "stateMutability": "payable",
      "type": "function"
    },
    {
      "inputs": [
        {
          "internalType": "address",
          "name": "recipient",
          "type": "address"
        },
        {
          "internalType": "uint256",
          "name": "amount",
          "type": "uint256"
        },
        {
          "internalType": "address",
          "name": "tokenAddress",
          "type": "address"
        }
      ],
      "name": "giftTokens",
      "outputs": [],
      "stateMutability": "nonpayable",
      "type": "function"
    },
    {
      "inputs": [
        {
          "internalType": "address",
          "name": "recipient",
          "type": "address"
        },
        {
          "internalType": "uint256",
          "name": "amount",
          "type": "uint256"
        }
      ],
      "name": "giftTokens",
      "outputs": [],
      "stateMutability": "nonpayable",
      "type": "function"
    },
    {
      "inputs": [],
      "name": "maxEtherGiftAmount",
      "outputs": [
        {
          "internalType": "uint256",
          "name": "",
          "type": "uint256"
        }
      ],
      "stateMutability": "view",
      "type": "function"
    },
    {
      "inputs": [
        {
          "internalType": "address",
          "name": "",
          "type": "address"
        }
      ],
      "name": "maxGiftAmountForToken",
      "outputs": [
        {
          "internalType": "uint256",
          "name": "",
          "type": "uint256"
        }
      ],
      "stateMutability": "view",
      "type": "function"
    },
    {
      "inputs": [],
      "name": "minEtherGiftAmount",
      "outputs": [
        {
          "internalType": "uint256",
          "name": "",
          "type": "uint256"
        }
      ],
      "stateMutability": "view",
      "type": "function"
    },
    {
      "inputs": [
        {
          "internalType": "address",
          "name": "",
          "type": "address"
        }
      ],
      "name": "minGiftAmountForToken",
      "outputs": [
        {
          "internalType": "uint256",
          "name": "",
          "type": "uint256"
        }
      ],
      "stateMutability": "view",
      "type": "function"
    },
    {
      "inputs": [],
      "name": "owner",
      "outputs": [
        {
          "internalType": "address",
          "name": "",
          "type": "address"
        }
      ],
      "stateMutability": "view",
      "type": "function"
    },
    {
      "inputs": [],
      "name": "pendingOwner",
      "outputs": [
        {
          "internalType": "address",
          "name": "",
          "type": "address"
        }
      ],
      "stateMutability": "view",
      "type": "function"
    },
    {
      "inputs": [],
      "name": "renounceOwnership",
      "outputs": [],
      "stateMutability": "nonpayable",
      "type": "function"
    },
    {
      "inputs": [
        {
          "internalType": "address",
          "name": "tokenAddress",
          "type": "address"
        },
        {
          "internalType": "bool",
          "name": "isWhitelisted",
          "type": "bool"
        }
      ],
      "name": "setWhitelistedToken",
      "outputs": [],
      "stateMutability": "nonpayable",
      "type": "function"
    },
    {
      "inputs": [],
      "name": "token",
      "outputs": [
        {
          "internalType": "contract PodyToken",
          "name": "",
          "type": "address"
        }
      ],
      "stateMutability": "view",
      "type": "function"
    },
    {
      "inputs": [
        {
          "internalType": "address",
          "name": "newOwner",
          "type": "address"
        }
      ],
      "name": "transferOwnership",
      "outputs": [],
      "stateMutability": "nonpayable",
      "type": "function"
    },
    {
      "inputs": [
        {
          "internalType": "uint256",
          "name": "newFee",
          "type": "uint256"
        }
      ],
      "name": "updateCommissionFee",
      "outputs": [],
      "stateMutability": "nonpayable",
      "type": "function"
    },
    {
      "inputs": [
        {
          "internalType": "uint256",
          "name": "newMinEtherAmount",
          "type": "uint256"
        },
        {
          "internalType": "uint256",
          "name": "newMaxEtherAmount",
          "type": "uint256"
        }
      ],
      "name": "updateMinMaxEtherGiftAmount",
      "outputs": [],
      "stateMutability": "nonpayable",
      "type": "function"
    },
    {
      "inputs": [
        {
          "internalType": "address",
          "name": "tokenAddress",
          "type": "address"
        },
        {
          "internalType": "uint256",
          "name": "newMinAmount",
          "type": "uint256"
        },
        {
          "internalType": "uint256",
          "name": "newMaxAmount",
          "type": "uint256"
        }
      ],
      "name": "updateMinMaxGiftAmount",
      "outputs": [],
      "stateMutability": "nonpayable",
      "type": "function"
    },
    {
      "inputs": [
        {
          "internalType": "address",
          "name": "",
          "type": "address"
        }
      ],
      "name": "whitelistedTokens",
      "outputs": [
        {
          "internalType": "bool",
          "name": "",
          "type": "bool"
        }
      ],
      "stateMutability": "view",
      "type": "function"
    }
  ],
  "bytecode": "0x60803461015257601f61101e38819003918201601f191683019291906001600160401b03841183851017610157578160c092849260409687528339810103126101525780516001600160a01b039182821691829003610152576020810151908481015190606081015160a0608083015192015192331561013a5792879593927fef81a9943b96c8df4ef243401c9bf5159146166211356898b52d382086168d92979592879460018060a01b03199485600154166001558760009687543382821617895589519b3391167f8be0079c531659141344cd1fd0a4f28419497f9722a3daafe3b4186f6b6457e08a80a36002541617600255600355868552600460205285852055600560205284842055600755600855600660205220600160ff19825416179055815260016020820152a151610eb0908161016e8239f35b8751631e4fbdf760e01b815260006004820152602490fd5b600080fd5b634e487b7160e01b600052604160045260246000fdfe6040608081526004908136101561001557600080fd5b600091823560e01c9081631e7343fb14610a06578163266ead171461094a5781634cdc4eed1461092b5781634eae79081461075557816364edc20f146106c15781636fb1eb0c146106a2578163715018a61461063d57816376ce28f1146105ac57816379ba509714610529578163891fa9331461050a5781638da5cb5b146104e257816393895d32146104ac578163c4c50acf1461030f578163daf9c210146102d1578163e30c3978146102a8578163e84c849f14610270578163f2fde38b14610200578163fa936e4e1461011f575063fc0c546a146100f457600080fd5b3461011b578160031936011261011b5760025490516001600160a01b039091168152602090f35b5080fd5b8391503461011b57606036600319011261011b5761013b610be2565b602435916044359061014b610e2e565b8184116101b1576001600160a01b03929092168085526020928352858520849055600583528585208290559451948552908401919091526040830152907f02b7b4cd8cc10848fc442bdfbce1d2b42bde2f70f4977fc57b8c9a2267e6f0a890606090a180f35b608490602087519162461bcd60e51b8352820152602360248201527f4d696e20616d6f756e742063616e6e6f7420657863656564206d617820616d6f6044820152621d5b9d60ea1b6064820152fd5b833461026d57602036600319011261026d5761021a610be2565b610222610e2e565b600180546001600160a01b0319166001600160a01b0392831690811790915582549091167f38d16b8cac22d99fc7c124b9cd0de2d3fa1faef420bfe791d8c362d765e227008380a380f35b80fd5b50503461011b57602036600319011261011b5760209181906001600160a01b03610298610be2565b1681526005845220549051908152f35b50503461011b578160031936011261011b5760015490516001600160a01b039091168152602090f35b50503461011b57602036600319011261011b5760209160ff9082906001600160a01b036102fc610be2565b1681526006855220541690519015158152f35b919050346104a857806003193601126104a85761032a610be2565b6001600160a01b0380821693602435929190610347861515610bfd565b816002541692838852602091808352610365878a2054871015610d42565b8489526005835261037b878a2054871115610d9a565b61039561271061038d60035489610c48565b048097610c71565b948388518092818d816103b78c6323b872dd60e01b9a8b8452338b8501610e0c565b03925af1801561049e57918793918593610481575b508560025416908b87815416936103f08c5197889687958694855233908501610e0c565b03925af180156104775791600080516020610e5b8339815191529594939161044393610449575b5050600254169451928392339684604091949392606082019560018060a01b0316825260208201520152565b0390a380f35b8161046892903d10610470575b6104608183610c7e565b810190610df4565b503880610417565b503d610456565b86513d8a823e3d90fd5b61049790843d8611610470576104608183610c7e565b50386103cc565b88513d8c823e3d90fd5b8280fd5b9050346104a85760203660031901126104a85760209282916001600160a01b036104d4610be2565b168252845220549051908152f35b50503461011b578160031936011261011b57905490516001600160a01b039091168152602090f35b50503461011b578160031936011261011b576020906008549051908152f35b919050346104a857826003193601126104a857600154916001600160a01b039133838516036105955750506001600160a01b031991821660015582543392811683178455167f8be0079c531659141344cd1fd0a4f28419497f9722a3daafe3b4186f6b6457e08380a380f35b60249250519063118cdaa760e01b82523390820152fd5b50503461011b578060031936011261011b576105c6610be2565b90602435801515809103610639577fef81a9943b96c8df4ef243401c9bf5159146166211356898b52d382086168d92926105fe610e2e565b6001600160a01b031690610613821515610cf6565b818552600660205282852060ff1981541660ff831617905582519182526020820152a180f35b8380fd5b833461026d578060031936011261026d57610656610e2e565b600180546001600160a01b03199081169091558154908116825581906001600160a01b03167f8be0079c531659141344cd1fd0a4f28419497f9722a3daafe3b4186f6b6457e08280a380f35b50503461011b578160031936011261011b576020906003549051908152f35b919050346104a85760203660031901126104a8578135916106e0610e2e565b611388831161071b5750816020917f8c4d35e54a3f2ef1134138fd8ea3daee6a3c89e10d2665996babdf70261e2c769360035551908152a180f35b6020606492519162461bcd60e51b835282015260156024820152744665652063616e6e6f74206578636565642035302560581b6044820152fd5b9050346104a85760603660031901126104a857610770610be2565b6001600160a01b039160443591602435918484169190828503610927578582169561079c871515610bfd565b6107a7841515610cf6565b8389526020926006845260ff898b205416156108ec57848a528284526107d2898b2054871015610d42565b848a52600584526107e8898b2054871115610d9a565b6107fa61271061038d60035489610c48565b948951938b86868061081b8b6323b872dd60e01b9889845233888501610e0c565b038184875af19485156108e057899688966108c3575b508154169361084d8d5197889687958694855233908501610e0c565b03925af180156108b95791600080516020610e5b833981519152959697916104439361089b575b505051928392339684604091949392606082019560018060a01b0316825260208201520152565b816108b192903d10610470576104608183610c7e565b503880610874565b87513d8a823e3d90fd5b6108d990873d8911610470576104608183610c7e565b5038610831565b508b51903d90823e3d90fd5b885162461bcd60e51b81528084018590526015602482015274151bdad95b881b9bdd081dda1a5d195b1a5cdd1959605a1b6044820152606490fd5b8780fd5b50503461011b578160031936011261011b576020906007549051908152f35b83833461011b578060031936011261011b5782356024359361096a610e2e565b8482116109ab57507f29d018e09acf0338eb66f17ec314c492e242622e5feb6c8ace3bb40a3a5804739293816007558060085582519182526020820152a180f35b608490602084519162461bcd60e51b8352820152602f60248201527f4d696e20457468657220616d6f756e742063616e6e6f7420657863656564206d60448201526e185e08115d1a195c88185b5bdd5b9d608a1b6064820152fd5b60209150366003190182136106395780356001600160a01b038181169491859003610bde57610a36851515610bfd565b6007543410610b9c576008543411610b5b57612710610a5760035434610c48565b0492610a638434610c71565b9187808080868b5af1610a74610cb6565b5015610b0e578780808781948254165af1610a8d610cb6565b5015610acb575081519373eeeeeeeeeeeeeeeeeeeeeeeeeeeeeeeeeeeeeeee8552840152820152600080516020610e5b83398151915260603392a380f35b825162461bcd60e51b8152908101859052601d60248201527f4661696c656420746f2073656e6420457468657220746f206f776e65720000006044820152606490fd5b835162461bcd60e51b8152808301879052602160248201527f4661696c656420746f2073656e6420457468657220746f20726563697069656e6044820152601d60fa1b6064820152608490fd5b509180606493519262461bcd60e51b845283015260248201527f416d6f756e742065786365656473206d6178696d756d20666f722045746865726044820152fd5b5091606492519162461bcd60e51b8352820152601e60248201527f416d6f756e742062656c6f77206d696e696d756d20666f7220457468657200006044820152fd5b8580fd5b600435906001600160a01b0382168203610bf857565b600080fd5b15610c0457565b606460405162461bcd60e51b815260206004820152602060248201527f526563697069656e7420616464726573732063616e6e6f74206265207a65726f6044820152fd5b81810292918115918404141715610c5b57565b634e487b7160e01b600052601160045260246000fd5b91908203918211610c5b57565b90601f8019910116810190811067ffffffffffffffff821117610ca057604052565b634e487b7160e01b600052604160045260246000fd5b3d15610cf1573d9067ffffffffffffffff8211610ca05760405191610ce5601f8201601f191660200184610c7e565b82523d6000602084013e565b606090565b15610cfd57565b60405162461bcd60e51b815260206004820152601c60248201527f546f6b656e20616464726573732063616e6e6f74206265207a65726f000000006044820152606490fd5b15610d4957565b60405162461bcd60e51b815260206004820152602360248201527f416d6f756e742062656c6f77206d696e696d756d20666f72207468697320746f60448201526235b2b760e91b6064820152608490fd5b15610da157565b60405162461bcd60e51b815260206004820152602560248201527f416d6f756e742065786365656473206d6178696d756d20666f722074686973206044820152643a37b5b2b760d91b6064820152608490fd5b90816020910312610bf857518015158103610bf85790565b6001600160a01b03918216815291166020820152604081019190915260600190565b6000546001600160a01b03163303610e4257565b60405163118cdaa760e01b8152336004820152602490fdfe6df11fb4556a783e86a9e286544336da83bafdb11cdfba24c9816ab08af191d0a264697066735822122066c5b011832e4c5646f0fd1092ea1552fb0ea4fec3d8d15981a4d2d64bd509a364736f6c63430008180033",
  "linkReferences": {},
  "deployedLinkReferences": {}
}