{
  "_format": "hh-sol-artifact-1",
  "contractName": "PodyGift",
  "sourceName": "contracts/PodyGift.sol",
  "abi": [
    {
      "inputs": [
        {
          "internalType": "address",
          "name": "tokenAddress",
          "type": "address"
        },
        {
          "internalType": "uint256",
          "name": "initialFee",
          "type": "uint256"
        },
        {
          "internalType": "uint256",
          "name": "initialMinGiftAmount",
          "type": "uint256"
        },
        {
          "internalType": "uint256",
          "name": "initialMaxGiftAmount",
          "type": "uint256"
        },
        {
          "internalType": "uint256",
          "name": "initialMinEtherAmount",
          "type": "uint256"
        },
        {
          "internalType": "uint256",
          "name": "initialMaxEtherAmount",
          "type": "uint256"
        }
      ],
      "stateMutability": "nonpayable",
      "type": "constructor"
    },
    {
      "inputs": [
        {
          "internalType": "address",
          "name": "owner",
          "type": "address"
        }
      ],
      "name": "OwnableInvalidOwner",
      "type": "error"
    },
    {
      "inputs": [
        {
          "internalType": "address",
          "name": "account",
          "type": "address"
        }
      ],
      "name": "OwnableUnauthorizedAccount",
      "type": "error"
    },
    {
      "anonymous": false,
      "inputs": [
        {
          "indexed": false,
          "internalType": "uint256",
          "name": "newFee",
          "type": "uint256"
        }
      ],
      "name": "FeeUpdated",
      "type": "event"
    },
    {
      "anonymous": false,
      "inputs": [
        {
          "indexed": true,
          "internalType": "address",
          "name": "sender",
          "type": "address"
        },
        {
          "indexed": true,
          "internalType": "address",
          "name": "recipient",
          "type": "address"
        },
        {
          "indexed": false,
          "internalType": "address",
          "name": "tokenAddress",
          "type": "address"
        },
        {
          "indexed": false,
          "internalType": "uint256",
          "name": "amountSent",
          "type": "uint256"
        },
        {
          "indexed": false,
          "internalType": "uint256",
          "name": "commission",
          "type": "uint256"
        }
      ],
      "name": "GiftSent",
      "type": "event"
    },
    {
      "anonymous": false,
      "inputs": [
        {
          "indexed": false,
          "internalType": "uint256",
          "name": "newMinEtherAmount",
          "type": "uint256"
        },
        {
          "indexed": false,
          "internalType": "uint256",
          "name": "newMaxEtherAmount",
          "type": "uint256"
        }
      ],
      "name": "MinMaxEtherGiftAmountUpdated",
      "type": "event"
    },
    {
      "anonymous": false,
      "inputs": [
        {
          "indexed": false,
          "internalType": "address",
          "name": "tokenAddress",
          "type": "address"
        },
        {
          "indexed": false,
          "internalType": "uint256",
          "name": "newMinAmount",
          "type": "uint256"
        },
        {
          "indexed": false,
          "internalType": "uint256",
          "name": "newMaxAmount",
          "type": "uint256"
        }
      ],
      "name": "MinMaxGiftAmountUpdated",
      "type": "event"
    },
    {
      "anonymous": false,
      "inputs": [
        {
          "indexed": true,
          "internalType": "address",
          "name": "previousOwner",
          "type": "address"
        },
        {
          "indexed": true,
          "internalType": "address",
          "name": "newOwner",
          "type": "address"
        }
      ],
      "name": "OwnershipTransferStarted",
      "type": "event"
    },
    {
      "anonymous": false,
      "inputs": [
        {
          "indexed": true,
          "internalType": "address",
          "name": "previousOwner",
          "type": "address"
        },
        {
          "indexed": true,
          "internalType": "address",
          "name": "newOwner",
          "type": "address"
        }
      ],
      "name": "OwnershipTransferred",
      "type": "event"
    },
    {
      "anonymous": false,
      "inputs": [
        {
          "indexed": false,
          "internalType": "address",
          "name": "newTokenAddress",
          "type": "address"
        }
      ],
      "name": "TokenUpdated",
      "type": "event"
    },
    {
      "anonymous": false,
      "inputs": [
        {
          "indexed": false,
          "internalType": "address",
          "name": "tokenAddress",
          "type": "address"
        },
        {
          "indexed": false,
          "internalType": "bool",
          "name": "isWhitelisted",
          "type": "bool"
        }
      ],
      "name": "TokenWhitelisted",
      "type": "event"
    },
    {
      "stateMutability": "payable",
      "type": "fallback"
    },
    {
      "inputs": [],
      "name": "acceptOwnership",
      "outputs": [],
      "stateMutability": "nonpayable",
      "type": "function"
    },
    {
      "inputs": [],
      "name": "commissionFee",
      "outputs": [
        {
          "internalType": "uint256",
          "name": "",
          "type": "uint256"
        }
      ],
      "stateMutability": "view",
      "type": "function"
    },
    {
      "inputs": [
        {
          "internalType": "address payable",
          "name": "recipient",
          "type": "address"
        }
      ],
      "name": "giftEther",
      "outputs": [],
      "stateMutability": "payable",
      "type": "function"
    },
    {
      "inputs": [
        {
          "internalType": "address",
          "name": "recipient",
          "type": "address"
        },
        {
          "internalType": "uint256",
          "name": "amount",
          "type": "uint256"
        },
        {
          "internalType": "address",
          "name": "tokenAddress",
          "type": "address"
        }
      ],
      "name": "giftTokens",
      "outputs": [],
      "stateMutability": "nonpayable",
      "type": "function"
    },
    {
      "inputs": [
        {
          "internalType": "address",
          "name": "recipient",
          "type": "address"
        },
        {
          "internalType": "uint256",
          "name": "amount",
          "type": "uint256"
        }
      ],
      "name": "giftTokens",
      "outputs": [],
      "stateMutability": "nonpayable",
      "type": "function"
    },
    {
      "inputs": [],
      "name": "maxEtherGiftAmount",
      "outputs": [
        {
          "internalType": "uint256",
          "name": "",
          "type": "uint256"
        }
      ],
      "stateMutability": "view",
      "type": "function"
    },
    {
      "inputs": [
        {
          "internalType": "address",
          "name": "",
          "type": "address"
        }
      ],
      "name": "maxGiftAmountForToken",
      "outputs": [
        {
          "internalType": "uint256",
          "name": "",
          "type": "uint256"
        }
      ],
      "stateMutability": "view",
      "type": "function"
    },
    {
      "inputs": [],
      "name": "minEtherGiftAmount",
      "outputs": [
        {
          "internalType": "uint256",
          "name": "",
          "type": "uint256"
        }
      ],
      "stateMutability": "view",
      "type": "function"
    },
    {
      "inputs": [
        {
          "internalType": "address",
          "name": "",
          "type": "address"
        }
      ],
      "name": "minGiftAmountForToken",
      "outputs": [
        {
          "internalType": "uint256",
          "name": "",
          "type": "uint256"
        }
      ],
      "stateMutability": "view",
      "type": "function"
    },
    {
      "inputs": [],
      "name": "owner",
      "outputs": [
        {
          "internalType": "address",
          "name": "",
          "type": "address"
        }
      ],
      "stateMutability": "view",
      "type": "function"
    },
    {
      "inputs": [],
      "name": "pendingOwner",
      "outputs": [
        {
          "internalType": "address",
          "name": "",
          "type": "address"
        }
      ],
      "stateMutability": "view",
      "type": "function"
    },
    {
      "inputs": [],
      "name": "renounceOwnership",
      "outputs": [],
      "stateMutability": "nonpayable",
      "type": "function"
    },
    {
      "inputs": [
        {
          "internalType": "address",
          "name": "tokenAddress",
          "type": "address"
        },
        {
          "internalType": "bool",
          "name": "isWhitelisted",
          "type": "bool"
        }
      ],
      "name": "setWhitelistedToken",
      "outputs": [],
      "stateMutability": "nonpayable",
      "type": "function"
    },
    {
      "inputs": [],
      "name": "token",
      "outputs": [
        {
          "internalType": "contract PodyToken",
          "name": "",
          "type": "address"
        }
      ],
      "stateMutability": "view",
      "type": "function"
    },
    {
      "inputs": [
        {
          "internalType": "address",
          "name": "newOwner",
          "type": "address"
        }
      ],
      "name": "transferOwnership",
      "outputs": [],
      "stateMutability": "nonpayable",
      "type": "function"
    },
    {
      "inputs": [
        {
          "internalType": "uint256",
          "name": "newFee",
          "type": "uint256"
        }
      ],
      "name": "updateCommissionFee",
      "outputs": [],
      "stateMutability": "nonpayable",
      "type": "function"
    },
    {
      "inputs": [
        {
          "internalType": "uint256",
          "name": "newMinEtherAmount",
          "type": "uint256"
        },
        {
          "internalType": "uint256",
          "name": "newMaxEtherAmount",
          "type": "uint256"
        }
      ],
      "name": "updateMinMaxEtherGiftAmount",
      "outputs": [],
      "stateMutability": "nonpayable",
      "type": "function"
    },
    {
      "inputs": [
        {
          "internalType": "address",
          "name": "tokenAddress",
          "type": "address"
        },
        {
          "internalType": "uint256",
          "name": "newMinAmount",
          "type": "uint256"
        },
        {
          "internalType": "uint256",
          "name": "newMaxAmount",
          "type": "uint256"
        }
      ],
      "name": "updateMinMaxGiftAmount",
      "outputs": [],
      "stateMutability": "nonpayable",
      "type": "function"
    },
    {
      "inputs": [
        {
          "internalType": "address",
          "name": "newTokenAddress",
          "type": "address"
        }
      ],
      "name": "updateToken",
      "outputs": [],
      "stateMutability": "nonpayable",
      "type": "function"
    },
    {
      "inputs": [
        {
          "internalType": "address",
          "name": "",
          "type": "address"
        }
      ],
      "name": "whitelistedTokens",
      "outputs": [
        {
          "internalType": "bool",
          "name": "",
          "type": "bool"
        }
      ],
      "stateMutability": "view",
      "type": "function"
    },
    {
      "stateMutability": "payable",
      "type": "receive"
    }
  ],
  "bytecode": "0x60803461015257601f61102e38819003918201601f191683019291906001600160401b03841183851017610157578160c092849260409687528339810103126101525780516001600160a01b039182821691829003610152576020810151908481015190606081015160a0608083015192015192331561013a5792879593927fef81a9943b96c8df4ef243401c9bf5159146166211356898b52d382086168d92979592879460018060a01b03199485600154166001558760009687543382821617895589519b3391167f8be0079c531659141344cd1fd0a4f28419497f9722a3daafe3b4186f6b6457e08a80a36002541617600255600355868552600460205285852055600560205284842055600755600855600660205220600160ff19825416179055815260016020820152a151610ec0908161016e8239f35b8751631e4fbdf760e01b815260006004820152602490fd5b600080fd5b634e487b7160e01b600052604160045260246000fdfe6040608081526004908136101561001d575b5050361561001b57005b005b600091823560e01c9081631e7343fb14610ad0578163266ead1714610a145781634cdc4eed146109f55781634eae79081461081f57816364edc20f1461078b5781636fb1eb0c1461076c578163715018a61461070757816376ce28f11461067657816379ba5097146105f35781637ad3def214610537578163891fa933146105185781638da5cb5b146104f057816393895d32146104ba578163c4c50acf1461031d578163daf9c210146102df578163e30c3978146102b6578163e84c849f1461027e578163f2fde38b1461020e578163fa936e4e1461012d575063fc0c546a03610011573461012957816003193601126101295760025490516001600160a01b039091168152602090f35b5080fd5b8391503461012957606036600319011261012957610149610c32565b6024359160443590610159610e3e565b8184116101bf576001600160a01b03929092168085526020928352858520849055600583528585208290559451948552908401919091526040830152907f02b7b4cd8cc10848fc442bdfbce1d2b42bde2f70f4977fc57b8c9a2267e6f0a890606090a180f35b608490602087519162461bcd60e51b8352820152602360248201527f4d696e20616d6f756e742063616e6e6f7420657863656564206d617820616d6f6044820152621d5b9d60ea1b6064820152fd5b833461027b57602036600319011261027b57610228610c32565b610230610e3e565b600180546001600160a01b0319166001600160a01b0392831690811790915582549091167f38d16b8cac22d99fc7c124b9cd0de2d3fa1faef420bfe791d8c362d765e227008380a380f35b80fd5b5050346101295760203660031901126101295760209181906001600160a01b036102a6610c32565b1681526005845220549051908152f35b50503461012957816003193601126101295760015490516001600160a01b039091168152602090f35b5050346101295760203660031901126101295760209160ff9082906001600160a01b0361030a610c32565b1681526006855220541690519015158152f35b919050346104b657806003193601126104b657610338610c32565b6001600160a01b0380821693602435929190610355861515610c4d565b816002541692838852602091808352610373878a2054871015610d1a565b84895260058352610389878a2054871115610d72565b6103a361271061039b60035489610c98565b048097610cc1565b948388518092818d816103c58c6323b872dd60e01b9a8b8452338b8501610e1c565b03925af180156104ac5791879391859361048f575b508560025416908b87815416936103fe8c5197889687958694855233908501610e1c565b03925af180156104855791600080516020610e6b8339815191529594939161045193610457575b5050600254169451928392339684604091949392606082019560018060a01b0316825260208201520152565b0390a380f35b8161047692903d1061047e575b61046e8183610dcc565b810190610e04565b503880610425565b503d610464565b86513d8a823e3d90fd5b6104a590843d861161047e5761046e8183610dcc565b50386103da565b88513d8c823e3d90fd5b8280fd5b9050346104b65760203660031901126104b65760209282916001600160a01b036104e2610c32565b168252845220549051908152f35b505034610129578160031936011261012957905490516001600160a01b039091168152602090f35b5050346101295781600319360112610129576020906008549051908152f35b505034610129576020366003190112610129577fef81a9943b96c8df4ef243401c9bf5159146166211356898b52d382086168d9290610574610c32565b61057c610e3e565b6001600160a01b0316610590811515610cce565b600280546001600160a01b0319168217905580845260066020908152828520805460ff1916600117905582518281527f5ba6b30cd4b2f9e9e67f4feb9b9df10d5da3b057598e6901b217b7d590345e309190a1815190815260016020820152a180f35b919050346104b657826003193601126104b657600154916001600160a01b0391338385160361065f5750506001600160a01b031991821660015582543392811683178455167f8be0079c531659141344cd1fd0a4f28419497f9722a3daafe3b4186f6b6457e08380a380f35b60249250519063118cdaa760e01b82523390820152fd5b505034610129578060031936011261012957610690610c32565b90602435801515809103610703577fef81a9943b96c8df4ef243401c9bf5159146166211356898b52d382086168d92926106c8610e3e565b6001600160a01b0316906106dd821515610cce565b818552600660205282852060ff1981541660ff831617905582519182526020820152a180f35b8380fd5b833461027b578060031936011261027b57610720610e3e565b600180546001600160a01b03199081169091558154908116825581906001600160a01b03167f8be0079c531659141344cd1fd0a4f28419497f9722a3daafe3b4186f6b6457e08280a380f35b5050346101295781600319360112610129576020906003549051908152f35b919050346104b65760203660031901126104b6578135916107aa610e3e565b61138883116107e55750816020917f8c4d35e54a3f2ef1134138fd8ea3daee6a3c89e10d2665996babdf70261e2c769360035551908152a180f35b6020606492519162461bcd60e51b835282015260156024820152744665652063616e6e6f74206578636565642035302560581b6044820152fd5b9050346104b65760603660031901126104b65761083a610c32565b6001600160a01b0391604435916024359184841691908285036109f15785821695610866871515610c4d565b610871841515610cce565b8389526020926006845260ff898b205416156109b657848a5282845261089c898b2054871015610d1a565b848a52600584526108b2898b2054871115610d72565b6108c461271061039b60035489610c98565b948951938b8686806108e58b6323b872dd60e01b9889845233888501610e1c565b038184875af19485156109aa578996889661098d575b50815416936109178d5197889687958694855233908501610e1c565b03925af180156109835791600080516020610e6b8339815191529596979161045193610965575b505051928392339684604091949392606082019560018060a01b0316825260208201520152565b8161097b92903d1061047e5761046e8183610dcc565b50388061093e565b87513d8a823e3d90fd5b6109a390873d891161047e5761046e8183610dcc565b50386108fb565b508b51903d90823e3d90fd5b885162461bcd60e51b81528084018590526015602482015274151bdad95b881b9bdd081dda1a5d195b1a5cdd1959605a1b6044820152606490fd5b8780fd5b5050346101295781600319360112610129576020906007549051908152f35b838334610129578060031936011261012957823560243593610a34610e3e565b848211610a7557507f29d018e09acf0338eb66f17ec314c492e242622e5feb6c8ace3bb40a3a5804739293816007558060085582519182526020820152a180f35b608490602084519162461bcd60e51b8352820152602f60248201527f4d696e20457468657220616d6f756e742063616e6e6f7420657863656564206d60448201526e185e08115d1a195c88185b5bdd5b9d608a1b6064820152fd5b905060203660031901126104b6576001600160a01b03813581811693919290849003610c2e57610b01841515610c4d565b6007543410610bec576008543411610baa5750612710610b2360035434610c98565b049084610b308334610cc1565b93818587828215610ba1575b839283928392f115610b95578180858193825416828215610b8c575bf115610b83578051928584526020840152820152600080516020610e6b83398151915260603392a380f35b513d85823e3d90fd5b506108fc610b58565b509051903d90823e3d90fd5b506108fc610b3c565b6020606492519162461bcd60e51b8352820152602060248201527f416d6f756e742065786365656473206d6178696d756d20666f722045746865726044820152fd5b6020606492519162461bcd60e51b8352820152601e60248201527f416d6f756e742062656c6f77206d696e696d756d20666f7220457468657200006044820152fd5b8480fd5b600435906001600160a01b0382168203610c4857565b600080fd5b15610c5457565b606460405162461bcd60e51b815260206004820152602060248201527f526563697069656e7420616464726573732063616e6e6f74206265207a65726f6044820152fd5b81810292918115918404141715610cab57565b634e487b7160e01b600052601160045260246000fd5b91908203918211610cab57565b15610cd557565b60405162461bcd60e51b815260206004820152601c60248201527f546f6b656e20616464726573732063616e6e6f74206265207a65726f000000006044820152606490fd5b15610d2157565b60405162461bcd60e51b815260206004820152602360248201527f416d6f756e742062656c6f77206d696e696d756d20666f72207468697320746f60448201526235b2b760e91b6064820152608490fd5b15610d7957565b60405162461bcd60e51b815260206004820152602560248201527f416d6f756e742065786365656473206d6178696d756d20666f722074686973206044820152643a37b5b2b760d91b6064820152608490fd5b90601f8019910116810190811067ffffffffffffffff821117610dee57604052565b634e487b7160e01b600052604160045260246000fd5b90816020910312610c4857518015158103610c485790565b6001600160a01b03918216815291166020820152604081019190915260600190565b6000546001600160a01b03163303610e5257565b60405163118cdaa760e01b8152336004820152602490fdfe6df11fb4556a783e86a9e286544336da83bafdb11cdfba24c9816ab08af191d0a264697066735822122036918f3a636d7326defcb5afb07d0eb1420bb22c96b40bd7d37836527a24c4a764736f6c63430008180033",
  "linkReferences": {},
  "deployedLinkReferences": {}
}