{
  "_format": "hh-sol-artifact-1",
  "contractName": "PodyPassport",
  "sourceName": "contracts/PodyPassport.sol",
  "abi": [
    {
      "inputs": [
        {
          "internalType": "address",
          "name": "_multiSigWallet",
          "type": "address"
        }
      ],
      "stateMutability": "nonpayable",
      "type": "constructor"
    },
    {
      "inputs": [
        {
          "internalType": "address",
          "name": "signer",
          "type": "address"
        },
        {
          "internalType": "address",
          "name": "owner",
          "type": "address"
        }
      ],
      "name": "ClaimPointsOperationFailed",
      "type": "error"
    },
    {
      "inputs": [],
      "name": "ECDSAInvalidSignature",
      "type": "error"
    },
    {
      "inputs": [
        {
          "internalType": "uint256",
          "name": "length",
          "type": "uint256"
        }
      ],
      "name": "ECDSAInvalidSignatureLength",
      "type": "error"
    },
    {
      "inputs": [
        {
          "internalType": "bytes32",
          "name": "s",
          "type": "bytes32"
        }
      ],
      "name": "ECDSAInvalidSignatureS",
      "type": "error"
    },
    {
      "inputs": [
        {
          "internalType": "address",
          "name": "sender",
          "type": "address"
        },
        {
          "internalType": "uint256",
          "name": "balance",
          "type": "uint256"
        },
        {
          "internalType": "uint256",
          "name": "needed",
          "type": "uint256"
        },
        {
          "internalType": "uint256",
          "name": "tokenId",
          "type": "uint256"
        }
      ],
      "name": "ERC1155InsufficientBalance",
      "type": "error"
    },
    {
      "inputs": [
        {
          "internalType": "address",
          "name": "approver",
          "type": "address"
        }
      ],
      "name": "ERC1155InvalidApprover",
      "type": "error"
    },
    {
      "inputs": [
        {
          "internalType": "uint256",
          "name": "idsLength",
          "type": "uint256"
        },
        {
          "internalType": "uint256",
          "name": "valuesLength",
          "type": "uint256"
        }
      ],
      "name": "ERC1155InvalidArrayLength",
      "type": "error"
    },
    {
      "inputs": [
        {
          "internalType": "address",
          "name": "operator",
          "type": "address"
        }
      ],
      "name": "ERC1155InvalidOperator",
      "type": "error"
    },
    {
      "inputs": [
        {
          "internalType": "address",
          "name": "receiver",
          "type": "address"
        }
      ],
      "name": "ERC1155InvalidReceiver",
      "type": "error"
    },
    {
      "inputs": [
        {
          "internalType": "address",
          "name": "sender",
          "type": "address"
        }
      ],
      "name": "ERC1155InvalidSender",
      "type": "error"
    },
    {
      "inputs": [
        {
          "internalType": "address",
          "name": "operator",
          "type": "address"
        },
        {
          "internalType": "address",
          "name": "owner",
          "type": "address"
        }
      ],
      "name": "ERC1155MissingApprovalForAll",
      "type": "error"
    },
    {
      "inputs": [
        {
          "internalType": "address",
          "name": "owner",
          "type": "address"
        }
      ],
      "name": "OwnableInvalidOwner",
      "type": "error"
    },
    {
      "inputs": [
        {
          "internalType": "address",
          "name": "account",
          "type": "address"
        }
      ],
      "name": "OwnableUnauthorizedAccount",
      "type": "error"
    },
    {
      "anonymous": false,
      "inputs": [
        {
          "indexed": true,
          "internalType": "address",
          "name": "account",
          "type": "address"
        },
        {
          "indexed": true,
          "internalType": "address",
          "name": "operator",
          "type": "address"
        },
        {
          "indexed": false,
          "internalType": "bool",
          "name": "approved",
          "type": "bool"
        }
      ],
      "name": "ApprovalForAll",
      "type": "event"
    },
    {
      "anonymous": false,
      "inputs": [
        {
          "indexed": true,
          "internalType": "address",
          "name": "token",
          "type": "address"
        },
        {
          "indexed": true,
          "internalType": "address",
          "name": "to",
          "type": "address"
        },
        {
          "indexed": false,
          "internalType": "uint256",
          "name": "amount",
          "type": "uint256"
        }
      ],
      "name": "FundsWithdrawn",
      "type": "event"
    },
    {
      "anonymous": false,
      "inputs": [
        {
          "indexed": true,
          "internalType": "address",
          "name": "user",
          "type": "address"
        },
        {
          "indexed": true,
          "internalType": "uint256",
          "name": "id",
          "type": "uint256"
        }
      ],
      "name": "NFTMinted",
      "type": "event"
    },
    {
      "anonymous": false,
      "inputs": [
        {
          "indexed": true,
          "internalType": "address",
          "name": "previousOwner",
          "type": "address"
        },
        {
          "indexed": true,
          "internalType": "address",
          "name": "newOwner",
          "type": "address"
        }
      ],
      "name": "OwnershipTransferStarted",
      "type": "event"
    },
    {
      "anonymous": false,
      "inputs": [
        {
          "indexed": true,
          "internalType": "address",
          "name": "previousOwner",
          "type": "address"
        },
        {
          "indexed": true,
          "internalType": "address",
          "name": "newOwner",
          "type": "address"
        }
      ],
      "name": "OwnershipTransferred",
      "type": "event"
    },
    {
      "anonymous": false,
      "inputs": [
        {
          "indexed": true,
          "internalType": "address",
          "name": "user",
          "type": "address"
        },
        {
          "indexed": false,
          "internalType": "uint256",
          "name": "points",
          "type": "uint256"
        }
      ],
      "name": "PointsClaimed",
      "type": "event"
    },
    {
      "anonymous": false,
      "inputs": [
        {
          "indexed": true,
          "internalType": "address",
          "name": "operator",
          "type": "address"
        },
        {
          "indexed": true,
          "internalType": "address",
          "name": "from",
          "type": "address"
        },
        {
          "indexed": true,
          "internalType": "address",
          "name": "to",
          "type": "address"
        },
        {
          "indexed": false,
          "internalType": "uint256[]",
          "name": "ids",
          "type": "uint256[]"
        },
        {
          "indexed": false,
          "internalType": "uint256[]",
          "name": "values",
          "type": "uint256[]"
        }
      ],
      "name": "TransferBatch",
      "type": "event"
    },
    {
      "anonymous": false,
      "inputs": [
        {
          "indexed": true,
          "internalType": "address",
          "name": "operator",
          "type": "address"
        },
        {
          "indexed": true,
          "internalType": "address",
          "name": "from",
          "type": "address"
        },
        {
          "indexed": true,
          "internalType": "address",
          "name": "to",
          "type": "address"
        },
        {
          "indexed": false,
          "internalType": "uint256",
          "name": "id",
          "type": "uint256"
        },
        {
          "indexed": false,
          "internalType": "uint256",
          "name": "value",
          "type": "uint256"
        }
      ],
      "name": "TransferSingle",
      "type": "event"
    },
    {
      "anonymous": false,
      "inputs": [
        {
          "indexed": false,
          "internalType": "string",
          "name": "value",
          "type": "string"
        },
        {
          "indexed": true,
          "internalType": "uint256",
          "name": "id",
          "type": "uint256"
        }
      ],
      "name": "URI",
      "type": "event"
    },
    {
      "inputs": [],
      "name": "BRONZE",
      "outputs": [
        {
          "internalType": "uint256",
          "name": "",
          "type": "uint256"
        }
      ],
      "stateMutability": "view",
      "type": "function"
    },
    {
      "inputs": [],
      "name": "DIAMOND",
      "outputs": [
        {
          "internalType": "uint256",
          "name": "",
          "type": "uint256"
        }
      ],
      "stateMutability": "view",
      "type": "function"
    },
    {
      "inputs": [],
      "name": "GOLD",
      "outputs": [
        {
          "internalType": "uint256",
          "name": "",
          "type": "uint256"
        }
      ],
      "stateMutability": "view",
      "type": "function"
    },
    {
      "inputs": [],
      "name": "PLATINUM",
      "outputs": [
        {
          "internalType": "uint256",
          "name": "",
          "type": "uint256"
        }
      ],
      "stateMutability": "view",
      "type": "function"
    },
    {
      "inputs": [],
      "name": "SILVER",
      "outputs": [
        {
          "internalType": "uint256",
          "name": "",
          "type": "uint256"
        }
      ],
      "stateMutability": "view",
      "type": "function"
    },
    {
      "inputs": [],
      "name": "acceptOwnership",
      "outputs": [],
      "stateMutability": "nonpayable",
      "type": "function"
    },
    {
      "inputs": [
        {
          "internalType": "address",
          "name": "account",
          "type": "address"
        },
        {
          "internalType": "uint256",
          "name": "id",
          "type": "uint256"
        }
      ],
      "name": "balanceOf",
      "outputs": [
        {
          "internalType": "uint256",
          "name": "",
          "type": "uint256"
        }
      ],
      "stateMutability": "view",
      "type": "function"
    },
    {
      "inputs": [
        {
          "internalType": "address[]",
          "name": "accounts",
          "type": "address[]"
        },
        {
          "internalType": "uint256[]",
          "name": "ids",
          "type": "uint256[]"
        }
      ],
      "name": "balanceOfBatch",
      "outputs": [
        {
          "internalType": "uint256[]",
          "name": "",
          "type": "uint256[]"
        }
      ],
      "stateMutability": "view",
      "type": "function"
    },
    {
      "inputs": [
        {
          "internalType": "address",
          "name": "userAddress",
          "type": "address"
        },
        {
          "internalType": "string",
          "name": "nonce",
          "type": "string"
        },
        {
          "internalType": "uint256",
          "name": "points",
          "type": "uint256"
        },
        {
          "internalType": "bytes",
          "name": "signature",
          "type": "bytes"
        }
      ],
      "name": "claimPoints",
      "outputs": [],
      "stateMutability": "nonpayable",
      "type": "function"
    },
    {
      "inputs": [
        {
          "internalType": "address",
          "name": "userAddress",
          "type": "address"
        },
        {
          "internalType": "string",
          "name": "nonce",
          "type": "string"
        },
        {
          "internalType": "uint256",
          "name": "points",
          "type": "uint256"
        }
      ],
      "name": "generatePoints",
      "outputs": [
        {
          "internalType": "bytes32",
          "name": "",
          "type": "bytes32"
        }
      ],
      "stateMutability": "view",
      "type": "function"
    },
    {
      "inputs": [
        {
          "internalType": "uint256",
          "name": "",
          "type": "uint256"
        }
      ],
      "name": "hashRates",
      "outputs": [
        {
          "internalType": "uint256",
          "name": "",
          "type": "uint256"
        }
      ],
      "stateMutability": "view",
      "type": "function"
    },
    {
      "inputs": [
        {
          "internalType": "address",
          "name": "account",
          "type": "address"
        },
        {
          "internalType": "address",
          "name": "operator",
          "type": "address"
        }
      ],
      "name": "isApprovedForAll",
      "outputs": [
        {
          "internalType": "bool",
          "name": "",
          "type": "bool"
        }
      ],
      "stateMutability": "view",
      "type": "function"
    },
    {
      "inputs": [
        {
          "internalType": "address",
          "name": "account",
          "type": "address"
        },
        {
          "internalType": "bytes",
          "name": "data",
          "type": "bytes"
        }
      ],
      "name": "mint",
      "outputs": [],
      "stateMutability": "payable",
      "type": "function"
    },
    {
      "inputs": [],
      "name": "multiSigWallet",
      "outputs": [
        {
          "internalType": "address",
          "name": "",
          "type": "address"
        }
      ],
      "stateMutability": "view",
      "type": "function"
    },
    {
      "inputs": [],
      "name": "owner",
      "outputs": [
        {
          "internalType": "address",
          "name": "",
          "type": "address"
        }
      ],
      "stateMutability": "view",
      "type": "function"
    },
    {
      "inputs": [],
      "name": "pendingOwner",
      "outputs": [
        {
          "internalType": "address",
          "name": "",
          "type": "address"
        }
      ],
      "stateMutability": "view",
      "type": "function"
    },
    {
      "inputs": [
        {
          "internalType": "uint256",
          "name": "",
          "type": "uint256"
        }
      ],
      "name": "prices",
      "outputs": [
        {
          "internalType": "uint256",
          "name": "",
          "type": "uint256"
        }
      ],
      "stateMutability": "view",
      "type": "function"
    },
    {
      "inputs": [],
      "name": "renounceOwnership",
      "outputs": [],
      "stateMutability": "nonpayable",
      "type": "function"
    },
    {
      "inputs": [
        {
          "internalType": "address",
          "name": "from",
          "type": "address"
        },
        {
          "internalType": "address",
          "name": "to",
          "type": "address"
        },
        {
          "internalType": "uint256[]",
          "name": "ids",
          "type": "uint256[]"
        },
        {
          "internalType": "uint256[]",
          "name": "amounts",
          "type": "uint256[]"
        },
        {
          "internalType": "bytes",
          "name": "data",
          "type": "bytes"
        }
      ],
      "name": "safeBatchTransferFrom",
      "outputs": [],
      "stateMutability": "nonpayable",
      "type": "function"
    },
    {
      "inputs": [
        {
          "internalType": "address",
          "name": "from",
          "type": "address"
        },
        {
          "internalType": "address",
          "name": "to",
          "type": "address"
        },
        {
          "internalType": "uint256",
          "name": "id",
          "type": "uint256"
        },
        {
          "internalType": "uint256",
          "name": "amount",
          "type": "uint256"
        },
        {
          "internalType": "bytes",
          "name": "data",
          "type": "bytes"
        }
      ],
      "name": "safeTransferFrom",
      "outputs": [],
      "stateMutability": "nonpayable",
      "type": "function"
    },
    {
      "inputs": [
        {
          "internalType": "address",
          "name": "operator",
          "type": "address"
        },
        {
          "internalType": "bool",
          "name": "approved",
          "type": "bool"
        }
      ],
      "name": "setApprovalForAll",
      "outputs": [],
      "stateMutability": "nonpayable",
      "type": "function"
    },
    {
      "inputs": [
        {
          "internalType": "address",
          "name": "_multiSigWallet",
          "type": "address"
        }
      ],
      "name": "setMultiSigWallet",
      "outputs": [],
      "stateMutability": "nonpayable",
      "type": "function"
    },
    {
      "inputs": [
        {
          "internalType": "bytes4",
          "name": "interfaceId",
          "type": "bytes4"
        }
      ],
      "name": "supportsInterface",
      "outputs": [
        {
          "internalType": "bool",
          "name": "",
          "type": "bool"
        }
      ],
      "stateMutability": "view",
      "type": "function"
    },
    {
      "inputs": [
        {
          "internalType": "address",
          "name": "newOwner",
          "type": "address"
        }
      ],
      "name": "transferOwnership",
      "outputs": [],
      "stateMutability": "nonpayable",
      "type": "function"
    },
    {
      "inputs": [
        {
          "internalType": "uint256",
          "name": "",
          "type": "uint256"
        }
      ],
      "name": "uri",
      "outputs": [
        {
          "internalType": "string",
          "name": "",
          "type": "string"
        }
      ],
      "stateMutability": "view",
      "type": "function"
    },
    {
      "inputs": [
        {
          "internalType": "string",
          "name": "",
          "type": "string"
        }
      ],
      "name": "usedNonces",
      "outputs": [
        {
          "internalType": "bool",
          "name": "",
          "type": "bool"
        }
      ],
      "stateMutability": "view",
      "type": "function"
    },
    {
      "inputs": [
        {
          "internalType": "address",
          "name": "",
          "type": "address"
        }
      ],
      "name": "users",
      "outputs": [
        {
          "internalType": "uint256",
          "name": "hashRate",
          "type": "uint256"
        },
        {
          "internalType": "uint256",
          "name": "points",
          "type": "uint256"
        },
        {
          "internalType": "uint256",
          "name": "level",
          "type": "uint256"
        }
      ],
      "stateMutability": "view",
      "type": "function"
    },
    {
      "inputs": [
        {
          "internalType": "contract IERC20",
          "name": "token",
          "type": "address"
        },
        {
          "internalType": "address",
          "name": "to",
          "type": "address"
        },
        {
          "internalType": "uint256",
          "name": "amount",
          "type": "uint256"
        }
      ],
      "name": "withdrawERC20",
      "outputs": [],
      "stateMutability": "nonpayable",
      "type": "function"
    }
  ],
  "bytecode": "0x6080346200031757601f62001e5d38819003918201601f19168301926001600160401b0392909190838511838610176200030157808392604096875283396020928391810103126200031757516001600160a01b039290838116908190036200031757845191606083019081118382101762000301578552603b82527f68747470733a2f2f6170692e706f64792e6e6574776f726b2f6e66742f706f64838301527f792d706f696e74732f6d657461646174612f7b69647d2e6a736f6e0000000000858301526002938454926001938481811c91168015620002f6575b86821014620002e057601f8111620002ad575b50849086600052856000209160005b87878183106200029857505050015164ffffffffff19169055607785553315620002805760018060a01b031990816004541660045560035433838216176003558751913391167f8be0079c531659141344cd1fd0a4f28419497f9722a3daafe3b4186f6b6457e0600080a382156200023e575090600793929160095416176009558060005260068252670de0b6b3a76400008560002055836000526714d1120d7b16000085600020556003600052671bc16d674ec80000856000205560046000526722b1c8c1227a0000856000205560056000526729a2241af62c000085600020556000525260008281205560005266038d7ea4c680008160002055600360005266071afd498d000081600020556004600052660e35fa931a0000816000205560056000526611c37937e08000816000205551611b4090816200031d8239f35b62461bcd60e51b815260048101859052601f60248201527f496e76616c6964206d756c74697369672077616c6c65742061646472657373006044820152606490fd5b8551631e4fbdf760e01b815260006004820152602490fd5b839582939486015181550194019101620000fe565b866000528487601f88600020930160051c830192015b828110620002d3575050620000ef565b60008155018590620002c3565b634e487b7160e01b600052602260045260246000fd5b90607f1690620000dc565b634e487b7160e01b600052604160045260246000fd5b600080fdfe6080604052600436101561001257600080fd5b60003560e01c8062fdd58e146101d657806301ffc9a7146101d15780630e89341c146101cc578063206545c2146101c75780632eb2c2d6146101c25780633e4bee38146101bd57806344004cc1146101b85780634b8feb4f146101b35780634e1273f4146101ae57806356f0593a146101a9578063715018a6146101a457806379ba50971461019f5780638da5cb5b1461019a578063904517bc14610195578063a22cb46514610190578063a87430ba1461018b578063b510391f14610186578063bc31c1c114610181578063e00fd5431461017c578063e30c397814610177578063e3e55f0814610172578063e4f376f01461016d578063e6af916b14610168578063e985e9c514610163578063f03b0c0b1461015e578063f242432a14610159578063f2fde38b146101545763f528d8721461014f57600080fd5b6110f8565b611087565b610fff565b610f70565b610f14565b610d96565b610d4e565b610d0c565b610ce3565b610cc7565b610c9b565b610b47565b610af3565b610a3f565b6109e2565b6109b9565b610937565b6108cc565b6108b0565b6107f4565b610786565b6105f3565b6105d7565b610558565b610427565b61031e565b610254565b6101f1565b6001600160a01b038116036101ec57565b600080fd5b346101ec5760403660031901126101ec576020610239600435610213816101db565b6024356000526000835260406000209060018060a01b0316600052602052604060002090565b54604051908152f35b6001600160e01b03198116036101ec57565b346101ec5760203660031901126101ec57602060043561027381610242565b63ffffffff60e01b16636cdb3d1360e11b81149081156102b1575b81156102a0575b506040519015158152f35b6301ffc9a760e01b14905038610295565b6303a24d0760e21b8114915061028e565b60005b8381106102d55750506000910152565b81810151838201526020016102c5565b906020916102fe815180928185528580860191016102c2565b601f01601f1916010190565b90602061031b9281815201906102e5565b90565b346101ec576020806003193601126101ec57604051906000906002546001918160011c926001831692831561041d575b6020851084146104095784875260208701939081156103ea5750600114610390575b61038c8661038081880382610459565b6040519182918261030a565b0390f35b6002600090815294509192917f405787fa12a823e0f2b7631cc41b3ba8828b3321ca811111fa75cd3aa3bb5ace5b8386106103d957505050910190506103808261038c38610370565b8054858701529482019481016103be565b60ff1916845250505090151560051b0190506103808261038c38610370565b634e487b7160e01b86526022600452602486fd5b93607f169361034e565b346101ec5760003660031901126101ec57602060405160058152f35b634e487b7160e01b600052604160045260246000fd5b90601f801991011681019081106001600160401b0382111761047a57604052565b610443565b6001600160401b03811161047a5760051b60200190565b9080601f830112156101ec5760209082356104b08161047f565b936104be6040519586610459565b81855260208086019260051b8201019283116101ec57602001905b8282106104e7575050505090565b813581529083019083016104d9565b6001600160401b03811161047a57601f01601f191660200190565b81601f820112156101ec57803590610528826104f6565b926105366040519485610459565b828452602083830101116101ec57816000926020809301838601378301015290565b346101ec5760a03660031901126101ec576105746004356101db565b61057f6024356101db565b6001600160401b036044358181116101ec5761059f903690600401610496565b506064358181116101ec576105b8903690600401610496565b506084359081116101ec576105d1903690600401610511565b50611124565b346101ec5760003660031901126101ec57602060405160038152f35b346101ec5760603660031901126101ec57600435610610816101db565b6024359061061d826101db565b6044356106286115ea565b6001600160a01b039182169161063f831515611165565b83169261064d8415156111a9565b6106588215156111f1565b6040516370a0823160e01b8152306004820152602092908381602481885afa908115610754576106cb9361069a8487948194600091610759575b501015611257565b60405163a9059cbb60e01b81526001600160a01b039091166004820152602481019190915292839081906044820190565b03816000885af1928315610754577fa92ff919b850e4909ab2261d907ef955f11bc1716733a6cbece38d163a69af8a936107229361071292600092610727575b50506112b8565b6040519081529081906020820190565b0390a3005b6107469250803d1061074d575b61073e8183610459565b8101906112a3565b388061070b565b503d610734565b61124b565b6107799150863d881161077f575b6107718183610459565b81019061123c565b38610692565b503d610767565b346101ec5760003660031901126101ec576009546040516001600160a01b039091168152602090f35b90815180825260208080930193019160005b8281106107cf575050505090565b8351855293810193928101926001016107c1565b90602061031b9281815201906107af565b346101ec5760403660031901126101ec576004356001600160401b038082116101ec57366023830112156101ec5781600401356108308161047f565b9261083e6040519485610459565b8184526020916024602086019160051b830101913683116101ec57602401905b82821061089757856024358681116101ec5761038c9161088561088b923690600401610496565b90611326565b604051918291826107e3565b83809183356108a5816101db565b81520191019061085e565b346101ec5760003660031901126101ec57602060405160048152f35b346101ec57600080600319360112610934576108e66115ea565b600480546001600160a01b031990811690915560038054918216905581906001600160a01b03167f8be0079c531659141344cd1fd0a4f28419497f9722a3daafe3b4186f6b6457e08280a380f35b80fd5b346101ec57600080600319360112610934576004546001600160a01b0333818316036109a1576001600160a01b031991821660045560038054339381168417909155167f8be0079c531659141344cd1fd0a4f28419497f9722a3daafe3b4186f6b6457e08380a380f35b60405163118cdaa760e01b8152336004820152602490fd5b346101ec5760003660031901126101ec576003546040516001600160a01b039091168152602090f35b346101ec5760603660031901126101ec576004356109ff816101db565b6024356001600160401b0381116101ec57602091610a24610a2d923690600401610511565b604435916113e5565b604051908152f35b801515036101ec57565b346101ec5760403660031901126101ec57600435610a5c816101db565b602435610a6881610a35565b6001600160a01b038216918215610adb573360009081526001602090815260408083206001600160a01b039094168352929052209015159060ff1981541660ff83161790556040519081527f17307eab39ab6107e8899845ad3d59bd9653f200f220920489ca2b5937696c3160203392a3005b60405162ced3e160e81b815260006004820152602490fd5b346101ec5760203660031901126101ec57600435610b10816101db565b60018060a01b0316600052600560205260606040600020805490600260018201549101549060405192835260208301526040820152f35b60403660031901126101ec57600435610b5f816101db565b6024356001600160401b0381116101ec57610b7e903690600401610511565b6001600160a01b038216600090815260056020526040902090919060028101805491610bac6005841061144a565b610bc7610bb8846114a1565b958694610c0f575b84866115fe565b610bdb836000526006602052604060002090565b549055556001600160a01b03167f4cc0a9c4a99ddc700de1af2c9f916a7cbfdb71f14801ccff94061ad1ef8a8040600080a3005b610c2e610c26866000526007602052604060002090565b5434146114d2565b610c58600080808034610c4860095460018060a01b031690565b5af1610c52611518565b50611548565b6009546040513481526001600160a01b03909116906000907fa92ff919b850e4909ab2261d907ef955f11bc1716733a6cbece38d163a69af8a90602090a3610bc0565b346101ec5760203660031901126101ec5760043560005260076020526020604060002054604051908152f35b346101ec5760003660031901126101ec57602060405160018152f35b346101ec5760003660031901126101ec576004546040516001600160a01b039091168152602090f35b346101ec5760003660031901126101ec57602060405160028152f35b6020610d419181604051938285809451938492016102c2565b8101600881520301902090565b346101ec5760203660031901126101ec576004356001600160401b0381116101ec5760ff610d8a610d856020933690600401610511565b610d28565b54166040519015158152f35b346101ec5760803660031901126101ec57600435610db3816101db565b6001600160401b03906024358281116101ec57610dd4903690600401610511565b90604435926064359081116101ec57610df1903690600401610511565b9060ff610dfd84610d28565b5416610edf57610ed1610ec47fba953728785de35be3827ee7a7a7867a8472947562602939440e6c0bdbf4725e946001610e8f610e4c8660018060a01b03166000526005602052604060002090565b96610e8a610e5b8b868a6113e5565b7f19457468657265756d205369676e6564204d6573736167653a0a333200000000600052601c52603c60002090565b6117aa565b600354909690610eb1906001600160a01b0316838060a01b03809916146115a4565b01610ebd8882546114c5565b9055610d28565b805460ff19166001179055565b6040519384521691602090a2005b60405162461bcd60e51b815260206004820152600d60248201526c496e76616c6964206e6f6e636560981b6044820152606490fd5b346101ec5760403660031901126101ec57602060ff610d8a600435610f38816101db565b60243590610f45826101db565b60018060a01b03166000526001845260406000209060018060a01b0316600052602052604060002090565b346101ec5760203660031901126101ec57600435610f8d816101db565b610f956115ea565b6001600160a01b03168015610fba57600980546001600160a01b031916919091179055005b60405162461bcd60e51b815260206004820152601f60248201527f496e76616c6964206d756c74697369672077616c6c65742061646472657373006044820152606490fd5b346101ec5760a03660031901126101ec5761101b6004356101db565b6110266024356101db565b6084356001600160401b0381116101ec57611045903690600401610511565b5060405162461bcd60e51b8152602060048201526019602482015278151c985b9cd9995c9cc8185c99481b9bdd08185b1b1bddd959603a1b6044820152606490fd5b346101ec5760203660031901126101ec576004356110a4816101db565b6110ac6115ea565b600480546001600160a01b0319166001600160a01b039283169081179091556003549091167f38d16b8cac22d99fc7c124b9cd0de2d3fa1faef420bfe791d8c362d765e22700600080a3005b346101ec5760203660031901126101ec5760043560005260066020526020604060002054604051908152f35b60405162461bcd60e51b8152602060048201526019602482015278151c985b9cd9995c9cc8185c99481b9bdd08185b1b1bddd959603a1b6044820152606490fd5b1561116c57565b60405162461bcd60e51b8152602060048201526015602482015274496e76616c696420746f6b656e206164647265737360581b6044820152606490fd5b156111b057565b60405162461bcd60e51b8152602060048201526019602482015278496e76616c696420726563697069656e74206164647265737360381b6044820152606490fd5b156111f857565b606460405162461bcd60e51b815260206004820152602060248201527f416d6f756e74206d7573742062652067726561746572207468616e207a65726f6044820152fd5b908160209103126101ec575190565b6040513d6000823e3d90fd5b1561125e57565b60405162461bcd60e51b815260206004820152601a60248201527f496e73756666696369656e7420746f6b656e2062616c616e63650000000000006044820152606490fd5b908160209103126101ec575161031b81610a35565b156112bf57565b60405162461bcd60e51b8152602060048201526015602482015274151bdad95b881d1c985b9cd9995c8819985a5b1959605a1b6044820152606490fd5b80518210156113105760209160051b010190565b634e487b7160e01b600052603260045260246000fd5b919091805183518082036113c357505080519061135b6113458361047f565b926113536040519485610459565b80845261047f565b60209190601f1901368484013760005b81518110156113bb57600581901b8281018401519087018401516000908152602081815260408083206001600160a01b0390941683529290522054600191906113b482876112fc565b520161136b565b509193505050565b604051635b05999160e01b815260048101919091526024810191909152604490fd5b9160886114449160405193849160208301966bffffffffffffffffffffffff199060601b16875260348301526114258151809260206054860191016102c2565b81013060601b6054820152466068820152036068810184520182610459565b51902090565b1561145157565b60405162461bcd60e51b815260206004820152602260248201527f596f752068617665207265616368656420746865206d6178696d756d206c6576604482015261195b60f21b6064820152608490fd5b90600182018092116114af57565b634e487b7160e01b600052601160045260246000fd5b919082018092116114af57565b156114d957565b60405162461bcd60e51b8152602060048201526017602482015276125b9cdd59999a58da595b9d08199d5b991cc81cd95b9d604a1b6044820152606490fd5b3d15611543573d90611529826104f6565b916115376040519384610459565b82523d6000602084013e565b606090565b1561154f57565b60405162461bcd60e51b815260206004820152602760248201527f4661696c656420746f2073656e642066756e647320746f206d756c7469736967604482015266081dd85b1b195d60ca1b6064820152608490fd5b156115ab57565b60405162461bcd60e51b8152602060048201526017602482015276496e76616c69642061646d696e207369676e617475726560481b6044820152606490fd5b6003546001600160a01b031633036109a157565b9091906001600160a01b03811680156117915760405190600191828152602092602082019687526040820192818452606094606084019583875260808501806040528551875180820361177557505050908391826000905b611714575b5050508351146000146116d857600088517fc3d58168c5ae7397731d063d5bbf3d657854427343f4c083240f7aacaa2d0f626116ad885160405191829133958360209093929193604081019481520152565b0390a45b8151036116ca5750506116c8935190519133611a5b565b565b9150916116c894503361192e565b60006040517f4a39dc06d4c0dbc64b70af90fd698a233a518aa5d07e595d983b8c0526c8f7fb33918061170c8989836118a9565b0390a46116b1565b86518110156117705780849160051b880161176761175f8d6117488789860151950151946000526000602052604060002090565b9060018060a01b0316600052602052604060002090565b9182546114c5565b90550183611656565b61165b565b635b05999160e01b8352608488019190915260a4870152604490fd5b604051632bfa23e760e11b815260006004820152602490fd5b61031b916117b7916117c0565b9092919261181c565b81519190604183036117f1576117ea92506020820151906060604084015193015160001a90611a90565b9192909190565b505060009160029190565b6004111561180657565b634e487b7160e01b600052602160045260246000fd5b611825816117fc565b8061182e575050565b611837816117fc565b600181036118515760405163f645eedf60e01b8152600490fd5b61185a816117fc565b6002810361187b5760405163fce698f760e01b815260048101839052602490fd5b806118876003926117fc565b1461188f5750565b6040516335e2f38360e21b81526004810191909152602490fd5b90916118c061031b936040845260408401906107af565b9160208184039101526107af565b908160209103126101ec575161031b81610242565b9261191261031b95936119209360018060a01b031686526000602087015260a0604087015260a08601906107af565b9084820360608601526107af565b9160808184039101526102e5565b9293919093843b611941575b5050505050565b602091611964604051948593849363bc197c8160e01b98898652600486016118e3565b038160006001600160a01b0388165af1600091816119f9575b506119bc578261198b611518565b80519190826119b557604051632bfa23e760e11b81526001600160a01b0383166004820152602490fd5b9050602001fd5b6001600160e01b031916036119d65750388080808061193a565b604051632bfa23e760e11b81526001600160a01b03919091166004820152602490fd5b611a1c91925060203d602011611a23575b611a148183610459565b8101906118ce565b903861197d565b503d611a0a565b909260a09261031b9594600180861b03168352600060208401526040830152606082015281608082015201906102e5565b9293919093843b611a6d575050505050565b602091611964604051948593849363f23a6e6160e01b9889865260048601611a2a565b91906fa2a8918ca85bafe22016d0b997e4df60600160ff1b038411611afe57926020929160ff608095604051948552168484015260408301526060820152600092839182805260015afa156107545780516001600160a01b03811615611af557918190565b50809160019190565b5050506000916003919056fea26469706673582212201bbc570d567f2f882735a11520e8ddf64cf4e316dcaee07ad65adf284b0dcb2a64736f6c63430008180033",
  "linkReferences": {},
  "deployedLinkReferences": {}
}